{"abi":[{"inputs":[],"stateMutability":"nonpayable","type":"constructor"},{"inputs":[{"internalType":"uint256","name":"minimunContribution","type":"uint256"}],"name":"createCampaign","outputs":[],"stateMutability":"nonpayable","type":"function"},{"inputs":[{"internalType":"uint256","name":"","type":"uint256"}],"name":"deployedCampaigns","outputs":[{"internalType":"address","name":"","type":"address"}],"stateMutability":"view","type":"function"},{"inputs":[],"name":"getDeployedCampaigns","outputs":[{"internalType":"address[]","name":"","type":"address[]"}],"stateMutability":"view","type":"function"},{"inputs":[],"name":"manager","outputs":[{"internalType":"address","name":"","type":"address"}],"stateMutability":"view","type":"function"}],"devdoc":{"kind":"dev","methods":{},"version":1},"evm":{"assembly":"    /* \"MyPunchStarter.sol\":58:537  contract CampaignFactory {... */\n  mstore(0x40, 0x80)\n    /* \"MyPunchStarter.sol\":158:209  constructor() {... */\n  callvalue\n  dup1\n  iszero\n  tag_1\n  jumpi\n  0x00\n  dup1\n  revert\ntag_1:\n  pop\n    /* \"MyPunchStarter.sol\":192:202  msg.sender */\n  caller\n    /* \"MyPunchStarter.sol\":182:189  manager */\n  0x00\n  dup1\n    /* \"MyPunchStarter.sol\":182:202  manager = msg.sender */\n  0x0100\n  exp\n  dup2\n  sload\n  dup2\n  0xffffffffffffffffffffffffffffffffffffffff\n  mul\n  not\n  and\n  swap1\n  dup4\n  0xffffffffffffffffffffffffffffffffffffffff\n  and\n  mul\n  or\n  swap1\n  sstore\n  pop\n    /* \"MyPunchStarter.sol\":58:537  contract CampaignFactory {... */\n  dataSize(sub_0)\n  dup1\n  dataOffset(sub_0)\n  0x00\n  codecopy\n  0x00\n  return\nstop\n\nsub_0: assembly {\n        /* \"MyPunchStarter.sol\":58:537  contract CampaignFactory {... */\n      mstore(0x40, 0x80)\n      callvalue\n      dup1\n      iszero\n      tag_1\n      jumpi\n      0x00\n      dup1\n      revert\n    tag_1:\n      pop\n      jumpi(tag_2, lt(calldatasize, 0x04))\n      shr(0xe0, calldataload(0x00))\n      dup1\n      0x339d50a5\n      eq\n      tag_3\n      jumpi\n      dup1\n      0x481c6a75\n      eq\n      tag_4\n      jumpi\n      dup1\n      0x4acb9d4f\n      eq\n      tag_5\n      jumpi\n      dup1\n      0xa3303a75\n      eq\n      tag_6\n      jumpi\n    tag_2:\n      0x00\n      dup1\n      revert\n        /* \"MyPunchStarter.sol\":117:151  address[] public deployedCampaigns */\n    tag_3:\n      tag_7\n      0x04\n      dup1\n      calldatasize\n      sub\n      dup2\n      add\n      swap1\n      tag_8\n      swap2\n      swap1\n      tag_9\n      jump\t// in\n    tag_8:\n      tag_10\n      jump\t// in\n    tag_7:\n      mload(0x40)\n      tag_11\n      swap2\n      swap1\n      tag_12\n      jump\t// in\n    tag_11:\n      mload(0x40)\n      dup1\n      swap2\n      sub\n      swap1\n      return\n        /* \"MyPunchStarter.sol\":89:111  address public manager */\n    tag_4:\n      tag_13\n      tag_14\n      jump\t// in\n    tag_13:\n      mload(0x40)\n      tag_15\n      swap2\n      swap1\n      tag_12\n      jump\t// in\n    tag_15:\n      mload(0x40)\n      dup1\n      swap2\n      sub\n      swap1\n      return\n        /* \"MyPunchStarter.sol\":423:535  function getDeployedCampaigns() public view returns (address[] memory) {... */\n    tag_5:\n      tag_16\n      tag_17\n      jump\t// in\n    tag_16:\n      mload(0x40)\n      tag_18\n      swap2\n      swap1\n      tag_19\n      jump\t// in\n    tag_18:\n      mload(0x40)\n      dup1\n      swap2\n      sub\n      swap1\n      return\n        /* \"MyPunchStarter.sol\":215:417  function createCampaign(uint minimunContribution) public {... */\n    tag_6:\n      tag_20\n      0x04\n      dup1\n      calldatasize\n      sub\n      dup2\n      add\n      swap1\n      tag_21\n      swap2\n      swap1\n      tag_9\n      jump\t// in\n    tag_21:\n      tag_22\n      jump\t// in\n    tag_20:\n      stop\n        /* \"MyPunchStarter.sol\":117:151  address[] public deployedCampaigns */\n    tag_10:\n      0x01\n      dup2\n      dup2\n      sload\n      dup2\n      lt\n      tag_23\n      jumpi\n      0x00\n      dup1\n      revert\n    tag_23:\n      swap1\n      0x00\n      mstore\n      keccak256(0x00, 0x20)\n      add\n      0x00\n      swap2\n      pop\n      sload\n      swap1\n      0x0100\n      exp\n      swap1\n      div\n      0xffffffffffffffffffffffffffffffffffffffff\n      and\n      dup2\n      jump\t// out\n        /* \"MyPunchStarter.sol\":89:111  address public manager */\n    tag_14:\n      0x00\n      dup1\n      sload\n      swap1\n      0x0100\n      exp\n      swap1\n      div\n      0xffffffffffffffffffffffffffffffffffffffff\n      and\n      dup2\n      jump\t// out\n        /* \"MyPunchStarter.sol\":423:535  function getDeployedCampaigns() public view returns (address[] memory) {... */\n    tag_17:\n        /* \"MyPunchStarter.sol\":476:492  address[] memory */\n      0x60\n        /* \"MyPunchStarter.sol\":511:528  deployedCampaigns */\n      0x01\n        /* \"MyPunchStarter.sol\":504:528  return deployedCampaigns */\n      dup1\n      sload\n      dup1\n      0x20\n      mul\n      0x20\n      add\n      mload(0x40)\n      swap1\n      dup2\n      add\n      0x40\n      mstore\n      dup1\n      swap3\n      swap2\n      swap1\n      dup2\n      dup2\n      mstore\n      0x20\n      add\n      dup3\n      dup1\n      sload\n      dup1\n      iszero\n      tag_26\n      jumpi\n      0x20\n      mul\n      dup3\n      add\n      swap2\n      swap1\n      0x00\n      mstore\n      keccak256(0x00, 0x20)\n      swap1\n    tag_27:\n      dup2\n      0x00\n      swap1\n      sload\n      swap1\n      0x0100\n      exp\n      swap1\n      div\n      0xffffffffffffffffffffffffffffffffffffffff\n      and\n      0xffffffffffffffffffffffffffffffffffffffff\n      and\n      dup2\n      mstore\n      0x20\n      add\n      swap1\n      0x01\n      add\n      swap1\n      dup1\n      dup4\n      gt\n      tag_27\n      jumpi\n    tag_26:\n      pop\n      pop\n      pop\n      pop\n      pop\n      swap1\n      pop\n        /* \"MyPunchStarter.sol\":423:535  function getDeployedCampaigns() public view returns (address[] memory) {... */\n      swap1\n      jump\t// out\n        /* \"MyPunchStarter.sol\":215:417  function createCampaign(uint minimunContribution) public {... */\n    tag_22:\n        /* \"MyPunchStarter.sol\":282:305  MyPunchStarter campaign */\n      0x00\n        /* \"MyPunchStarter.sol\":327:346  minimunContribution */\n      dup2\n        /* \"MyPunchStarter.sol\":348:358  msg.sender */\n      caller\n        /* \"MyPunchStarter.sol\":308:359  new MyPunchStarter(minimunContribution, msg.sender) */\n      mload(0x40)\n      tag_29\n      swap1\n      tag_30\n      jump\t// in\n    tag_29:\n      tag_31\n      swap3\n      swap2\n      swap1\n      tag_32\n      jump\t// in\n    tag_31:\n      mload(0x40)\n      dup1\n      swap2\n      sub\n      swap1\n      0x00\n      create\n      dup1\n      iszero\n      dup1\n      iszero\n      tag_33\n      jumpi\n      returndatasize\n      0x00\n      dup1\n      returndatacopy\n      revert(0x00, returndatasize)\n    tag_33:\n      pop\n        /* \"MyPunchStarter.sol\":282:359  MyPunchStarter campaign = new MyPunchStarter(minimunContribution, msg.sender) */\n      swap1\n      pop\n        /* \"MyPunchStarter.sol\":369:386  deployedCampaigns */\n      0x01\n        /* \"MyPunchStarter.sol\":400:408  campaign */\n      dup2\n        /* \"MyPunchStarter.sol\":369:410  deployedCampaigns.push(address(campaign)) */\n      swap1\n      dup1\n      0x01\n      dup2\n      sload\n      add\n      dup1\n      dup3\n      sstore\n      dup1\n      swap2\n      pop\n      pop\n      0x01\n      swap1\n      sub\n      swap1\n      0x00\n      mstore\n      keccak256(0x00, 0x20)\n      add\n      0x00\n      swap1\n      swap2\n      swap1\n      swap2\n      swap1\n      swap2\n      0x0100\n      exp\n      dup2\n      sload\n      dup2\n      0xffffffffffffffffffffffffffffffffffffffff\n      mul\n      not\n      and\n      swap1\n      dup4\n      0xffffffffffffffffffffffffffffffffffffffff\n      and\n      mul\n      or\n      swap1\n      sstore\n      pop\n        /* \"MyPunchStarter.sol\":272:417  {... */\n      pop\n        /* \"MyPunchStarter.sol\":215:417  function createCampaign(uint minimunContribution) public {... */\n      pop\n      jump\t// out\n    tag_30:\n      dataSize(sub_0)\n      dup1\n      dataOffset(sub_0)\n      dup4\n      codecopy\n      add\n      swap1\n      jump\t// out\n        /* \"#utility.yul\":88:205   */\n    tag_36:\n        /* \"#utility.yul\":197:198   */\n      0x00\n        /* \"#utility.yul\":194:195   */\n      dup1\n        /* \"#utility.yul\":187:199   */\n      revert\n        /* \"#utility.yul\":334:411   */\n    tag_38:\n        /* \"#utility.yul\":371:378   */\n      0x00\n        /* \"#utility.yul\":400:405   */\n      dup2\n        /* \"#utility.yul\":389:405   */\n      swap1\n      pop\n        /* \"#utility.yul\":334:411   */\n      swap2\n      swap1\n      pop\n      jump\t// out\n        /* \"#utility.yul\":417:539   */\n    tag_39:\n        /* \"#utility.yul\":490:514   */\n      tag_58\n        /* \"#utility.yul\":508:513   */\n      dup2\n        /* \"#utility.yul\":490:514   */\n      tag_38\n      jump\t// in\n    tag_58:\n        /* \"#utility.yul\":483:488   */\n      dup2\n        /* \"#utility.yul\":480:515   */\n      eq\n        /* \"#utility.yul\":470:533   */\n      tag_59\n      jumpi\n        /* \"#utility.yul\":529:530   */\n      0x00\n        /* \"#utility.yul\":526:527   */\n      dup1\n        /* \"#utility.yul\":519:531   */\n      revert\n        /* \"#utility.yul\":470:533   */\n    tag_59:\n        /* \"#utility.yul\":417:539   */\n      pop\n      jump\t// out\n        /* \"#utility.yul\":545:684   */\n    tag_40:\n        /* \"#utility.yul\":591:596   */\n      0x00\n        /* \"#utility.yul\":629:635   */\n      dup2\n        /* \"#utility.yul\":616:636   */\n      calldataload\n        /* \"#utility.yul\":607:636   */\n      swap1\n      pop\n        /* \"#utility.yul\":645:678   */\n      tag_61\n        /* \"#utility.yul\":672:677   */\n      dup2\n        /* \"#utility.yul\":645:678   */\n      tag_39\n      jump\t// in\n    tag_61:\n        /* \"#utility.yul\":545:684   */\n      swap3\n      swap2\n      pop\n      pop\n      jump\t// out\n        /* \"#utility.yul\":690:1019   */\n    tag_9:\n        /* \"#utility.yul\":749:755   */\n      0x00\n        /* \"#utility.yul\":798:800   */\n      0x20\n        /* \"#utility.yul\":786:795   */\n      dup3\n        /* \"#utility.yul\":777:784   */\n      dup5\n        /* \"#utility.yul\":773:796   */\n      sub\n        /* \"#utility.yul\":769:801   */\n      slt\n        /* \"#utility.yul\":766:885   */\n      iszero\n      tag_63\n      jumpi\n        /* \"#utility.yul\":804:883   */\n      tag_64\n      tag_36\n      jump\t// in\n    tag_64:\n        /* \"#utility.yul\":766:885   */\n    tag_63:\n        /* \"#utility.yul\":924:925   */\n      0x00\n        /* \"#utility.yul\":949:1002   */\n      tag_65\n        /* \"#utility.yul\":994:1001   */\n      dup5\n        /* \"#utility.yul\":985:991   */\n      dup3\n        /* \"#utility.yul\":974:983   */\n      dup6\n        /* \"#utility.yul\":970:992   */\n      add\n        /* \"#utility.yul\":949:1002   */\n      tag_40\n      jump\t// in\n    tag_65:\n        /* \"#utility.yul\":939:1002   */\n      swap2\n      pop\n        /* \"#utility.yul\":895:1012   */\n      pop\n        /* \"#utility.yul\":690:1019   */\n      swap3\n      swap2\n      pop\n      pop\n      jump\t// out\n        /* \"#utility.yul\":1025:1151   */\n    tag_41:\n        /* \"#utility.yul\":1062:1069   */\n      0x00\n        /* \"#utility.yul\":1102:1144   */\n      0xffffffffffffffffffffffffffffffffffffffff\n        /* \"#utility.yul\":1095:1100   */\n      dup3\n        /* \"#utility.yul\":1091:1145   */\n      and\n        /* \"#utility.yul\":1080:1145   */\n      swap1\n      pop\n        /* \"#utility.yul\":1025:1151   */\n      swap2\n      swap1\n      pop\n      jump\t// out\n        /* \"#utility.yul\":1157:1253   */\n    tag_42:\n        /* \"#utility.yul\":1194:1201   */\n      0x00\n        /* \"#utility.yul\":1223:1247   */\n      tag_68\n        /* \"#utility.yul\":1241:1246   */\n      dup3\n        /* \"#utility.yul\":1223:1247   */\n      tag_41\n      jump\t// in\n    tag_68:\n        /* \"#utility.yul\":1212:1247   */\n      swap1\n      pop\n        /* \"#utility.yul\":1157:1253   */\n      swap2\n      swap1\n      pop\n      jump\t// out\n        /* \"#utility.yul\":1259:1377   */\n    tag_43:\n        /* \"#utility.yul\":1346:1370   */\n      tag_70\n        /* \"#utility.yul\":1364:1369   */\n      dup2\n        /* \"#utility.yul\":1346:1370   */\n      tag_42\n      jump\t// in\n    tag_70:\n        /* \"#utility.yul\":1341:1344   */\n      dup3\n        /* \"#utility.yul\":1334:1371   */\n      mstore\n        /* \"#utility.yul\":1259:1377   */\n      pop\n      pop\n      jump\t// out\n        /* \"#utility.yul\":1383:1605   */\n    tag_12:\n        /* \"#utility.yul\":1476:1480   */\n      0x00\n        /* \"#utility.yul\":1514:1516   */\n      0x20\n        /* \"#utility.yul\":1503:1512   */\n      dup3\n        /* \"#utility.yul\":1499:1517   */\n      add\n        /* \"#utility.yul\":1491:1517   */\n      swap1\n      pop\n        /* \"#utility.yul\":1527:1598   */\n      tag_72\n        /* \"#utility.yul\":1595:1596   */\n      0x00\n        /* \"#utility.yul\":1584:1593   */\n      dup4\n        /* \"#utility.yul\":1580:1597   */\n      add\n        /* \"#utility.yul\":1571:1577   */\n      dup5\n        /* \"#utility.yul\":1527:1598   */\n      tag_43\n      jump\t// in\n    tag_72:\n        /* \"#utility.yul\":1383:1605   */\n      swap3\n      swap2\n      pop\n      pop\n      jump\t// out\n        /* \"#utility.yul\":1611:1725   */\n    tag_44:\n        /* \"#utility.yul\":1678:1684   */\n      0x00\n        /* \"#utility.yul\":1712:1717   */\n      dup2\n        /* \"#utility.yul\":1706:1718   */\n      mload\n        /* \"#utility.yul\":1696:1718   */\n      swap1\n      pop\n        /* \"#utility.yul\":1611:1725   */\n      swap2\n      swap1\n      pop\n      jump\t// out\n        /* \"#utility.yul\":1731:1915   */\n    tag_45:\n        /* \"#utility.yul\":1830:1841   */\n      0x00\n        /* \"#utility.yul\":1864:1870   */\n      dup3\n        /* \"#utility.yul\":1859:1862   */\n      dup3\n        /* \"#utility.yul\":1852:1871   */\n      mstore\n        /* \"#utility.yul\":1904:1908   */\n      0x20\n        /* \"#utility.yul\":1899:1902   */\n      dup3\n        /* \"#utility.yul\":1895:1909   */\n      add\n        /* \"#utility.yul\":1880:1909   */\n      swap1\n      pop\n        /* \"#utility.yul\":1731:1915   */\n      swap3\n      swap2\n      pop\n      pop\n      jump\t// out\n        /* \"#utility.yul\":1921:2053   */\n    tag_46:\n        /* \"#utility.yul\":1988:1992   */\n      0x00\n        /* \"#utility.yul\":2011:2014   */\n      dup2\n        /* \"#utility.yul\":2003:2014   */\n      swap1\n      pop\n        /* \"#utility.yul\":2041:2045   */\n      0x20\n        /* \"#utility.yul\":2036:2039   */\n      dup3\n        /* \"#utility.yul\":2032:2046   */\n      add\n        /* \"#utility.yul\":2024:2046   */\n      swap1\n      pop\n        /* \"#utility.yul\":1921:2053   */\n      swap2\n      swap1\n      pop\n      jump\t// out\n        /* \"#utility.yul\":2059:2167   */\n    tag_47:\n        /* \"#utility.yul\":2136:2160   */\n      tag_77\n        /* \"#utility.yul\":2154:2159   */\n      dup2\n        /* \"#utility.yul\":2136:2160   */\n      tag_42\n      jump\t// in\n    tag_77:\n        /* \"#utility.yul\":2131:2134   */\n      dup3\n        /* \"#utility.yul\":2124:2161   */\n      mstore\n        /* \"#utility.yul\":2059:2167   */\n      pop\n      pop\n      jump\t// out\n        /* \"#utility.yul\":2173:2352   */\n    tag_48:\n        /* \"#utility.yul\":2242:2252   */\n      0x00\n        /* \"#utility.yul\":2263:2309   */\n      tag_79\n        /* \"#utility.yul\":2305:2308   */\n      dup4\n        /* \"#utility.yul\":2297:2303   */\n      dup4\n        /* \"#utility.yul\":2263:2309   */\n      tag_47\n      jump\t// in\n    tag_79:\n        /* \"#utility.yul\":2341:2345   */\n      0x20\n        /* \"#utility.yul\":2336:2339   */\n      dup4\n        /* \"#utility.yul\":2332:2346   */\n      add\n        /* \"#utility.yul\":2318:2346   */\n      swap1\n      pop\n        /* \"#utility.yul\":2173:2352   */\n      swap3\n      swap2\n      pop\n      pop\n      jump\t// out\n        /* \"#utility.yul\":2358:2471   */\n    tag_49:\n        /* \"#utility.yul\":2428:2432   */\n      0x00\n        /* \"#utility.yul\":2460:2464   */\n      0x20\n        /* \"#utility.yul\":2455:2458   */\n      dup3\n        /* \"#utility.yul\":2451:2465   */\n      add\n        /* \"#utility.yul\":2443:2465   */\n      swap1\n      pop\n        /* \"#utility.yul\":2358:2471   */\n      swap2\n      swap1\n      pop\n      jump\t// out\n        /* \"#utility.yul\":2507:3239   */\n    tag_50:\n        /* \"#utility.yul\":2626:2629   */\n      0x00\n        /* \"#utility.yul\":2655:2709   */\n      tag_82\n        /* \"#utility.yul\":2703:2708   */\n      dup3\n        /* \"#utility.yul\":2655:2709   */\n      tag_44\n      jump\t// in\n    tag_82:\n        /* \"#utility.yul\":2725:2811   */\n      tag_83\n        /* \"#utility.yul\":2804:2810   */\n      dup2\n        /* \"#utility.yul\":2799:2802   */\n      dup6\n        /* \"#utility.yul\":2725:2811   */\n      tag_45\n      jump\t// in\n    tag_83:\n        /* \"#utility.yul\":2718:2811   */\n      swap4\n      pop\n        /* \"#utility.yul\":2835:2891   */\n      tag_84\n        /* \"#utility.yul\":2885:2890   */\n      dup4\n        /* \"#utility.yul\":2835:2891   */\n      tag_46\n      jump\t// in\n    tag_84:\n        /* \"#utility.yul\":2914:2921   */\n      dup1\n        /* \"#utility.yul\":2945:2946   */\n      0x00\n        /* \"#utility.yul\":2930:3214   */\n    tag_85:\n        /* \"#utility.yul\":2955:2961   */\n      dup4\n        /* \"#utility.yul\":2952:2953   */\n      dup2\n        /* \"#utility.yul\":2949:2962   */\n      lt\n        /* \"#utility.yul\":2930:3214   */\n      iszero\n      tag_87\n      jumpi\n        /* \"#utility.yul\":3031:3037   */\n      dup2\n        /* \"#utility.yul\":3025:3038   */\n      mload\n        /* \"#utility.yul\":3058:3121   */\n      tag_88\n        /* \"#utility.yul\":3117:3120   */\n      dup9\n        /* \"#utility.yul\":3102:3115   */\n      dup3\n        /* \"#utility.yul\":3058:3121   */\n      tag_48\n      jump\t// in\n    tag_88:\n        /* \"#utility.yul\":3051:3121   */\n      swap8\n      pop\n        /* \"#utility.yul\":3144:3204   */\n      tag_89\n        /* \"#utility.yul\":3197:3203   */\n      dup4\n        /* \"#utility.yul\":3144:3204   */\n      tag_49\n      jump\t// in\n    tag_89:\n        /* \"#utility.yul\":3134:3204   */\n      swap3\n      pop\n        /* \"#utility.yul\":2990:3214   */\n      pop\n        /* \"#utility.yul\":2977:2978   */\n      0x01\n        /* \"#utility.yul\":2974:2975   */\n      dup2\n        /* \"#utility.yul\":2970:2979   */\n      add\n        /* \"#utility.yul\":2965:2979   */\n      swap1\n      pop\n        /* \"#utility.yul\":2930:3214   */\n      jump(tag_85)\n    tag_87:\n        /* \"#utility.yul\":2934:2948   */\n      pop\n        /* \"#utility.yul\":3230:3233   */\n      dup6\n        /* \"#utility.yul\":3223:3233   */\n      swap4\n      pop\n        /* \"#utility.yul\":2631:3239   */\n      pop\n      pop\n      pop\n        /* \"#utility.yul\":2507:3239   */\n      swap3\n      swap2\n      pop\n      pop\n      jump\t// out\n        /* \"#utility.yul\":3245:3618   */\n    tag_19:\n        /* \"#utility.yul\":3388:3392   */\n      0x00\n        /* \"#utility.yul\":3426:3428   */\n      0x20\n        /* \"#utility.yul\":3415:3424   */\n      dup3\n        /* \"#utility.yul\":3411:3429   */\n      add\n        /* \"#utility.yul\":3403:3429   */\n      swap1\n      pop\n        /* \"#utility.yul\":3475:3484   */\n      dup2\n        /* \"#utility.yul\":3469:3473   */\n      dup2\n        /* \"#utility.yul\":3465:3485   */\n      sub\n        /* \"#utility.yul\":3461:3462   */\n      0x00\n        /* \"#utility.yul\":3450:3459   */\n      dup4\n        /* \"#utility.yul\":3446:3463   */\n      add\n        /* \"#utility.yul\":3439:3486   */\n      mstore\n        /* \"#utility.yul\":3503:3611   */\n      tag_91\n        /* \"#utility.yul\":3606:3610   */\n      dup2\n        /* \"#utility.yul\":3597:3603   */\n      dup5\n        /* \"#utility.yul\":3503:3611   */\n      tag_50\n      jump\t// in\n    tag_91:\n        /* \"#utility.yul\":3495:3611   */\n      swap1\n      pop\n        /* \"#utility.yul\":3245:3618   */\n      swap3\n      swap2\n      pop\n      pop\n      jump\t// out\n        /* \"#utility.yul\":3624:3742   */\n    tag_51:\n        /* \"#utility.yul\":3711:3735   */\n      tag_93\n        /* \"#utility.yul\":3729:3734   */\n      dup2\n        /* \"#utility.yul\":3711:3735   */\n      tag_38\n      jump\t// in\n    tag_93:\n        /* \"#utility.yul\":3706:3709   */\n      dup3\n        /* \"#utility.yul\":3699:3736   */\n      mstore\n        /* \"#utility.yul\":3624:3742   */\n      pop\n      pop\n      jump\t// out\n        /* \"#utility.yul\":3748:4080   */\n    tag_32:\n        /* \"#utility.yul\":3869:3873   */\n      0x00\n        /* \"#utility.yul\":3907:3909   */\n      0x40\n        /* \"#utility.yul\":3896:3905   */\n      dup3\n        /* \"#utility.yul\":3892:3910   */\n      add\n        /* \"#utility.yul\":3884:3910   */\n      swap1\n      pop\n        /* \"#utility.yul\":3920:3991   */\n      tag_95\n        /* \"#utility.yul\":3988:3989   */\n      0x00\n        /* \"#utility.yul\":3977:3986   */\n      dup4\n        /* \"#utility.yul\":3973:3990   */\n      add\n        /* \"#utility.yul\":3964:3970   */\n      dup6\n        /* \"#utility.yul\":3920:3991   */\n      tag_51\n      jump\t// in\n    tag_95:\n        /* \"#utility.yul\":4001:4073   */\n      tag_96\n        /* \"#utility.yul\":4069:4071   */\n      0x20\n        /* \"#utility.yul\":4058:4067   */\n      dup4\n        /* \"#utility.yul\":4054:4072   */\n      add\n        /* \"#utility.yul\":4045:4051   */\n      dup5\n        /* \"#utility.yul\":4001:4073   */\n      tag_43\n      jump\t// in\n    tag_96:\n        /* \"#utility.yul\":3748:4080   */\n      swap4\n      swap3\n      pop\n      pop\n      pop\n      jump\t// out\n    stop\n\n    sub_0: assembly {\n            /* \"MyPunchStarter.sol\":539:3720  contract MyPunchStarter {... */\n          mstore(0x40, 0x80)\n            /* \"MyPunchStarter.sol\":1300:1425  constructor ( uint minimum, address creator) payable{... */\n          mload(0x40)\n          sub(codesize, bytecodeSize)\n          dup1\n          bytecodeSize\n          dup4\n          codecopy\n          dup2\n          dup2\n          add\n          0x40\n          mstore\n          dup2\n          add\n          swap1\n          tag_1\n          swap2\n          swap1\n          tag_2\n          jump\t// in\n        tag_1:\n            /* \"MyPunchStarter.sol\":1372:1379  creator */\n          dup1\n            /* \"MyPunchStarter.sol\":1362:1369  manager */\n          0x03\n          0x00\n            /* \"MyPunchStarter.sol\":1362:1379  manager = creator */\n          0x0100\n          exp\n          dup2\n          sload\n          dup2\n          0xffffffffffffffffffffffffffffffffffffffff\n          mul\n          not\n          and\n          swap1\n          dup4\n          0xffffffffffffffffffffffffffffffffffffffff\n          and\n          mul\n          or\n          swap1\n          sstore\n          pop\n            /* \"MyPunchStarter.sol\":1411:1418  minimum */\n          dup2\n            /* \"MyPunchStarter.sol\":1389:1408  minimumContribution */\n          0x04\n            /* \"MyPunchStarter.sol\":1389:1418  minimumContribution = minimum */\n          dup2\n          swap1\n          sstore\n          pop\n            /* \"MyPunchStarter.sol\":1300:1425  constructor ( uint minimum, address creator) payable{... */\n          pop\n          pop\n            /* \"MyPunchStarter.sol\":539:3720  contract MyPunchStarter {... */\n          jump(tag_5)\n            /* \"#utility.yul\":88:205   */\n        tag_7:\n            /* \"#utility.yul\":197:198   */\n          0x00\n            /* \"#utility.yul\":194:195   */\n          dup1\n            /* \"#utility.yul\":187:199   */\n          revert\n            /* \"#utility.yul\":334:411   */\n        tag_9:\n            /* \"#utility.yul\":371:378   */\n          0x00\n            /* \"#utility.yul\":400:405   */\n          dup2\n            /* \"#utility.yul\":389:405   */\n          swap1\n          pop\n            /* \"#utility.yul\":334:411   */\n          swap2\n          swap1\n          pop\n          jump\t// out\n            /* \"#utility.yul\":417:539   */\n        tag_10:\n            /* \"#utility.yul\":490:514   */\n          tag_22\n            /* \"#utility.yul\":508:513   */\n          dup2\n            /* \"#utility.yul\":490:514   */\n          tag_9\n          jump\t// in\n        tag_22:\n            /* \"#utility.yul\":483:488   */\n          dup2\n            /* \"#utility.yul\":480:515   */\n          eq\n            /* \"#utility.yul\":470:533   */\n          tag_23\n          jumpi\n            /* \"#utility.yul\":529:530   */\n          0x00\n            /* \"#utility.yul\":526:527   */\n          dup1\n            /* \"#utility.yul\":519:531   */\n          revert\n            /* \"#utility.yul\":470:533   */\n        tag_23:\n            /* \"#utility.yul\":417:539   */\n          pop\n          jump\t// out\n            /* \"#utility.yul\":545:688   */\n        tag_11:\n            /* \"#utility.yul\":602:607   */\n          0x00\n            /* \"#utility.yul\":633:639   */\n          dup2\n            /* \"#utility.yul\":627:640   */\n          mload\n            /* \"#utility.yul\":618:640   */\n          swap1\n          pop\n            /* \"#utility.yul\":649:682   */\n          tag_25\n            /* \"#utility.yul\":676:681   */\n          dup2\n            /* \"#utility.yul\":649:682   */\n          tag_10\n          jump\t// in\n        tag_25:\n            /* \"#utility.yul\":545:688   */\n          swap3\n          swap2\n          pop\n          pop\n          jump\t// out\n            /* \"#utility.yul\":694:820   */\n        tag_12:\n            /* \"#utility.yul\":731:738   */\n          0x00\n            /* \"#utility.yul\":771:813   */\n          0xffffffffffffffffffffffffffffffffffffffff\n            /* \"#utility.yul\":764:769   */\n          dup3\n            /* \"#utility.yul\":760:814   */\n          and\n            /* \"#utility.yul\":749:814   */\n          swap1\n          pop\n            /* \"#utility.yul\":694:820   */\n          swap2\n          swap1\n          pop\n          jump\t// out\n            /* \"#utility.yul\":826:922   */\n        tag_13:\n            /* \"#utility.yul\":863:870   */\n          0x00\n            /* \"#utility.yul\":892:916   */\n          tag_28\n            /* \"#utility.yul\":910:915   */\n          dup3\n            /* \"#utility.yul\":892:916   */\n          tag_12\n          jump\t// in\n        tag_28:\n            /* \"#utility.yul\":881:916   */\n          swap1\n          pop\n            /* \"#utility.yul\":826:922   */\n          swap2\n          swap1\n          pop\n          jump\t// out\n            /* \"#utility.yul\":928:1050   */\n        tag_14:\n            /* \"#utility.yul\":1001:1025   */\n          tag_30\n            /* \"#utility.yul\":1019:1024   */\n          dup2\n            /* \"#utility.yul\":1001:1025   */\n          tag_13\n          jump\t// in\n        tag_30:\n            /* \"#utility.yul\":994:999   */\n          dup2\n            /* \"#utility.yul\":991:1026   */\n          eq\n            /* \"#utility.yul\":981:1044   */\n          tag_31\n          jumpi\n            /* \"#utility.yul\":1040:1041   */\n          0x00\n            /* \"#utility.yul\":1037:1038   */\n          dup1\n            /* \"#utility.yul\":1030:1042   */\n          revert\n            /* \"#utility.yul\":981:1044   */\n        tag_31:\n            /* \"#utility.yul\":928:1050   */\n          pop\n          jump\t// out\n            /* \"#utility.yul\":1056:1199   */\n        tag_15:\n            /* \"#utility.yul\":1113:1118   */\n          0x00\n            /* \"#utility.yul\":1144:1150   */\n          dup2\n            /* \"#utility.yul\":1138:1151   */\n          mload\n            /* \"#utility.yul\":1129:1151   */\n          swap1\n          pop\n            /* \"#utility.yul\":1160:1193   */\n          tag_33\n            /* \"#utility.yul\":1187:1192   */\n          dup2\n            /* \"#utility.yul\":1160:1193   */\n          tag_14\n          jump\t// in\n        tag_33:\n            /* \"#utility.yul\":1056:1199   */\n          swap3\n          swap2\n          pop\n          pop\n          jump\t// out\n            /* \"#utility.yul\":1205:1712   */\n        tag_2:\n            /* \"#utility.yul\":1284:1290   */\n          0x00\n            /* \"#utility.yul\":1292:1298   */\n          dup1\n            /* \"#utility.yul\":1341:1343   */\n          0x40\n            /* \"#utility.yul\":1329:1338   */\n          dup4\n            /* \"#utility.yul\":1320:1327   */\n          dup6\n            /* \"#utility.yul\":1316:1339   */\n          sub\n            /* \"#utility.yul\":1312:1344   */\n          slt\n            /* \"#utility.yul\":1309:1428   */\n          iszero\n          tag_35\n          jumpi\n            /* \"#utility.yul\":1347:1426   */\n          tag_36\n          tag_7\n          jump\t// in\n        tag_36:\n            /* \"#utility.yul\":1309:1428   */\n        tag_35:\n            /* \"#utility.yul\":1467:1468   */\n          0x00\n            /* \"#utility.yul\":1492:1556   */\n          tag_37\n            /* \"#utility.yul\":1548:1555   */\n          dup6\n            /* \"#utility.yul\":1539:1545   */\n          dup3\n            /* \"#utility.yul\":1528:1537   */\n          dup7\n            /* \"#utility.yul\":1524:1546   */\n          add\n            /* \"#utility.yul\":1492:1556   */\n          tag_11\n          jump\t// in\n        tag_37:\n            /* \"#utility.yul\":1482:1556   */\n          swap3\n          pop\n            /* \"#utility.yul\":1438:1566   */\n          pop\n            /* \"#utility.yul\":1605:1607   */\n          0x20\n            /* \"#utility.yul\":1631:1695   */\n          tag_38\n            /* \"#utility.yul\":1687:1694   */\n          dup6\n            /* \"#utility.yul\":1678:1684   */\n          dup3\n            /* \"#utility.yul\":1667:1676   */\n          dup7\n            /* \"#utility.yul\":1663:1685   */\n          add\n            /* \"#utility.yul\":1631:1695   */\n          tag_15\n          jump\t// in\n        tag_38:\n            /* \"#utility.yul\":1621:1695   */\n          swap2\n          pop\n            /* \"#utility.yul\":1576:1705   */\n          pop\n            /* \"#utility.yul\":1205:1712   */\n          swap3\n          pop\n          swap3\n          swap1\n          pop\n          jump\t// out\n            /* \"MyPunchStarter.sol\":539:3720  contract MyPunchStarter {... */\n        tag_5:\n          dataSize(sub_0)\n          dup1\n          dataOffset(sub_0)\n          0x00\n          codecopy\n          0x00\n          return\n        stop\n\n        sub_0: assembly {\n                /* \"MyPunchStarter.sol\":539:3720  contract MyPunchStarter {... */\n              mstore(0x40, 0x80)\n              jumpi(tag_1, lt(calldatasize, 0x04))\n              shr(0xe0, calldataload(0x00))\n              dup1\n              0x8a9cfd55\n              gt\n              tag_17\n              jumpi\n              dup1\n              0xd7bb99ba\n              gt\n              tag_18\n              jumpi\n              dup1\n              0xd7bb99ba\n              eq\n              tag_13\n              jumpi\n              dup1\n              0xd7d1bbdb\n              eq\n              tag_14\n              jumpi\n              dup1\n              0xe1c24d51\n              eq\n              tag_15\n              jumpi\n              dup1\n              0xfd35e8b6\n              eq\n              tag_16\n              jumpi\n              jump(tag_1)\n            tag_18:\n              dup1\n              0x8a9cfd55\n              eq\n              tag_9\n              jumpi\n              dup1\n              0x937e09b1\n              eq\n              tag_10\n              jumpi\n              dup1\n              0xb69ef8a8\n              eq\n              tag_11\n              jumpi\n              dup1\n              0xc29d566d\n              eq\n              tag_12\n              jumpi\n              jump(tag_1)\n            tag_17:\n              dup1\n              0x4051ddac\n              gt\n              tag_19\n              jumpi\n              dup1\n              0x4051ddac\n              eq\n              tag_5\n              jumpi\n              dup1\n              0x481c6a75\n              eq\n              tag_6\n              jumpi\n              dup1\n              0x81d12c58\n              eq\n              tag_7\n              jumpi\n              dup1\n              0x82fde093\n              eq\n              tag_8\n              jumpi\n              jump(tag_1)\n            tag_19:\n              dup1\n              0x03441006\n              eq\n              tag_2\n              jumpi\n              dup1\n              0x0a144391\n              eq\n              tag_3\n              jumpi\n              dup1\n              0x3410452a\n              eq\n              tag_4\n              jumpi\n            tag_1:\n              0x00\n              dup1\n              revert\n                /* \"MyPunchStarter.sol\":3037:3429  function finalizeRequest(uint requestIndex) public restricted  {... */\n            tag_2:\n              callvalue\n              dup1\n              iszero\n              tag_20\n              jumpi\n              0x00\n              dup1\n              revert\n            tag_20:\n              pop\n              tag_21\n              0x04\n              dup1\n              calldatasize\n              sub\n              dup2\n              add\n              swap1\n              tag_22\n              swap2\n              swap1\n              tag_23\n              jump\t// in\n            tag_22:\n              tag_24\n              jump\t// in\n            tag_21:\n              stop\n                /* \"MyPunchStarter.sol\":1134:1175  mapping(address => bool) public approvers */\n            tag_3:\n              callvalue\n              dup1\n              iszero\n              tag_25\n              jumpi\n              0x00\n              dup1\n              revert\n            tag_25:\n              pop\n              tag_26\n              0x04\n              dup1\n              calldatasize\n              sub\n              dup2\n              add\n              swap1\n              tag_27\n              swap2\n              swap1\n              tag_28\n              jump\t// in\n            tag_27:\n              tag_29\n              jump\t// in\n            tag_26:\n              mload(0x40)\n              tag_30\n              swap2\n              swap1\n              tag_31\n              jump\t// in\n            tag_30:\n              mload(0x40)\n              dup1\n              swap2\n              sub\n              swap1\n              return\n                /* \"MyPunchStarter.sol\":2671:2770  function getRequestsCount()  public view returns (uint)  {... */\n            tag_4:\n              callvalue\n              dup1\n              iszero\n              tag_32\n              jumpi\n              0x00\n              dup1\n              revert\n            tag_32:\n              pop\n              tag_33\n              tag_34\n              jump\t// in\n            tag_33:\n              mload(0x40)\n              tag_35\n              swap2\n              swap1\n              tag_36\n              jump\t// in\n            tag_35:\n              mload(0x40)\n              dup1\n              swap2\n              sub\n              swap1\n              return\n                /* \"MyPunchStarter.sol\":2323:2665  function getSummary()  public view returns (CampaignSummary memory)  {... */\n            tag_5:\n              callvalue\n              dup1\n              iszero\n              tag_37\n              jumpi\n              0x00\n              dup1\n              revert\n            tag_37:\n              pop\n              tag_38\n              tag_39\n              jump\t// in\n            tag_38:\n              mload(0x40)\n              tag_40\n              swap2\n              swap1\n              tag_41\n              jump\t// in\n            tag_40:\n              mload(0x40)\n              dup1\n              swap2\n              sub\n              swap1\n              return\n                /* \"MyPunchStarter.sol\":1035:1057  address public manager */\n            tag_6:\n              callvalue\n              dup1\n              iszero\n              tag_42\n              jumpi\n              0x00\n              dup1\n              revert\n            tag_42:\n              pop\n              tag_43\n              tag_44\n              jump\t// in\n            tag_43:\n              mload(0x40)\n              tag_45\n              swap2\n              swap1\n              tag_46\n              jump\t// in\n            tag_45:\n              mload(0x40)\n              dup1\n              swap2\n              sub\n              swap1\n              return\n                /* \"MyPunchStarter.sol\":989:1029  mapping(uint => Request) public requests */\n            tag_7:\n              callvalue\n              dup1\n              iszero\n              tag_47\n              jumpi\n              0x00\n              dup1\n              revert\n            tag_47:\n              pop\n              tag_48\n              0x04\n              dup1\n              calldatasize\n              sub\n              dup2\n              add\n              swap1\n              tag_49\n              swap2\n              swap1\n              tag_23\n              jump\t// in\n            tag_49:\n              tag_50\n              jump\t// in\n            tag_48:\n              mload(0x40)\n              tag_51\n              swap7\n              swap6\n              swap5\n              swap4\n              swap3\n              swap2\n              swap1\n              tag_52\n              jump\t// in\n            tag_51:\n              mload(0x40)\n              dup1\n              swap2\n              sub\n              swap1\n              return\n                /* \"MyPunchStarter.sol\":1181:1207  uint public approversCount */\n            tag_8:\n              callvalue\n              dup1\n              iszero\n              tag_53\n              jumpi\n              0x00\n              dup1\n              revert\n            tag_53:\n              pop\n              tag_54\n              tag_55\n              jump\t// in\n            tag_54:\n              mload(0x40)\n              tag_56\n              swap2\n              swap1\n              tag_36\n              jump\t// in\n            tag_56:\n              mload(0x40)\n              dup1\n              swap2\n              sub\n              swap1\n              return\n                /* \"MyPunchStarter.sol\":1633:2103  function createRequest(string memory description, uint value, address recipient) public restricted payable {... */\n            tag_9:\n              tag_57\n              0x04\n              dup1\n              calldatasize\n              sub\n              dup2\n              add\n              swap1\n              tag_58\n              swap2\n              swap1\n              tag_59\n              jump\t// in\n            tag_58:\n              tag_60\n              jump\t// in\n            tag_57:\n              stop\n                /* \"MyPunchStarter.sol\":1063:1094  uint public minimumContribution */\n            tag_10:\n              callvalue\n              dup1\n              iszero\n              tag_61\n              jumpi\n              0x00\n              dup1\n              revert\n            tag_61:\n              pop\n              tag_62\n              tag_63\n              jump\t// in\n            tag_62:\n              mload(0x40)\n              tag_64\n              swap2\n              swap1\n              tag_36\n              jump\t// in\n            tag_64:\n              mload(0x40)\n              dup1\n              swap2\n              sub\n              swap1\n              return\n                /* \"MyPunchStarter.sol\":2109:2199  function balance() public view returns (uint){... */\n            tag_11:\n              callvalue\n              dup1\n              iszero\n              tag_65\n              jumpi\n              0x00\n              dup1\n              revert\n            tag_65:\n              pop\n              tag_66\n              tag_67\n              jump\t// in\n            tag_66:\n              mload(0x40)\n              tag_68\n              swap2\n              swap1\n              tag_36\n              jump\t// in\n            tag_68:\n              mload(0x40)\n              dup1\n              swap2\n              sub\n              swap1\n              return\n                /* \"MyPunchStarter.sol\":2206:2317  function existsApproversForRequest ()  public view returns (bool)  {... */\n            tag_12:\n              callvalue\n              dup1\n              iszero\n              tag_69\n              jumpi\n              0x00\n              dup1\n              revert\n            tag_69:\n              pop\n              tag_70\n              tag_71\n              jump\t// in\n            tag_70:\n              mload(0x40)\n              tag_72\n              swap2\n              swap1\n              tag_31\n              jump\t// in\n            tag_72:\n              mload(0x40)\n              dup1\n              swap2\n              sub\n              swap1\n              return\n                /* \"MyPunchStarter.sol\":1431:1627  function contribute() public payable {... */\n            tag_13:\n              tag_73\n              tag_74\n              jump\t// in\n            tag_73:\n              stop\n                /* \"MyPunchStarter.sol\":3435:3718  function approveRequest(uint requestIndex) public  {... */\n            tag_14:\n              callvalue\n              dup1\n              iszero\n              tag_75\n              jumpi\n              0x00\n              dup1\n              revert\n            tag_75:\n              pop\n              tag_76\n              0x04\n              dup1\n              calldatasize\n              sub\n              dup2\n              add\n              swap1\n              tag_77\n              swap2\n              swap1\n              tag_23\n              jump\t// in\n            tag_77:\n              tag_78\n              jump\t// in\n            tag_76:\n              stop\n                /* \"MyPunchStarter.sol\":1100:1128  uint public lastContribution */\n            tag_15:\n              callvalue\n              dup1\n              iszero\n              tag_79\n              jumpi\n              0x00\n              dup1\n              revert\n            tag_79:\n              pop\n              tag_80\n              tag_81\n              jump\t// in\n            tag_80:\n              mload(0x40)\n              tag_82\n              swap2\n              swap1\n              tag_36\n              jump\t// in\n            tag_82:\n              mload(0x40)\n              dup1\n              swap2\n              sub\n              swap1\n              return\n                /* \"MyPunchStarter.sol\":2776:3031  function enoughApproversForRequest (uint requestIndex)  public view returns (bool)  {... */\n            tag_16:\n              callvalue\n              dup1\n              iszero\n              tag_83\n              jumpi\n              0x00\n              dup1\n              revert\n            tag_83:\n              pop\n              tag_84\n              0x04\n              dup1\n              calldatasize\n              sub\n              dup2\n              add\n              swap1\n              tag_85\n              swap2\n              swap1\n              tag_23\n              jump\t// in\n            tag_85:\n              tag_86\n              jump\t// in\n            tag_84:\n              mload(0x40)\n              tag_87\n              swap2\n              swap1\n              tag_31\n              jump\t// in\n            tag_87:\n              mload(0x40)\n              dup1\n              swap2\n              sub\n              swap1\n              return\n                /* \"MyPunchStarter.sol\":3037:3429  function finalizeRequest(uint requestIndex) public restricted  {... */\n            tag_24:\n                /* \"MyPunchStarter.sol\":1268:1275  manager */\n              0x03\n              0x00\n              swap1\n              sload\n              swap1\n              0x0100\n              exp\n              swap1\n              div\n              0xffffffffffffffffffffffffffffffffffffffff\n              and\n                /* \"MyPunchStarter.sol\":1254:1275  msg.sender == manager */\n              0xffffffffffffffffffffffffffffffffffffffff\n              and\n                /* \"MyPunchStarter.sol\":1254:1264  msg.sender */\n              caller\n                /* \"MyPunchStarter.sol\":1254:1275  msg.sender == manager */\n              0xffffffffffffffffffffffffffffffffffffffff\n              and\n              eq\n                /* \"MyPunchStarter.sol\":1246:1276  require(msg.sender == manager) */\n              tag_89\n              jumpi\n              0x00\n              dup1\n              revert\n            tag_89:\n                /* \"MyPunchStarter.sol\":3110:3133  Request storage request */\n              0x00\n                /* \"MyPunchStarter.sol\":3136:3144  requests */\n              0x02\n                /* \"MyPunchStarter.sol\":3136:3158  requests[requestIndex] */\n              0x00\n                /* \"MyPunchStarter.sol\":3145:3157  requestIndex */\n              dup4\n                /* \"MyPunchStarter.sol\":3136:3158  requests[requestIndex] */\n              dup2\n              mstore\n              0x20\n              add\n              swap1\n              dup2\n              mstore\n              0x20\n              add\n              0x00\n              keccak256\n                /* \"MyPunchStarter.sol\":3110:3158  Request storage request = requests[requestIndex] */\n              swap1\n              pop\n                /* \"MyPunchStarter.sol\":3177:3184  request */\n              dup1\n                /* \"MyPunchStarter.sol\":3177:3193  request.complete */\n              0x02\n              add\n              0x14\n              swap1\n              sload\n              swap1\n              0x0100\n              exp\n              swap1\n              div\n              0xff\n              and\n                /* \"MyPunchStarter.sol\":3176:3193  !request.complete */\n              iszero\n                /* \"MyPunchStarter.sol\":3168:3194  require(!request.complete) */\n              tag_91\n              jumpi\n              0x00\n              dup1\n              revert\n            tag_91:\n                /* \"MyPunchStarter.sol\":3212:3251  enoughApproversForRequest(requestIndex) */\n              tag_92\n                /* \"MyPunchStarter.sol\":3238:3250  requestIndex */\n              dup3\n                /* \"MyPunchStarter.sol\":3212:3237  enoughApproversForRequest */\n              tag_86\n                /* \"MyPunchStarter.sol\":3212:3251  enoughApproversForRequest(requestIndex) */\n              jump\t// in\n            tag_92:\n                /* \"MyPunchStarter.sol\":3204:3252  require(enoughApproversForRequest(requestIndex)) */\n              tag_93\n              jumpi\n              0x00\n              dup1\n              revert\n            tag_93:\n                /* \"MyPunchStarter.sol\":3281:3285  true */\n              0x01\n                /* \"MyPunchStarter.sol\":3262:3269  request */\n              dup2\n                /* \"MyPunchStarter.sol\":3262:3278  request.complete */\n              0x02\n              add\n              0x14\n                /* \"MyPunchStarter.sol\":3262:3285  request.complete = true */\n              0x0100\n              exp\n              dup2\n              sload\n              dup2\n              0xff\n              mul\n              not\n              and\n              swap1\n              dup4\n              iszero\n              iszero\n              mul\n              or\n              swap1\n              sstore\n              pop\n                /* \"MyPunchStarter.sol\":3295:3313  uncompletedRequest */\n              0x01\n              0x00\n                /* \"MyPunchStarter.sol\":3295:3315  uncompletedRequest-- */\n              dup2\n              sload\n              dup1\n              swap3\n              swap2\n              swap1\n              tag_94\n              swap1\n              tag_95\n              jump\t// in\n            tag_94:\n              swap2\n              swap1\n              pop\n              sstore\n              pop\n                /* \"MyPunchStarter.sol\":3325:3350  address payable recipient */\n              0x00\n                /* \"MyPunchStarter.sol\":3361:3368  request */\n              dup2\n                /* \"MyPunchStarter.sol\":3361:3378  request.recipient */\n              0x02\n              add\n              0x00\n              swap1\n              sload\n              swap1\n              0x0100\n              exp\n              swap1\n              div\n              0xffffffffffffffffffffffffffffffffffffffff\n              and\n                /* \"MyPunchStarter.sol\":3325:3379  address payable recipient = payable(request.recipient) */\n              swap1\n              pop\n                /* \"MyPunchStarter.sol\":3389:3398  recipient */\n              dup1\n                /* \"MyPunchStarter.sol\":3389:3407  recipient.transfer */\n              0xffffffffffffffffffffffffffffffffffffffff\n              and\n                /* \"MyPunchStarter.sol\":3389:3422  recipient.transfer(request.value) */\n              0x08fc\n                /* \"MyPunchStarter.sol\":3408:3415  request */\n              dup4\n                /* \"MyPunchStarter.sol\":3408:3421  request.value */\n              0x01\n              add\n              sload\n                /* \"MyPunchStarter.sol\":3389:3422  recipient.transfer(request.value) */\n              swap1\n              dup2\n              iszero\n              mul\n              swap1\n              mload(0x40)\n              0x00\n              mload(0x40)\n              dup1\n              dup4\n              sub\n              dup2\n              dup6\n              dup9\n              dup9\n              call\n              swap4\n              pop\n              pop\n              pop\n              pop\n              iszero\n              dup1\n              iszero\n              tag_97\n              jumpi\n              returndatasize\n              0x00\n              dup1\n              returndatacopy\n              revert(0x00, returndatasize)\n            tag_97:\n              pop\n                /* \"MyPunchStarter.sol\":3100:3429  {... */\n              pop\n              pop\n                /* \"MyPunchStarter.sol\":3037:3429  function finalizeRequest(uint requestIndex) public restricted  {... */\n              pop\n              jump\t// out\n                /* \"MyPunchStarter.sol\":1134:1175  mapping(address => bool) public approvers */\n            tag_29:\n              mstore(0x20, 0x06)\n              dup1\n              0x00\n              mstore\n              keccak256(0x00, 0x40)\n              0x00\n              swap2\n              pop\n              sload\n              swap1\n              0x0100\n              exp\n              swap1\n              div\n              0xff\n              and\n              dup2\n              jump\t// out\n                /* \"MyPunchStarter.sol\":2671:2770  function getRequestsCount()  public view returns (uint)  {... */\n            tag_34:\n                /* \"MyPunchStarter.sol\":2721:2725  uint */\n              0x00\n                /* \"MyPunchStarter.sol\":2745:2763  uncompletedRequest */\n              sload(0x01)\n                /* \"MyPunchStarter.sol\":2738:2763  return uncompletedRequest */\n              swap1\n              pop\n                /* \"MyPunchStarter.sol\":2671:2770  function getRequestsCount()  public view returns (uint)  {... */\n              swap1\n              jump\t// out\n                /* \"MyPunchStarter.sol\":2323:2665  function getSummary()  public view returns (CampaignSummary memory)  {... */\n            tag_39:\n                /* \"MyPunchStarter.sol\":2367:2389  CampaignSummary memory */\n              tag_99\n              tag_100\n              jump\t// in\n            tag_99:\n                /* \"MyPunchStarter.sol\":2402:2432  CampaignSummary memory summary */\n              0x00\n                /* \"MyPunchStarter.sol\":2435:2634  CampaignSummary({... */\n              mload(0x40)\n              dup1\n              0x80\n              add\n              0x40\n              mstore\n              dup1\n                /* \"MyPunchStarter.sol\":2482:2501  minimumContribution */\n              sload(0x04)\n                /* \"MyPunchStarter.sol\":2435:2634  CampaignSummary({... */\n              dup2\n              mstore\n              0x20\n              add\n                /* \"MyPunchStarter.sol\":2529:2543  approversCount */\n              sload(0x07)\n                /* \"MyPunchStarter.sol\":2435:2634  CampaignSummary({... */\n              dup2\n              mstore\n              0x20\n              add\n                /* \"MyPunchStarter.sol\":2573:2591  uncompletedRequest */\n              sload(0x01)\n                /* \"MyPunchStarter.sol\":2435:2634  CampaignSummary({... */\n              dup2\n              mstore\n              0x20\n              add\n                /* \"MyPunchStarter.sol\":2614:2623  balance() */\n              tag_102\n                /* \"MyPunchStarter.sol\":2614:2621  balance */\n              tag_67\n                /* \"MyPunchStarter.sol\":2614:2623  balance() */\n              jump\t// in\n            tag_102:\n                /* \"MyPunchStarter.sol\":2435:2634  CampaignSummary({... */\n              dup2\n              mstore\n              pop\n                /* \"MyPunchStarter.sol\":2402:2634  CampaignSummary memory summary = CampaignSummary({... */\n              swap1\n              pop\n                /* \"MyPunchStarter.sol\":2651:2658  summary */\n              dup1\n                /* \"MyPunchStarter.sol\":2644:2658  return summary */\n              swap2\n              pop\n              pop\n                /* \"MyPunchStarter.sol\":2323:2665  function getSummary()  public view returns (CampaignSummary memory)  {... */\n              swap1\n              jump\t// out\n                /* \"MyPunchStarter.sol\":1035:1057  address public manager */\n            tag_44:\n              0x03\n              0x00\n              swap1\n              sload\n              swap1\n              0x0100\n              exp\n              swap1\n              div\n              0xffffffffffffffffffffffffffffffffffffffff\n              and\n              dup2\n              jump\t// out\n                /* \"MyPunchStarter.sol\":989:1029  mapping(uint => Request) public requests */\n            tag_50:\n              mstore(0x20, 0x02)\n              dup1\n              0x00\n              mstore\n              keccak256(0x00, 0x40)\n              0x00\n              swap2\n              pop\n              swap1\n              pop\n              dup1\n              0x00\n              add\n              dup1\n              sload\n              tag_103\n              swap1\n              tag_104\n              jump\t// in\n            tag_103:\n              dup1\n              0x1f\n              add\n              0x20\n              dup1\n              swap2\n              div\n              mul\n              0x20\n              add\n              mload(0x40)\n              swap1\n              dup2\n              add\n              0x40\n              mstore\n              dup1\n              swap3\n              swap2\n              swap1\n              dup2\n              dup2\n              mstore\n              0x20\n              add\n              dup3\n              dup1\n              sload\n              tag_105\n              swap1\n              tag_104\n              jump\t// in\n            tag_105:\n              dup1\n              iszero\n              tag_106\n              jumpi\n              dup1\n              0x1f\n              lt\n              tag_107\n              jumpi\n              0x0100\n              dup1\n              dup4\n              sload\n              div\n              mul\n              dup4\n              mstore\n              swap2\n              0x20\n              add\n              swap2\n              jump(tag_106)\n            tag_107:\n              dup3\n              add\n              swap2\n              swap1\n              0x00\n              mstore\n              keccak256(0x00, 0x20)\n              swap1\n            tag_108:\n              dup2\n              sload\n              dup2\n              mstore\n              swap1\n              0x01\n              add\n              swap1\n              0x20\n              add\n              dup1\n              dup4\n              gt\n              tag_108\n              jumpi\n              dup3\n              swap1\n              sub\n              0x1f\n              and\n              dup3\n              add\n              swap2\n            tag_106:\n              pop\n              pop\n              pop\n              pop\n              pop\n              swap1\n              dup1\n              0x01\n              add\n              sload\n              swap1\n              dup1\n              0x02\n              add\n              0x00\n              swap1\n              sload\n              swap1\n              0x0100\n              exp\n              swap1\n              div\n              0xffffffffffffffffffffffffffffffffffffffff\n              and\n              swap1\n              dup1\n              0x02\n              add\n              0x14\n              swap1\n              sload\n              swap1\n              0x0100\n              exp\n              swap1\n              div\n              0xff\n              and\n              swap1\n              dup1\n              0x03\n              add\n              sload\n              swap1\n              dup1\n              0x04\n              add\n              sload\n              swap1\n              pop\n              dup7\n              jump\t// out\n                /* \"MyPunchStarter.sol\":1181:1207  uint public approversCount */\n            tag_55:\n              sload(0x07)\n              dup2\n              jump\t// out\n                /* \"MyPunchStarter.sol\":1633:2103  function createRequest(string memory description, uint value, address recipient) public restricted payable {... */\n            tag_60:\n                /* \"MyPunchStarter.sol\":1268:1275  manager */\n              0x03\n              0x00\n              swap1\n              sload\n              swap1\n              0x0100\n              exp\n              swap1\n              div\n              0xffffffffffffffffffffffffffffffffffffffff\n              and\n                /* \"MyPunchStarter.sol\":1254:1275  msg.sender == manager */\n              0xffffffffffffffffffffffffffffffffffffffff\n              and\n                /* \"MyPunchStarter.sol\":1254:1264  msg.sender */\n              caller\n                /* \"MyPunchStarter.sol\":1254:1275  msg.sender == manager */\n              0xffffffffffffffffffffffffffffffffffffffff\n              and\n              eq\n                /* \"MyPunchStarter.sol\":1246:1276  require(msg.sender == manager) */\n              tag_110\n              jumpi\n              0x00\n              dup1\n              revert\n            tag_110:\n                /* \"MyPunchStarter.sol\":1750:1776  Request storage newRequest */\n              0x00\n                /* \"MyPunchStarter.sol\":1779:1787  requests */\n              0x02\n                /* \"MyPunchStarter.sol\":1779:1800  requests[numRequests] */\n              0x00\n                /* \"MyPunchStarter.sol\":1788:1799  numRequests */\n              dup1\n              sload\n                /* \"MyPunchStarter.sol\":1779:1800  requests[numRequests] */\n              dup2\n              mstore\n              0x20\n              add\n              swap1\n              dup2\n              mstore\n              0x20\n              add\n              0x00\n              keccak256\n                /* \"MyPunchStarter.sol\":1750:1800  Request storage newRequest = requests[numRequests] */\n              swap1\n              pop\n                /* \"MyPunchStarter.sol\":1835:1846  description */\n              dup4\n                /* \"MyPunchStarter.sol\":1810:1820  newRequest */\n              dup2\n                /* \"MyPunchStarter.sol\":1810:1832  newRequest.description */\n              0x00\n              add\n                /* \"MyPunchStarter.sol\":1810:1846  newRequest.description = description */\n              swap1\n              dup1\n              mload\n              swap1\n              0x20\n              add\n              swap1\n              tag_112\n              swap3\n              swap2\n              swap1\n              tag_113\n              jump\t// in\n            tag_112:\n              pop\n                /* \"MyPunchStarter.sol\":1875:1880  value */\n              dup3\n                /* \"MyPunchStarter.sol\":1856:1866  newRequest */\n              dup2\n                /* \"MyPunchStarter.sol\":1856:1872  newRequest.value */\n              0x01\n              add\n                /* \"MyPunchStarter.sol\":1856:1880  newRequest.value = value */\n              dup2\n              swap1\n              sstore\n              pop\n                /* \"MyPunchStarter.sol\":1913:1922  recipient */\n              dup2\n                /* \"MyPunchStarter.sol\":1890:1900  newRequest */\n              dup2\n                /* \"MyPunchStarter.sol\":1890:1910  newRequest.recipient */\n              0x02\n              add\n              0x00\n                /* \"MyPunchStarter.sol\":1890:1922  newRequest.recipient = recipient */\n              0x0100\n              exp\n              dup2\n              sload\n              dup2\n              0xffffffffffffffffffffffffffffffffffffffff\n              mul\n              not\n              and\n              swap1\n              dup4\n              0xffffffffffffffffffffffffffffffffffffffff\n              and\n              mul\n              or\n              swap1\n              sstore\n              pop\n                /* \"MyPunchStarter.sol\":1954:1959  false */\n              0x00\n                /* \"MyPunchStarter.sol\":1932:1942  newRequest */\n              dup2\n                /* \"MyPunchStarter.sol\":1932:1951  newRequest.complete */\n              0x02\n              add\n              0x14\n                /* \"MyPunchStarter.sol\":1932:1959  newRequest.complete = false */\n              0x0100\n              exp\n              dup2\n              sload\n              dup2\n              0xff\n              mul\n              not\n              and\n              swap1\n              dup4\n              iszero\n              iszero\n              mul\n              or\n              swap1\n              sstore\n              pop\n                /* \"MyPunchStarter.sol\":1995:1996  0 */\n              0x00\n                /* \"MyPunchStarter.sol\":1969:1979  newRequest */\n              dup2\n                /* \"MyPunchStarter.sol\":1969:1992  newRequest.numApprovals */\n              0x04\n              add\n                /* \"MyPunchStarter.sol\":1969:1996  newRequest.numApprovals = 0 */\n              dup2\n              swap1\n              sstore\n              pop\n                /* \"MyPunchStarter.sol\":2038:2043  false */\n              0x00\n                /* \"MyPunchStarter.sol\":2006:2016  newRequest */\n              dup2\n                /* \"MyPunchStarter.sol\":2006:2026  newRequest.approvals */\n              0x05\n              add\n                /* \"MyPunchStarter.sol\":2006:2035  newRequest.approvals[manager] */\n              0x00\n                /* \"MyPunchStarter.sol\":2027:2034  manager */\n              0x03\n              0x00\n              swap1\n              sload\n              swap1\n              0x0100\n              exp\n              swap1\n              div\n              0xffffffffffffffffffffffffffffffffffffffff\n              and\n                /* \"MyPunchStarter.sol\":2006:2035  newRequest.approvals[manager] */\n              0xffffffffffffffffffffffffffffffffffffffff\n              and\n              0xffffffffffffffffffffffffffffffffffffffff\n              and\n              dup2\n              mstore\n              0x20\n              add\n              swap1\n              dup2\n              mstore\n              0x20\n              add\n              0x00\n              keccak256\n              0x00\n                /* \"MyPunchStarter.sol\":2006:2043  newRequest.approvals[manager] = false */\n              0x0100\n              exp\n              dup2\n              sload\n              dup2\n              0xff\n              mul\n              not\n              and\n              swap1\n              dup4\n              iszero\n              iszero\n              mul\n              or\n              swap1\n              sstore\n              pop\n                /* \"MyPunchStarter.sol\":2053:2064  numRequests */\n              0x00\n              dup1\n                /* \"MyPunchStarter.sol\":2053:2066  numRequests++ */\n              dup2\n              sload\n              dup1\n              swap3\n              swap2\n              swap1\n              tag_114\n              swap1\n              tag_115\n              jump\t// in\n            tag_114:\n              swap2\n              swap1\n              pop\n              sstore\n              pop\n                /* \"MyPunchStarter.sol\":2076:2094  uncompletedRequest */\n              0x01\n              0x00\n                /* \"MyPunchStarter.sol\":2076:2096  uncompletedRequest++ */\n              dup2\n              sload\n              dup1\n              swap3\n              swap2\n              swap1\n              tag_116\n              swap1\n              tag_115\n              jump\t// in\n            tag_116:\n              swap2\n              swap1\n              pop\n              sstore\n              pop\n                /* \"MyPunchStarter.sol\":1740:2103  {... */\n              pop\n                /* \"MyPunchStarter.sol\":1633:2103  function createRequest(string memory description, uint value, address recipient) public restricted payable {... */\n              pop\n              pop\n              pop\n              jump\t// out\n                /* \"MyPunchStarter.sol\":1063:1094  uint public minimumContribution */\n            tag_63:\n              sload(0x04)\n              dup2\n              jump\t// out\n                /* \"MyPunchStarter.sol\":2109:2199  function balance() public view returns (uint){... */\n            tag_67:\n                /* \"MyPunchStarter.sol\":2149:2153  uint */\n              0x00\n                /* \"MyPunchStarter.sol\":2171:2192  address(this).balance */\n              selfbalance\n                /* \"MyPunchStarter.sol\":2164:2192  return address(this).balance */\n              swap1\n              pop\n                /* \"MyPunchStarter.sol\":2109:2199  function balance() public view returns (uint){... */\n              swap1\n              jump\t// out\n                /* \"MyPunchStarter.sol\":2206:2317  function existsApproversForRequest ()  public view returns (bool)  {... */\n            tag_71:\n                /* \"MyPunchStarter.sol\":2266:2270  bool */\n              0x00\n                /* \"MyPunchStarter.sol\":2308:2309  0 */\n              dup1\n                /* \"MyPunchStarter.sol\":2291:2305  approversCount */\n              sload(0x07)\n                /* \"MyPunchStarter.sol\":2291:2309  approversCount > 0 */\n              gt\n                /* \"MyPunchStarter.sol\":2283:2310  return (approversCount > 0) */\n              swap1\n              pop\n                /* \"MyPunchStarter.sol\":2206:2317  function existsApproversForRequest ()  public view returns (bool)  {... */\n              swap1\n              jump\t// out\n                /* \"MyPunchStarter.sol\":1431:1627  function contribute() public payable {... */\n            tag_74:\n                /* \"MyPunchStarter.sol\":1498:1517  minimumContribution */\n              sload(0x04)\n                /* \"MyPunchStarter.sol\":1486:1495  msg.value */\n              callvalue\n                /* \"MyPunchStarter.sol\":1486:1517  msg.value > minimumContribution */\n              gt\n                /* \"MyPunchStarter.sol\":1478:1518  require(msg.value > minimumContribution) */\n              tag_120\n              jumpi\n              0x00\n              dup1\n              revert\n            tag_120:\n                /* \"MyPunchStarter.sol\":1547:1556  msg.value */\n              callvalue\n                /* \"MyPunchStarter.sol\":1528:1544  lastContribution */\n              0x05\n                /* \"MyPunchStarter.sol\":1528:1556  lastContribution = msg.value */\n              dup2\n              swap1\n              sstore\n              pop\n                /* \"MyPunchStarter.sol\":1590:1594  true */\n              0x01\n                /* \"MyPunchStarter.sol\":1566:1575  approvers */\n              0x06\n                /* \"MyPunchStarter.sol\":1566:1587  approvers[msg.sender] */\n              0x00\n                /* \"MyPunchStarter.sol\":1576:1586  msg.sender */\n              caller\n                /* \"MyPunchStarter.sol\":1566:1587  approvers[msg.sender] */\n              0xffffffffffffffffffffffffffffffffffffffff\n              and\n              0xffffffffffffffffffffffffffffffffffffffff\n              and\n              dup2\n              mstore\n              0x20\n              add\n              swap1\n              dup2\n              mstore\n              0x20\n              add\n              0x00\n              keccak256\n              0x00\n                /* \"MyPunchStarter.sol\":1566:1594  approvers[msg.sender] = true */\n              0x0100\n              exp\n              dup2\n              sload\n              dup2\n              0xff\n              mul\n              not\n              and\n              swap1\n              dup4\n              iszero\n              iszero\n              mul\n              or\n              swap1\n              sstore\n              pop\n                /* \"MyPunchStarter.sol\":1604:1618  approversCount */\n              0x07\n              0x00\n                /* \"MyPunchStarter.sol\":1604:1620  approversCount++ */\n              dup2\n              sload\n              dup1\n              swap3\n              swap2\n              swap1\n              tag_121\n              swap1\n              tag_115\n              jump\t// in\n            tag_121:\n              swap2\n              swap1\n              pop\n              sstore\n              pop\n                /* \"MyPunchStarter.sol\":1431:1627  function contribute() public payable {... */\n              jump\t// out\n                /* \"MyPunchStarter.sol\":3435:3718  function approveRequest(uint requestIndex) public  {... */\n            tag_78:\n                /* \"MyPunchStarter.sol\":3504:3513  approvers */\n              0x06\n                /* \"MyPunchStarter.sol\":3504:3525  approvers[msg.sender] */\n              0x00\n                /* \"MyPunchStarter.sol\":3514:3524  msg.sender */\n              caller\n                /* \"MyPunchStarter.sol\":3504:3525  approvers[msg.sender] */\n              0xffffffffffffffffffffffffffffffffffffffff\n              and\n              0xffffffffffffffffffffffffffffffffffffffff\n              and\n              dup2\n              mstore\n              0x20\n              add\n              swap1\n              dup2\n              mstore\n              0x20\n              add\n              0x00\n              keccak256\n              0x00\n              swap1\n              sload\n              swap1\n              0x0100\n              exp\n              swap1\n              div\n              0xff\n              and\n                /* \"MyPunchStarter.sol\":3496:3526  require(approvers[msg.sender]) */\n              tag_123\n              jumpi\n              0x00\n              dup1\n              revert\n            tag_123:\n                /* \"MyPunchStarter.sol\":3536:3559  Request storage request */\n              0x00\n                /* \"MyPunchStarter.sol\":3562:3570  requests */\n              0x02\n                /* \"MyPunchStarter.sol\":3562:3584  requests[requestIndex] */\n              0x00\n                /* \"MyPunchStarter.sol\":3571:3583  requestIndex */\n              dup4\n                /* \"MyPunchStarter.sol\":3562:3584  requests[requestIndex] */\n              dup2\n              mstore\n              0x20\n              add\n              swap1\n              dup2\n              mstore\n              0x20\n              add\n              0x00\n              keccak256\n                /* \"MyPunchStarter.sol\":3536:3584  Request storage request = requests[requestIndex] */\n              swap1\n              pop\n                /* \"MyPunchStarter.sol\":3603:3610  request */\n              dup1\n                /* \"MyPunchStarter.sol\":3603:3620  request.approvals */\n              0x05\n              add\n                /* \"MyPunchStarter.sol\":3603:3632  request.approvals[msg.sender] */\n              0x00\n                /* \"MyPunchStarter.sol\":3621:3631  msg.sender */\n              caller\n                /* \"MyPunchStarter.sol\":3603:3632  request.approvals[msg.sender] */\n              0xffffffffffffffffffffffffffffffffffffffff\n              and\n              0xffffffffffffffffffffffffffffffffffffffff\n              and\n              dup2\n              mstore\n              0x20\n              add\n              swap1\n              dup2\n              mstore\n              0x20\n              add\n              0x00\n              keccak256\n              0x00\n              swap1\n              sload\n              swap1\n              0x0100\n              exp\n              swap1\n              div\n              0xff\n              and\n                /* \"MyPunchStarter.sol\":3602:3632  !request.approvals[msg.sender] */\n              iszero\n                /* \"MyPunchStarter.sol\":3594:3633  require(!request.approvals[msg.sender]) */\n              tag_124\n              jumpi\n              0x00\n              dup1\n              revert\n            tag_124:\n                /* \"MyPunchStarter.sol\":3643:3650  request */\n              dup1\n                /* \"MyPunchStarter.sol\":3643:3663  request.numApprovals */\n              0x04\n              add\n              0x00\n                /* \"MyPunchStarter.sol\":3643:3665  request.numApprovals++ */\n              dup2\n              sload\n              dup1\n              swap3\n              swap2\n              swap1\n              tag_125\n              swap1\n              tag_115\n              jump\t// in\n            tag_125:\n              swap2\n              swap1\n              pop\n              sstore\n              pop\n                /* \"MyPunchStarter.sol\":3707:3711  true */\n              0x01\n                /* \"MyPunchStarter.sol\":3675:3682  request */\n              dup2\n                /* \"MyPunchStarter.sol\":3675:3692  request.approvals */\n              0x05\n              add\n                /* \"MyPunchStarter.sol\":3675:3704  request.approvals[msg.sender] */\n              0x00\n                /* \"MyPunchStarter.sol\":3693:3703  msg.sender */\n              caller\n                /* \"MyPunchStarter.sol\":3675:3704  request.approvals[msg.sender] */\n              0xffffffffffffffffffffffffffffffffffffffff\n              and\n              0xffffffffffffffffffffffffffffffffffffffff\n              and\n              dup2\n              mstore\n              0x20\n              add\n              swap1\n              dup2\n              mstore\n              0x20\n              add\n              0x00\n              keccak256\n              0x00\n                /* \"MyPunchStarter.sol\":3675:3711  request.approvals[msg.sender] = true */\n              0x0100\n              exp\n              dup2\n              sload\n              dup2\n              0xff\n              mul\n              not\n              and\n              swap1\n              dup4\n              iszero\n              iszero\n              mul\n              or\n              swap1\n              sstore\n              pop\n                /* \"MyPunchStarter.sol\":3486:3718  {... */\n              pop\n                /* \"MyPunchStarter.sol\":3435:3718  function approveRequest(uint requestIndex) public  {... */\n              pop\n              jump\t// out\n                /* \"MyPunchStarter.sol\":1100:1128  uint public lastContribution */\n            tag_81:\n              sload(0x05)\n              dup2\n              jump\t// out\n                /* \"MyPunchStarter.sol\":2776:3031  function enoughApproversForRequest (uint requestIndex)  public view returns (bool)  {... */\n            tag_86:\n                /* \"MyPunchStarter.sol\":2853:2857  bool */\n              0x00\n                /* \"MyPunchStarter.sol\":2878:2905  existsApproversForRequest() */\n              tag_127\n                /* \"MyPunchStarter.sol\":2878:2903  existsApproversForRequest */\n              tag_71\n                /* \"MyPunchStarter.sol\":2878:2905  existsApproversForRequest() */\n              jump\t// in\n            tag_127:\n                /* \"MyPunchStarter.sol\":2870:2906  require(existsApproversForRequest()) */\n              tag_128\n              jumpi\n              0x00\n              dup1\n              revert\n            tag_128:\n                /* \"MyPunchStarter.sol\":2916:2939  Request storage request */\n              0x00\n                /* \"MyPunchStarter.sol\":2942:2950  requests */\n              0x02\n                /* \"MyPunchStarter.sol\":2942:2964  requests[requestIndex] */\n              0x00\n                /* \"MyPunchStarter.sol\":2951:2963  requestIndex */\n              dup5\n                /* \"MyPunchStarter.sol\":2942:2964  requests[requestIndex] */\n              dup2\n              mstore\n              0x20\n              add\n              swap1\n              dup2\n              mstore\n              0x20\n              add\n              0x00\n              keccak256\n                /* \"MyPunchStarter.sol\":2916:2964  Request storage request = requests[requestIndex] */\n              swap1\n              pop\n                /* \"MyPunchStarter.sol\":3021:3022  2 */\n              0x02\n                /* \"MyPunchStarter.sol\":3006:3020  approversCount */\n              sload(0x07)\n                /* \"MyPunchStarter.sol\":3006:3022  approversCount/2 */\n              tag_129\n              swap2\n              swap1\n              tag_130\n              jump\t// in\n            tag_129:\n                /* \"MyPunchStarter.sol\":2982:2989  request */\n              dup2\n                /* \"MyPunchStarter.sol\":2982:3002  request.numApprovals */\n              0x04\n              add\n              sload\n                /* \"MyPunchStarter.sol\":2982:3023  request.numApprovals > (approversCount/2) */\n              gt\n                /* \"MyPunchStarter.sol\":2974:3024  return (request.numApprovals > (approversCount/2)) */\n              swap2\n              pop\n              pop\n                /* \"MyPunchStarter.sol\":2776:3031  function enoughApproversForRequest (uint requestIndex)  public view returns (bool)  {... */\n              swap2\n              swap1\n              pop\n              jump\t// out\n            tag_100:\n              mload(0x40)\n              dup1\n              0x80\n              add\n              0x40\n              mstore\n              dup1\n              0x00\n              dup2\n              mstore\n              0x20\n              add\n              0x00\n              dup2\n              mstore\n              0x20\n              add\n              0x00\n              dup2\n              mstore\n              0x20\n              add\n              0x00\n              dup2\n              mstore\n              pop\n              swap1\n              jump\t// out\n            tag_113:\n              dup3\n              dup1\n              sload\n              tag_131\n              swap1\n              tag_104\n              jump\t// in\n            tag_131:\n              swap1\n              0x00\n              mstore\n              keccak256(0x00, 0x20)\n              swap1\n              0x1f\n              add\n              0x20\n              swap1\n              div\n              dup2\n              add\n              swap3\n              dup3\n              tag_133\n              jumpi\n              0x00\n              dup6\n              sstore\n              jump(tag_132)\n            tag_133:\n              dup3\n              0x1f\n              lt\n              tag_134\n              jumpi\n              dup1\n              mload\n              not(0xff)\n              and\n              dup4\n              dup1\n              add\n              or\n              dup6\n              sstore\n              jump(tag_132)\n            tag_134:\n              dup3\n              dup1\n              add\n              0x01\n              add\n              dup6\n              sstore\n              dup3\n              iszero\n              tag_132\n              jumpi\n              swap2\n              dup3\n              add\n            tag_135:\n              dup3\n              dup2\n              gt\n              iszero\n              tag_136\n              jumpi\n              dup3\n              mload\n              dup3\n              sstore\n              swap2\n              0x20\n              add\n              swap2\n              swap1\n              0x01\n              add\n              swap1\n              jump(tag_135)\n            tag_136:\n            tag_132:\n              pop\n              swap1\n              pop\n              tag_137\n              swap2\n              swap1\n              tag_138\n              jump\t// in\n            tag_137:\n              pop\n              swap1\n              jump\t// out\n            tag_138:\n            tag_139:\n              dup1\n              dup3\n              gt\n              iszero\n              tag_140\n              jumpi\n              0x00\n              dup2\n              0x00\n              swap1\n              sstore\n              pop\n              0x01\n              add\n              jump(tag_139)\n            tag_140:\n              pop\n              swap1\n              jump\t// out\n                /* \"#utility.yul\":7:82   */\n            tag_141:\n                /* \"#utility.yul\":40:46   */\n              0x00\n                /* \"#utility.yul\":73:75   */\n              0x40\n                /* \"#utility.yul\":67:76   */\n              mload\n                /* \"#utility.yul\":57:76   */\n              swap1\n              pop\n                /* \"#utility.yul\":7:82   */\n              swap1\n              jump\t// out\n                /* \"#utility.yul\":88:205   */\n            tag_142:\n                /* \"#utility.yul\":197:198   */\n              0x00\n                /* \"#utility.yul\":194:195   */\n              dup1\n                /* \"#utility.yul\":187:199   */\n              revert\n                /* \"#utility.yul\":211:328   */\n            tag_143:\n                /* \"#utility.yul\":320:321   */\n              0x00\n                /* \"#utility.yul\":317:318   */\n              dup1\n                /* \"#utility.yul\":310:322   */\n              revert\n                /* \"#utility.yul\":334:411   */\n            tag_144:\n                /* \"#utility.yul\":371:378   */\n              0x00\n                /* \"#utility.yul\":400:405   */\n              dup2\n                /* \"#utility.yul\":389:405   */\n              swap1\n              pop\n                /* \"#utility.yul\":334:411   */\n              swap2\n              swap1\n              pop\n              jump\t// out\n                /* \"#utility.yul\":417:539   */\n            tag_145:\n                /* \"#utility.yul\":490:514   */\n              tag_180\n                /* \"#utility.yul\":508:513   */\n              dup2\n                /* \"#utility.yul\":490:514   */\n              tag_144\n              jump\t// in\n            tag_180:\n                /* \"#utility.yul\":483:488   */\n              dup2\n                /* \"#utility.yul\":480:515   */\n              eq\n                /* \"#utility.yul\":470:533   */\n              tag_181\n              jumpi\n                /* \"#utility.yul\":529:530   */\n              0x00\n                /* \"#utility.yul\":526:527   */\n              dup1\n                /* \"#utility.yul\":519:531   */\n              revert\n                /* \"#utility.yul\":470:533   */\n            tag_181:\n                /* \"#utility.yul\":417:539   */\n              pop\n              jump\t// out\n                /* \"#utility.yul\":545:684   */\n            tag_146:\n                /* \"#utility.yul\":591:596   */\n              0x00\n                /* \"#utility.yul\":629:635   */\n              dup2\n                /* \"#utility.yul\":616:636   */\n              calldataload\n                /* \"#utility.yul\":607:636   */\n              swap1\n              pop\n                /* \"#utility.yul\":645:678   */\n              tag_183\n                /* \"#utility.yul\":672:677   */\n              dup2\n                /* \"#utility.yul\":645:678   */\n              tag_145\n              jump\t// in\n            tag_183:\n                /* \"#utility.yul\":545:684   */\n              swap3\n              swap2\n              pop\n              pop\n              jump\t// out\n                /* \"#utility.yul\":690:1019   */\n            tag_23:\n                /* \"#utility.yul\":749:755   */\n              0x00\n                /* \"#utility.yul\":798:800   */\n              0x20\n                /* \"#utility.yul\":786:795   */\n              dup3\n                /* \"#utility.yul\":777:784   */\n              dup5\n                /* \"#utility.yul\":773:796   */\n              sub\n                /* \"#utility.yul\":769:801   */\n              slt\n                /* \"#utility.yul\":766:885   */\n              iszero\n              tag_185\n              jumpi\n                /* \"#utility.yul\":804:883   */\n              tag_186\n              tag_142\n              jump\t// in\n            tag_186:\n                /* \"#utility.yul\":766:885   */\n            tag_185:\n                /* \"#utility.yul\":924:925   */\n              0x00\n                /* \"#utility.yul\":949:1002   */\n              tag_187\n                /* \"#utility.yul\":994:1001   */\n              dup5\n                /* \"#utility.yul\":985:991   */\n              dup3\n                /* \"#utility.yul\":974:983   */\n              dup6\n                /* \"#utility.yul\":970:992   */\n              add\n                /* \"#utility.yul\":949:1002   */\n              tag_146\n              jump\t// in\n            tag_187:\n                /* \"#utility.yul\":939:1002   */\n              swap2\n              pop\n                /* \"#utility.yul\":895:1012   */\n              pop\n                /* \"#utility.yul\":690:1019   */\n              swap3\n              swap2\n              pop\n              pop\n              jump\t// out\n                /* \"#utility.yul\":1025:1151   */\n            tag_147:\n                /* \"#utility.yul\":1062:1069   */\n              0x00\n                /* \"#utility.yul\":1102:1144   */\n              0xffffffffffffffffffffffffffffffffffffffff\n                /* \"#utility.yul\":1095:1100   */\n              dup3\n                /* \"#utility.yul\":1091:1145   */\n              and\n                /* \"#utility.yul\":1080:1145   */\n              swap1\n              pop\n                /* \"#utility.yul\":1025:1151   */\n              swap2\n              swap1\n              pop\n              jump\t// out\n                /* \"#utility.yul\":1157:1253   */\n            tag_148:\n                /* \"#utility.yul\":1194:1201   */\n              0x00\n                /* \"#utility.yul\":1223:1247   */\n              tag_190\n                /* \"#utility.yul\":1241:1246   */\n              dup3\n                /* \"#utility.yul\":1223:1247   */\n              tag_147\n              jump\t// in\n            tag_190:\n                /* \"#utility.yul\":1212:1247   */\n              swap1\n              pop\n                /* \"#utility.yul\":1157:1253   */\n              swap2\n              swap1\n              pop\n              jump\t// out\n                /* \"#utility.yul\":1259:1381   */\n            tag_149:\n                /* \"#utility.yul\":1332:1356   */\n              tag_192\n                /* \"#utility.yul\":1350:1355   */\n              dup2\n                /* \"#utility.yul\":1332:1356   */\n              tag_148\n              jump\t// in\n            tag_192:\n                /* \"#utility.yul\":1325:1330   */\n              dup2\n                /* \"#utility.yul\":1322:1357   */\n              eq\n                /* \"#utility.yul\":1312:1375   */\n              tag_193\n              jumpi\n                /* \"#utility.yul\":1371:1372   */\n              0x00\n                /* \"#utility.yul\":1368:1369   */\n              dup1\n                /* \"#utility.yul\":1361:1373   */\n              revert\n                /* \"#utility.yul\":1312:1375   */\n            tag_193:\n                /* \"#utility.yul\":1259:1381   */\n              pop\n              jump\t// out\n                /* \"#utility.yul\":1387:1526   */\n            tag_150:\n                /* \"#utility.yul\":1433:1438   */\n              0x00\n                /* \"#utility.yul\":1471:1477   */\n              dup2\n                /* \"#utility.yul\":1458:1478   */\n              calldataload\n                /* \"#utility.yul\":1449:1478   */\n              swap1\n              pop\n                /* \"#utility.yul\":1487:1520   */\n              tag_195\n                /* \"#utility.yul\":1514:1519   */\n              dup2\n                /* \"#utility.yul\":1487:1520   */\n              tag_149\n              jump\t// in\n            tag_195:\n                /* \"#utility.yul\":1387:1526   */\n              swap3\n              swap2\n              pop\n              pop\n              jump\t// out\n                /* \"#utility.yul\":1532:1861   */\n            tag_28:\n                /* \"#utility.yul\":1591:1597   */\n              0x00\n                /* \"#utility.yul\":1640:1642   */\n              0x20\n                /* \"#utility.yul\":1628:1637   */\n              dup3\n                /* \"#utility.yul\":1619:1626   */\n              dup5\n                /* \"#utility.yul\":1615:1638   */\n              sub\n                /* \"#utility.yul\":1611:1643   */\n              slt\n                /* \"#utility.yul\":1608:1727   */\n              iszero\n              tag_197\n              jumpi\n                /* \"#utility.yul\":1646:1725   */\n              tag_198\n              tag_142\n              jump\t// in\n            tag_198:\n                /* \"#utility.yul\":1608:1727   */\n            tag_197:\n                /* \"#utility.yul\":1766:1767   */\n              0x00\n                /* \"#utility.yul\":1791:1844   */\n              tag_199\n                /* \"#utility.yul\":1836:1843   */\n              dup5\n                /* \"#utility.yul\":1827:1833   */\n              dup3\n                /* \"#utility.yul\":1816:1825   */\n              dup6\n                /* \"#utility.yul\":1812:1834   */\n              add\n                /* \"#utility.yul\":1791:1844   */\n              tag_150\n              jump\t// in\n            tag_199:\n                /* \"#utility.yul\":1781:1844   */\n              swap2\n              pop\n                /* \"#utility.yul\":1737:1854   */\n              pop\n                /* \"#utility.yul\":1532:1861   */\n              swap3\n              swap2\n              pop\n              pop\n              jump\t// out\n                /* \"#utility.yul\":1867:1957   */\n            tag_151:\n                /* \"#utility.yul\":1901:1908   */\n              0x00\n                /* \"#utility.yul\":1944:1949   */\n              dup2\n                /* \"#utility.yul\":1937:1950   */\n              iszero\n                /* \"#utility.yul\":1930:1951   */\n              iszero\n                /* \"#utility.yul\":1919:1951   */\n              swap1\n              pop\n                /* \"#utility.yul\":1867:1957   */\n              swap2\n              swap1\n              pop\n              jump\t// out\n                /* \"#utility.yul\":1963:2072   */\n            tag_152:\n                /* \"#utility.yul\":2044:2065   */\n              tag_202\n                /* \"#utility.yul\":2059:2064   */\n              dup2\n                /* \"#utility.yul\":2044:2065   */\n              tag_151\n              jump\t// in\n            tag_202:\n                /* \"#utility.yul\":2039:2042   */\n              dup3\n                /* \"#utility.yul\":2032:2066   */\n              mstore\n                /* \"#utility.yul\":1963:2072   */\n              pop\n              pop\n              jump\t// out\n                /* \"#utility.yul\":2078:2288   */\n            tag_31:\n                /* \"#utility.yul\":2165:2169   */\n              0x00\n                /* \"#utility.yul\":2203:2205   */\n              0x20\n                /* \"#utility.yul\":2192:2201   */\n              dup3\n                /* \"#utility.yul\":2188:2206   */\n              add\n                /* \"#utility.yul\":2180:2206   */\n              swap1\n              pop\n                /* \"#utility.yul\":2216:2281   */\n              tag_204\n                /* \"#utility.yul\":2278:2279   */\n              0x00\n                /* \"#utility.yul\":2267:2276   */\n              dup4\n                /* \"#utility.yul\":2263:2280   */\n              add\n                /* \"#utility.yul\":2254:2260   */\n              dup5\n                /* \"#utility.yul\":2216:2281   */\n              tag_152\n              jump\t// in\n            tag_204:\n                /* \"#utility.yul\":2078:2288   */\n              swap3\n              swap2\n              pop\n              pop\n              jump\t// out\n                /* \"#utility.yul\":2294:2412   */\n            tag_153:\n                /* \"#utility.yul\":2381:2405   */\n              tag_206\n                /* \"#utility.yul\":2399:2404   */\n              dup2\n                /* \"#utility.yul\":2381:2405   */\n              tag_144\n              jump\t// in\n            tag_206:\n                /* \"#utility.yul\":2376:2379   */\n              dup3\n                /* \"#utility.yul\":2369:2406   */\n              mstore\n                /* \"#utility.yul\":2294:2412   */\n              pop\n              pop\n              jump\t// out\n                /* \"#utility.yul\":2418:2640   */\n            tag_36:\n                /* \"#utility.yul\":2511:2515   */\n              0x00\n                /* \"#utility.yul\":2549:2551   */\n              0x20\n                /* \"#utility.yul\":2538:2547   */\n              dup3\n                /* \"#utility.yul\":2534:2552   */\n              add\n                /* \"#utility.yul\":2526:2552   */\n              swap1\n              pop\n                /* \"#utility.yul\":2562:2633   */\n              tag_208\n                /* \"#utility.yul\":2630:2631   */\n              0x00\n                /* \"#utility.yul\":2619:2628   */\n              dup4\n                /* \"#utility.yul\":2615:2632   */\n              add\n                /* \"#utility.yul\":2606:2612   */\n              dup5\n                /* \"#utility.yul\":2562:2633   */\n              tag_153\n              jump\t// in\n            tag_208:\n                /* \"#utility.yul\":2418:2640   */\n              swap3\n              swap2\n              pop\n              pop\n              jump\t// out\n                /* \"#utility.yul\":2646:2754   */\n            tag_154:\n                /* \"#utility.yul\":2723:2747   */\n              tag_210\n                /* \"#utility.yul\":2741:2746   */\n              dup2\n                /* \"#utility.yul\":2723:2747   */\n              tag_144\n              jump\t// in\n            tag_210:\n                /* \"#utility.yul\":2718:2721   */\n              dup3\n                /* \"#utility.yul\":2711:2748   */\n              mstore\n                /* \"#utility.yul\":2646:2754   */\n              pop\n              pop\n              jump\t// out\n                /* \"#utility.yul\":2846:3745   */\n            tag_155:\n                /* \"#utility.yul\":3005:3009   */\n              0x80\n                /* \"#utility.yul\":3000:3003   */\n              dup3\n                /* \"#utility.yul\":2996:3010   */\n              add\n                /* \"#utility.yul\":3103:3107   */\n              0x00\n                /* \"#utility.yul\":3096:3101   */\n              dup3\n                /* \"#utility.yul\":3092:3108   */\n              add\n                /* \"#utility.yul\":3086:3109   */\n              mload\n                /* \"#utility.yul\":3122:3185   */\n              tag_212\n                /* \"#utility.yul\":3179:3183   */\n              0x00\n                /* \"#utility.yul\":3174:3177   */\n              dup6\n                /* \"#utility.yul\":3170:3184   */\n              add\n                /* \"#utility.yul\":3156:3168   */\n              dup3\n                /* \"#utility.yul\":3122:3185   */\n              tag_154\n              jump\t// in\n            tag_212:\n                /* \"#utility.yul\":3020:3195   */\n              pop\n                /* \"#utility.yul\":3285:3289   */\n              0x20\n                /* \"#utility.yul\":3278:3283   */\n              dup3\n                /* \"#utility.yul\":3274:3290   */\n              add\n                /* \"#utility.yul\":3268:3291   */\n              mload\n                /* \"#utility.yul\":3304:3367   */\n              tag_213\n                /* \"#utility.yul\":3361:3365   */\n              0x20\n                /* \"#utility.yul\":3356:3359   */\n              dup6\n                /* \"#utility.yul\":3352:3366   */\n              add\n                /* \"#utility.yul\":3338:3350   */\n              dup3\n                /* \"#utility.yul\":3304:3367   */\n              tag_154\n              jump\t// in\n            tag_213:\n                /* \"#utility.yul\":3205:3377   */\n              pop\n                /* \"#utility.yul\":3469:3473   */\n              0x40\n                /* \"#utility.yul\":3462:3467   */\n              dup3\n                /* \"#utility.yul\":3458:3474   */\n              add\n                /* \"#utility.yul\":3452:3475   */\n              mload\n                /* \"#utility.yul\":3488:3551   */\n              tag_214\n                /* \"#utility.yul\":3545:3549   */\n              0x40\n                /* \"#utility.yul\":3540:3543   */\n              dup6\n                /* \"#utility.yul\":3536:3550   */\n              add\n                /* \"#utility.yul\":3522:3534   */\n              dup3\n                /* \"#utility.yul\":3488:3551   */\n              tag_154\n              jump\t// in\n            tag_214:\n                /* \"#utility.yul\":3387:3561   */\n              pop\n                /* \"#utility.yul\":3646:3650   */\n              0x60\n                /* \"#utility.yul\":3639:3644   */\n              dup3\n                /* \"#utility.yul\":3635:3651   */\n              add\n                /* \"#utility.yul\":3629:3652   */\n              mload\n                /* \"#utility.yul\":3665:3728   */\n              tag_215\n                /* \"#utility.yul\":3722:3726   */\n              0x60\n                /* \"#utility.yul\":3717:3720   */\n              dup6\n                /* \"#utility.yul\":3713:3727   */\n              add\n                /* \"#utility.yul\":3699:3711   */\n              dup3\n                /* \"#utility.yul\":3665:3728   */\n              tag_154\n              jump\t// in\n            tag_215:\n                /* \"#utility.yul\":3571:3738   */\n              pop\n                /* \"#utility.yul\":2974:3745   */\n              pop\n                /* \"#utility.yul\":2846:3745   */\n              pop\n              pop\n              jump\t// out\n                /* \"#utility.yul\":3751:4098   */\n            tag_41:\n                /* \"#utility.yul\":3906:3910   */\n              0x00\n                /* \"#utility.yul\":3944:3947   */\n              0x80\n                /* \"#utility.yul\":3933:3942   */\n              dup3\n                /* \"#utility.yul\":3929:3948   */\n              add\n                /* \"#utility.yul\":3921:3948   */\n              swap1\n              pop\n                /* \"#utility.yul\":3958:4091   */\n              tag_217\n                /* \"#utility.yul\":4088:4089   */\n              0x00\n                /* \"#utility.yul\":4077:4086   */\n              dup4\n                /* \"#utility.yul\":4073:4090   */\n              add\n                /* \"#utility.yul\":4064:4070   */\n              dup5\n                /* \"#utility.yul\":3958:4091   */\n              tag_155\n              jump\t// in\n            tag_217:\n                /* \"#utility.yul\":3751:4098   */\n              swap3\n              swap2\n              pop\n              pop\n              jump\t// out\n                /* \"#utility.yul\":4104:4222   */\n            tag_156:\n                /* \"#utility.yul\":4191:4215   */\n              tag_219\n                /* \"#utility.yul\":4209:4214   */\n              dup2\n                /* \"#utility.yul\":4191:4215   */\n              tag_148\n              jump\t// in\n            tag_219:\n                /* \"#utility.yul\":4186:4189   */\n              dup3\n                /* \"#utility.yul\":4179:4216   */\n              mstore\n                /* \"#utility.yul\":4104:4222   */\n              pop\n              pop\n              jump\t// out\n                /* \"#utility.yul\":4228:4450   */\n            tag_46:\n                /* \"#utility.yul\":4321:4325   */\n              0x00\n                /* \"#utility.yul\":4359:4361   */\n              0x20\n                /* \"#utility.yul\":4348:4357   */\n              dup3\n                /* \"#utility.yul\":4344:4362   */\n              add\n                /* \"#utility.yul\":4336:4362   */\n              swap1\n              pop\n                /* \"#utility.yul\":4372:4443   */\n              tag_221\n                /* \"#utility.yul\":4440:4441   */\n              0x00\n                /* \"#utility.yul\":4429:4438   */\n              dup4\n                /* \"#utility.yul\":4425:4442   */\n              add\n                /* \"#utility.yul\":4416:4422   */\n              dup5\n                /* \"#utility.yul\":4372:4443   */\n              tag_156\n              jump\t// in\n            tag_221:\n                /* \"#utility.yul\":4228:4450   */\n              swap3\n              swap2\n              pop\n              pop\n              jump\t// out\n                /* \"#utility.yul\":4456:4555   */\n            tag_157:\n                /* \"#utility.yul\":4508:4514   */\n              0x00\n                /* \"#utility.yul\":4542:4547   */\n              dup2\n                /* \"#utility.yul\":4536:4548   */\n              mload\n                /* \"#utility.yul\":4526:4548   */\n              swap1\n              pop\n                /* \"#utility.yul\":4456:4555   */\n              swap2\n              swap1\n              pop\n              jump\t// out\n                /* \"#utility.yul\":4561:4730   */\n            tag_158:\n                /* \"#utility.yul\":4645:4656   */\n              0x00\n                /* \"#utility.yul\":4679:4685   */\n              dup3\n                /* \"#utility.yul\":4674:4677   */\n              dup3\n                /* \"#utility.yul\":4667:4686   */\n              mstore\n                /* \"#utility.yul\":4719:4723   */\n              0x20\n                /* \"#utility.yul\":4714:4717   */\n              dup3\n                /* \"#utility.yul\":4710:4724   */\n              add\n                /* \"#utility.yul\":4695:4724   */\n              swap1\n              pop\n                /* \"#utility.yul\":4561:4730   */\n              swap3\n              swap2\n              pop\n              pop\n              jump\t// out\n                /* \"#utility.yul\":4736:5043   */\n            tag_159:\n                /* \"#utility.yul\":4804:4805   */\n              0x00\n                /* \"#utility.yul\":4814:4927   */\n            tag_225:\n                /* \"#utility.yul\":4828:4834   */\n              dup4\n                /* \"#utility.yul\":4825:4826   */\n              dup2\n                /* \"#utility.yul\":4822:4835   */\n              lt\n                /* \"#utility.yul\":4814:4927   */\n              iszero\n              tag_227\n              jumpi\n                /* \"#utility.yul\":4913:4914   */\n              dup1\n                /* \"#utility.yul\":4908:4911   */\n              dup3\n                /* \"#utility.yul\":4904:4915   */\n              add\n                /* \"#utility.yul\":4898:4916   */\n              mload\n                /* \"#utility.yul\":4894:4895   */\n              dup2\n                /* \"#utility.yul\":4889:4892   */\n              dup5\n                /* \"#utility.yul\":4885:4896   */\n              add\n                /* \"#utility.yul\":4878:4917   */\n              mstore\n                /* \"#utility.yul\":4850:4852   */\n              0x20\n                /* \"#utility.yul\":4847:4848   */\n              dup2\n                /* \"#utility.yul\":4843:4853   */\n              add\n                /* \"#utility.yul\":4838:4853   */\n              swap1\n              pop\n                /* \"#utility.yul\":4814:4927   */\n              jump(tag_225)\n            tag_227:\n                /* \"#utility.yul\":4945:4951   */\n              dup4\n                /* \"#utility.yul\":4942:4943   */\n              dup2\n                /* \"#utility.yul\":4939:4952   */\n              gt\n                /* \"#utility.yul\":4936:5037   */\n              iszero\n              tag_228\n              jumpi\n                /* \"#utility.yul\":5025:5026   */\n              0x00\n                /* \"#utility.yul\":5016:5022   */\n              dup5\n                /* \"#utility.yul\":5011:5014   */\n              dup5\n                /* \"#utility.yul\":5007:5023   */\n              add\n                /* \"#utility.yul\":5000:5027   */\n              mstore\n                /* \"#utility.yul\":4936:5037   */\n            tag_228:\n                /* \"#utility.yul\":4785:5043   */\n              pop\n                /* \"#utility.yul\":4736:5043   */\n              pop\n              pop\n              pop\n              jump\t// out\n                /* \"#utility.yul\":5049:5151   */\n            tag_160:\n                /* \"#utility.yul\":5090:5096   */\n              0x00\n                /* \"#utility.yul\":5141:5143   */\n              0x1f\n                /* \"#utility.yul\":5137:5144   */\n              not\n                /* \"#utility.yul\":5132:5134   */\n              0x1f\n                /* \"#utility.yul\":5125:5130   */\n              dup4\n                /* \"#utility.yul\":5121:5135   */\n              add\n                /* \"#utility.yul\":5117:5145   */\n              and\n                /* \"#utility.yul\":5107:5145   */\n              swap1\n              pop\n                /* \"#utility.yul\":5049:5151   */\n              swap2\n              swap1\n              pop\n              jump\t// out\n                /* \"#utility.yul\":5157:5521   */\n            tag_161:\n                /* \"#utility.yul\":5245:5248   */\n              0x00\n                /* \"#utility.yul\":5273:5312   */\n              tag_231\n                /* \"#utility.yul\":5306:5311   */\n              dup3\n                /* \"#utility.yul\":5273:5312   */\n              tag_157\n              jump\t// in\n            tag_231:\n                /* \"#utility.yul\":5328:5399   */\n              tag_232\n                /* \"#utility.yul\":5392:5398   */\n              dup2\n                /* \"#utility.yul\":5387:5390   */\n              dup6\n                /* \"#utility.yul\":5328:5399   */\n              tag_158\n              jump\t// in\n            tag_232:\n                /* \"#utility.yul\":5321:5399   */\n              swap4\n              pop\n                /* \"#utility.yul\":5408:5460   */\n              tag_233\n                /* \"#utility.yul\":5453:5459   */\n              dup2\n                /* \"#utility.yul\":5448:5451   */\n              dup6\n                /* \"#utility.yul\":5441:5445   */\n              0x20\n                /* \"#utility.yul\":5434:5439   */\n              dup7\n                /* \"#utility.yul\":5430:5446   */\n              add\n                /* \"#utility.yul\":5408:5460   */\n              tag_159\n              jump\t// in\n            tag_233:\n                /* \"#utility.yul\":5485:5514   */\n              tag_234\n                /* \"#utility.yul\":5507:5513   */\n              dup2\n                /* \"#utility.yul\":5485:5514   */\n              tag_160\n              jump\t// in\n            tag_234:\n                /* \"#utility.yul\":5480:5483   */\n              dup5\n                /* \"#utility.yul\":5476:5515   */\n              add\n                /* \"#utility.yul\":5469:5515   */\n              swap2\n              pop\n                /* \"#utility.yul\":5249:5521   */\n              pop\n                /* \"#utility.yul\":5157:5521   */\n              swap3\n              swap2\n              pop\n              pop\n              jump\t// out\n                /* \"#utility.yul\":5527:6381   */\n            tag_52:\n                /* \"#utility.yul\":5774:5778   */\n              0x00\n                /* \"#utility.yul\":5812:5815   */\n              0xc0\n                /* \"#utility.yul\":5801:5810   */\n              dup3\n                /* \"#utility.yul\":5797:5816   */\n              add\n                /* \"#utility.yul\":5789:5816   */\n              swap1\n              pop\n                /* \"#utility.yul\":5862:5871   */\n              dup2\n                /* \"#utility.yul\":5856:5860   */\n              dup2\n                /* \"#utility.yul\":5852:5872   */\n              sub\n                /* \"#utility.yul\":5848:5849   */\n              0x00\n                /* \"#utility.yul\":5837:5846   */\n              dup4\n                /* \"#utility.yul\":5833:5850   */\n              add\n                /* \"#utility.yul\":5826:5873   */\n              mstore\n                /* \"#utility.yul\":5890:5968   */\n              tag_236\n                /* \"#utility.yul\":5963:5967   */\n              dup2\n                /* \"#utility.yul\":5954:5960   */\n              dup10\n                /* \"#utility.yul\":5890:5968   */\n              tag_161\n              jump\t// in\n            tag_236:\n                /* \"#utility.yul\":5882:5968   */\n              swap1\n              pop\n                /* \"#utility.yul\":5978:6050   */\n              tag_237\n                /* \"#utility.yul\":6046:6048   */\n              0x20\n                /* \"#utility.yul\":6035:6044   */\n              dup4\n                /* \"#utility.yul\":6031:6049   */\n              add\n                /* \"#utility.yul\":6022:6028   */\n              dup9\n                /* \"#utility.yul\":5978:6050   */\n              tag_153\n              jump\t// in\n            tag_237:\n                /* \"#utility.yul\":6060:6132   */\n              tag_238\n                /* \"#utility.yul\":6128:6130   */\n              0x40\n                /* \"#utility.yul\":6117:6126   */\n              dup4\n                /* \"#utility.yul\":6113:6131   */\n              add\n                /* \"#utility.yul\":6104:6110   */\n              dup8\n                /* \"#utility.yul\":6060:6132   */\n              tag_156\n              jump\t// in\n            tag_238:\n                /* \"#utility.yul\":6142:6208   */\n              tag_239\n                /* \"#utility.yul\":6204:6206   */\n              0x60\n                /* \"#utility.yul\":6193:6202   */\n              dup4\n                /* \"#utility.yul\":6189:6207   */\n              add\n                /* \"#utility.yul\":6180:6186   */\n              dup7\n                /* \"#utility.yul\":6142:6208   */\n              tag_152\n              jump\t// in\n            tag_239:\n                /* \"#utility.yul\":6218:6291   */\n              tag_240\n                /* \"#utility.yul\":6286:6289   */\n              0x80\n                /* \"#utility.yul\":6275:6284   */\n              dup4\n                /* \"#utility.yul\":6271:6290   */\n              add\n                /* \"#utility.yul\":6262:6268   */\n              dup6\n                /* \"#utility.yul\":6218:6291   */\n              tag_153\n              jump\t// in\n            tag_240:\n                /* \"#utility.yul\":6301:6374   */\n              tag_241\n                /* \"#utility.yul\":6369:6372   */\n              0xa0\n                /* \"#utility.yul\":6358:6367   */\n              dup4\n                /* \"#utility.yul\":6354:6373   */\n              add\n                /* \"#utility.yul\":6345:6351   */\n              dup5\n                /* \"#utility.yul\":6301:6374   */\n              tag_153\n              jump\t// in\n            tag_241:\n                /* \"#utility.yul\":5527:6381   */\n              swap8\n              swap7\n              pop\n              pop\n              pop\n              pop\n              pop\n              pop\n              pop\n              jump\t// out\n                /* \"#utility.yul\":6387:6504   */\n            tag_162:\n                /* \"#utility.yul\":6496:6497   */\n              0x00\n                /* \"#utility.yul\":6493:6494   */\n              dup1\n                /* \"#utility.yul\":6486:6498   */\n              revert\n                /* \"#utility.yul\":6510:6627   */\n            tag_163:\n                /* \"#utility.yul\":6619:6620   */\n              0x00\n                /* \"#utility.yul\":6616:6617   */\n              dup1\n                /* \"#utility.yul\":6609:6621   */\n              revert\n                /* \"#utility.yul\":6633:6813   */\n            tag_164:\n                /* \"#utility.yul\":6681:6758   */\n              0x4e487b7100000000000000000000000000000000000000000000000000000000\n                /* \"#utility.yul\":6678:6679   */\n              0x00\n                /* \"#utility.yul\":6671:6759   */\n              mstore\n                /* \"#utility.yul\":6778:6782   */\n              0x41\n                /* \"#utility.yul\":6775:6776   */\n              0x04\n                /* \"#utility.yul\":6768:6783   */\n              mstore\n                /* \"#utility.yul\":6802:6806   */\n              0x24\n                /* \"#utility.yul\":6799:6800   */\n              0x00\n                /* \"#utility.yul\":6792:6807   */\n              revert\n                /* \"#utility.yul\":6819:7100   */\n            tag_165:\n                /* \"#utility.yul\":6902:6929   */\n              tag_246\n                /* \"#utility.yul\":6924:6928   */\n              dup3\n                /* \"#utility.yul\":6902:6929   */\n              tag_160\n              jump\t// in\n            tag_246:\n                /* \"#utility.yul\":6894:6900   */\n              dup2\n                /* \"#utility.yul\":6890:6930   */\n              add\n                /* \"#utility.yul\":7032:7038   */\n              dup2\n                /* \"#utility.yul\":7020:7030   */\n              dup2\n                /* \"#utility.yul\":7017:7039   */\n              lt\n                /* \"#utility.yul\":6996:7014   */\n              0xffffffffffffffff\n                /* \"#utility.yul\":6984:6994   */\n              dup3\n                /* \"#utility.yul\":6981:7015   */\n              gt\n                /* \"#utility.yul\":6978:7040   */\n              or\n                /* \"#utility.yul\":6975:7063   */\n              iszero\n              tag_247\n              jumpi\n                /* \"#utility.yul\":7043:7061   */\n              tag_248\n              tag_164\n              jump\t// in\n            tag_248:\n                /* \"#utility.yul\":6975:7063   */\n            tag_247:\n                /* \"#utility.yul\":7083:7093   */\n              dup1\n                /* \"#utility.yul\":7079:7081   */\n              0x40\n                /* \"#utility.yul\":7072:7094   */\n              mstore\n                /* \"#utility.yul\":6862:7100   */\n              pop\n                /* \"#utility.yul\":6819:7100   */\n              pop\n              pop\n              jump\t// out\n                /* \"#utility.yul\":7106:7235   */\n            tag_166:\n                /* \"#utility.yul\":7140:7146   */\n              0x00\n                /* \"#utility.yul\":7167:7187   */\n              tag_250\n              tag_141\n              jump\t// in\n            tag_250:\n                /* \"#utility.yul\":7157:7187   */\n              swap1\n              pop\n                /* \"#utility.yul\":7196:7229   */\n              tag_251\n                /* \"#utility.yul\":7224:7228   */\n              dup3\n                /* \"#utility.yul\":7216:7222   */\n              dup3\n                /* \"#utility.yul\":7196:7229   */\n              tag_165\n              jump\t// in\n            tag_251:\n                /* \"#utility.yul\":7106:7235   */\n              swap2\n              swap1\n              pop\n              jump\t// out\n                /* \"#utility.yul\":7241:7549   */\n            tag_167:\n                /* \"#utility.yul\":7303:7307   */\n              0x00\n                /* \"#utility.yul\":7393:7411   */\n              0xffffffffffffffff\n                /* \"#utility.yul\":7385:7391   */\n              dup3\n                /* \"#utility.yul\":7382:7412   */\n              gt\n                /* \"#utility.yul\":7379:7435   */\n              iszero\n              tag_253\n              jumpi\n                /* \"#utility.yul\":7415:7433   */\n              tag_254\n              tag_164\n              jump\t// in\n            tag_254:\n                /* \"#utility.yul\":7379:7435   */\n            tag_253:\n                /* \"#utility.yul\":7453:7482   */\n              tag_255\n                /* \"#utility.yul\":7475:7481   */\n              dup3\n                /* \"#utility.yul\":7453:7482   */\n              tag_160\n              jump\t// in\n            tag_255:\n                /* \"#utility.yul\":7445:7482   */\n              swap1\n              pop\n                /* \"#utility.yul\":7537:7541   */\n              0x20\n                /* \"#utility.yul\":7531:7535   */\n              dup2\n                /* \"#utility.yul\":7527:7542   */\n              add\n                /* \"#utility.yul\":7519:7542   */\n              swap1\n              pop\n                /* \"#utility.yul\":7241:7549   */\n              swap2\n              swap1\n              pop\n              jump\t// out\n                /* \"#utility.yul\":7555:7709   */\n            tag_168:\n                /* \"#utility.yul\":7639:7645   */\n              dup3\n                /* \"#utility.yul\":7634:7637   */\n              dup2\n                /* \"#utility.yul\":7629:7632   */\n              dup4\n                /* \"#utility.yul\":7616:7646   */\n              calldatacopy\n                /* \"#utility.yul\":7701:7702   */\n              0x00\n                /* \"#utility.yul\":7692:7698   */\n              dup4\n                /* \"#utility.yul\":7687:7690   */\n              dup4\n                /* \"#utility.yul\":7683:7699   */\n              add\n                /* \"#utility.yul\":7676:7703   */\n              mstore\n                /* \"#utility.yul\":7555:7709   */\n              pop\n              pop\n              pop\n              jump\t// out\n                /* \"#utility.yul\":7715:8127   */\n            tag_169:\n                /* \"#utility.yul\":7793:7798   */\n              0x00\n                /* \"#utility.yul\":7818:7884   */\n              tag_258\n                /* \"#utility.yul\":7834:7883   */\n              tag_259\n                /* \"#utility.yul\":7876:7882   */\n              dup5\n                /* \"#utility.yul\":7834:7883   */\n              tag_167\n              jump\t// in\n            tag_259:\n                /* \"#utility.yul\":7818:7884   */\n              tag_166\n              jump\t// in\n            tag_258:\n                /* \"#utility.yul\":7809:7884   */\n              swap1\n              pop\n                /* \"#utility.yul\":7907:7913   */\n              dup3\n                /* \"#utility.yul\":7900:7905   */\n              dup2\n                /* \"#utility.yul\":7893:7914   */\n              mstore\n                /* \"#utility.yul\":7945:7949   */\n              0x20\n                /* \"#utility.yul\":7938:7943   */\n              dup2\n                /* \"#utility.yul\":7934:7950   */\n              add\n                /* \"#utility.yul\":7983:7986   */\n              dup5\n                /* \"#utility.yul\":7974:7980   */\n              dup5\n                /* \"#utility.yul\":7969:7972   */\n              dup5\n                /* \"#utility.yul\":7965:7981   */\n              add\n                /* \"#utility.yul\":7962:7987   */\n              gt\n                /* \"#utility.yul\":7959:8071   */\n              iszero\n              tag_260\n              jumpi\n                /* \"#utility.yul\":7990:8069   */\n              tag_261\n              tag_163\n              jump\t// in\n            tag_261:\n                /* \"#utility.yul\":7959:8071   */\n            tag_260:\n                /* \"#utility.yul\":8080:8121   */\n              tag_262\n                /* \"#utility.yul\":8114:8120   */\n              dup5\n                /* \"#utility.yul\":8109:8112   */\n              dup3\n                /* \"#utility.yul\":8104:8107   */\n              dup6\n                /* \"#utility.yul\":8080:8121   */\n              tag_168\n              jump\t// in\n            tag_262:\n                /* \"#utility.yul\":7799:8127   */\n              pop\n                /* \"#utility.yul\":7715:8127   */\n              swap4\n              swap3\n              pop\n              pop\n              pop\n              jump\t// out\n                /* \"#utility.yul\":8147:8487   */\n            tag_170:\n                /* \"#utility.yul\":8203:8208   */\n              0x00\n                /* \"#utility.yul\":8252:8255   */\n              dup3\n                /* \"#utility.yul\":8245:8249   */\n              0x1f\n                /* \"#utility.yul\":8237:8243   */\n              dup4\n                /* \"#utility.yul\":8233:8250   */\n              add\n                /* \"#utility.yul\":8229:8256   */\n              slt\n                /* \"#utility.yul\":8219:8341   */\n              tag_264\n              jumpi\n                /* \"#utility.yul\":8260:8339   */\n              tag_265\n              tag_162\n              jump\t// in\n            tag_265:\n                /* \"#utility.yul\":8219:8341   */\n            tag_264:\n                /* \"#utility.yul\":8377:8383   */\n              dup2\n                /* \"#utility.yul\":8364:8384   */\n              calldataload\n                /* \"#utility.yul\":8402:8481   */\n              tag_266\n                /* \"#utility.yul\":8477:8480   */\n              dup5\n                /* \"#utility.yul\":8469:8475   */\n              dup3\n                /* \"#utility.yul\":8462:8466   */\n              0x20\n                /* \"#utility.yul\":8454:8460   */\n              dup7\n                /* \"#utility.yul\":8450:8467   */\n              add\n                /* \"#utility.yul\":8402:8481   */\n              tag_169\n              jump\t// in\n            tag_266:\n                /* \"#utility.yul\":8393:8481   */\n              swap2\n              pop\n                /* \"#utility.yul\":8209:8487   */\n              pop\n                /* \"#utility.yul\":8147:8487   */\n              swap3\n              swap2\n              pop\n              pop\n              jump\t// out\n                /* \"#utility.yul\":8493:9292   */\n            tag_59:\n                /* \"#utility.yul\":8580:8586   */\n              0x00\n                /* \"#utility.yul\":8588:8594   */\n              dup1\n                /* \"#utility.yul\":8596:8602   */\n              0x00\n                /* \"#utility.yul\":8645:8647   */\n              0x60\n                /* \"#utility.yul\":8633:8642   */\n              dup5\n                /* \"#utility.yul\":8624:8631   */\n              dup7\n                /* \"#utility.yul\":8620:8643   */\n              sub\n                /* \"#utility.yul\":8616:8648   */\n              slt\n                /* \"#utility.yul\":8613:8732   */\n              iszero\n              tag_268\n              jumpi\n                /* \"#utility.yul\":8651:8730   */\n              tag_269\n              tag_142\n              jump\t// in\n            tag_269:\n                /* \"#utility.yul\":8613:8732   */\n            tag_268:\n                /* \"#utility.yul\":8799:8800   */\n              0x00\n                /* \"#utility.yul\":8788:8797   */\n              dup5\n                /* \"#utility.yul\":8784:8801   */\n              add\n                /* \"#utility.yul\":8771:8802   */\n              calldataload\n                /* \"#utility.yul\":8829:8847   */\n              0xffffffffffffffff\n                /* \"#utility.yul\":8821:8827   */\n              dup2\n                /* \"#utility.yul\":8818:8848   */\n              gt\n                /* \"#utility.yul\":8815:8932   */\n              iszero\n              tag_270\n              jumpi\n                /* \"#utility.yul\":8851:8930   */\n              tag_271\n              tag_143\n              jump\t// in\n            tag_271:\n                /* \"#utility.yul\":8815:8932   */\n            tag_270:\n                /* \"#utility.yul\":8956:9019   */\n              tag_272\n                /* \"#utility.yul\":9011:9018   */\n              dup7\n                /* \"#utility.yul\":9002:9008   */\n              dup3\n                /* \"#utility.yul\":8991:9000   */\n              dup8\n                /* \"#utility.yul\":8987:9009   */\n              add\n                /* \"#utility.yul\":8956:9019   */\n              tag_170\n              jump\t// in\n            tag_272:\n                /* \"#utility.yul\":8946:9019   */\n              swap4\n              pop\n                /* \"#utility.yul\":8742:9029   */\n              pop\n                /* \"#utility.yul\":9068:9070   */\n              0x20\n                /* \"#utility.yul\":9094:9147   */\n              tag_273\n                /* \"#utility.yul\":9139:9146   */\n              dup7\n                /* \"#utility.yul\":9130:9136   */\n              dup3\n                /* \"#utility.yul\":9119:9128   */\n              dup8\n                /* \"#utility.yul\":9115:9137   */\n              add\n                /* \"#utility.yul\":9094:9147   */\n              tag_146\n              jump\t// in\n            tag_273:\n                /* \"#utility.yul\":9084:9147   */\n              swap3\n              pop\n                /* \"#utility.yul\":9039:9157   */\n              pop\n                /* \"#utility.yul\":9196:9198   */\n              0x40\n                /* \"#utility.yul\":9222:9275   */\n              tag_274\n                /* \"#utility.yul\":9267:9274   */\n              dup7\n                /* \"#utility.yul\":9258:9264   */\n              dup3\n                /* \"#utility.yul\":9247:9256   */\n              dup8\n                /* \"#utility.yul\":9243:9265   */\n              add\n                /* \"#utility.yul\":9222:9275   */\n              tag_150\n              jump\t// in\n            tag_274:\n                /* \"#utility.yul\":9212:9275   */\n              swap2\n              pop\n                /* \"#utility.yul\":9167:9285   */\n              pop\n                /* \"#utility.yul\":8493:9292   */\n              swap3\n              pop\n              swap3\n              pop\n              swap3\n              jump\t// out\n                /* \"#utility.yul\":9298:9478   */\n            tag_171:\n                /* \"#utility.yul\":9346:9423   */\n              0x4e487b7100000000000000000000000000000000000000000000000000000000\n                /* \"#utility.yul\":9343:9344   */\n              0x00\n                /* \"#utility.yul\":9336:9424   */\n              mstore\n                /* \"#utility.yul\":9443:9447   */\n              0x11\n                /* \"#utility.yul\":9440:9441   */\n              0x04\n                /* \"#utility.yul\":9433:9448   */\n              mstore\n                /* \"#utility.yul\":9467:9471   */\n              0x24\n                /* \"#utility.yul\":9464:9465   */\n              0x00\n                /* \"#utility.yul\":9457:9472   */\n              revert\n                /* \"#utility.yul\":9484:9655   */\n            tag_95:\n                /* \"#utility.yul\":9523:9526   */\n              0x00\n                /* \"#utility.yul\":9546:9570   */\n              tag_277\n                /* \"#utility.yul\":9564:9569   */\n              dup3\n                /* \"#utility.yul\":9546:9570   */\n              tag_144\n              jump\t// in\n            tag_277:\n                /* \"#utility.yul\":9537:9570   */\n              swap2\n              pop\n                /* \"#utility.yul\":9592:9596   */\n              0x00\n                /* \"#utility.yul\":9585:9590   */\n              dup3\n                /* \"#utility.yul\":9582:9597   */\n              eq\n                /* \"#utility.yul\":9579:9620   */\n              iszero\n              tag_278\n              jumpi\n                /* \"#utility.yul\":9600:9618   */\n              tag_279\n              tag_171\n              jump\t// in\n            tag_279:\n                /* \"#utility.yul\":9579:9620   */\n            tag_278:\n                /* \"#utility.yul\":9647:9648   */\n              0x01\n                /* \"#utility.yul\":9640:9645   */\n              dup3\n                /* \"#utility.yul\":9636:9649   */\n              sub\n                /* \"#utility.yul\":9629:9649   */\n              swap1\n              pop\n                /* \"#utility.yul\":9484:9655   */\n              swap2\n              swap1\n              pop\n              jump\t// out\n                /* \"#utility.yul\":9661:9841   */\n            tag_172:\n                /* \"#utility.yul\":9709:9786   */\n              0x4e487b7100000000000000000000000000000000000000000000000000000000\n                /* \"#utility.yul\":9706:9707   */\n              0x00\n                /* \"#utility.yul\":9699:9787   */\n              mstore\n                /* \"#utility.yul\":9806:9810   */\n              0x22\n                /* \"#utility.yul\":9803:9804   */\n              0x04\n                /* \"#utility.yul\":9796:9811   */\n              mstore\n                /* \"#utility.yul\":9830:9834   */\n              0x24\n                /* \"#utility.yul\":9827:9828   */\n              0x00\n                /* \"#utility.yul\":9820:9835   */\n              revert\n                /* \"#utility.yul\":9847:10167   */\n            tag_104:\n                /* \"#utility.yul\":9891:9897   */\n              0x00\n                /* \"#utility.yul\":9928:9929   */\n              0x02\n                /* \"#utility.yul\":9922:9926   */\n              dup3\n                /* \"#utility.yul\":9918:9930   */\n              div\n                /* \"#utility.yul\":9908:9930   */\n              swap1\n              pop\n                /* \"#utility.yul\":9975:9976   */\n              0x01\n                /* \"#utility.yul\":9969:9973   */\n              dup3\n                /* \"#utility.yul\":9965:9977   */\n              and\n                /* \"#utility.yul\":9996:10014   */\n              dup1\n                /* \"#utility.yul\":9986:10067   */\n              tag_282\n              jumpi\n                /* \"#utility.yul\":10052:10056   */\n              0x7f\n                /* \"#utility.yul\":10044:10050   */\n              dup3\n                /* \"#utility.yul\":10040:10057   */\n              and\n                /* \"#utility.yul\":10030:10057   */\n              swap2\n              pop\n                /* \"#utility.yul\":9986:10067   */\n            tag_282:\n                /* \"#utility.yul\":10114:10116   */\n              0x20\n                /* \"#utility.yul\":10106:10112   */\n              dup3\n                /* \"#utility.yul\":10103:10117   */\n              lt\n                /* \"#utility.yul\":10083:10101   */\n              dup2\n                /* \"#utility.yul\":10080:10118   */\n              eq\n                /* \"#utility.yul\":10077:10161   */\n              iszero\n              tag_283\n              jumpi\n                /* \"#utility.yul\":10133:10151   */\n              tag_284\n              tag_172\n              jump\t// in\n            tag_284:\n                /* \"#utility.yul\":10077:10161   */\n            tag_283:\n                /* \"#utility.yul\":9898:10167   */\n              pop\n                /* \"#utility.yul\":9847:10167   */\n              swap2\n              swap1\n              pop\n              jump\t// out\n                /* \"#utility.yul\":10173:10406   */\n            tag_115:\n                /* \"#utility.yul\":10212:10215   */\n              0x00\n                /* \"#utility.yul\":10235:10259   */\n              tag_286\n                /* \"#utility.yul\":10253:10258   */\n              dup3\n                /* \"#utility.yul\":10235:10259   */\n              tag_144\n              jump\t// in\n            tag_286:\n                /* \"#utility.yul\":10226:10259   */\n              swap2\n              pop\n                /* \"#utility.yul\":10281:10347   */\n              0xffffffffffffffffffffffffffffffffffffffffffffffffffffffffffffffff\n                /* \"#utility.yul\":10274:10279   */\n              dup3\n                /* \"#utility.yul\":10271:10348   */\n              eq\n                /* \"#utility.yul\":10268:10371   */\n              iszero\n              tag_287\n              jumpi\n                /* \"#utility.yul\":10351:10369   */\n              tag_288\n              tag_171\n              jump\t// in\n            tag_288:\n                /* \"#utility.yul\":10268:10371   */\n            tag_287:\n                /* \"#utility.yul\":10398:10399   */\n              0x01\n                /* \"#utility.yul\":10391:10396   */\n              dup3\n                /* \"#utility.yul\":10387:10400   */\n              add\n                /* \"#utility.yul\":10380:10400   */\n              swap1\n              pop\n                /* \"#utility.yul\":10173:10406   */\n              swap2\n              swap1\n              pop\n              jump\t// out\n                /* \"#utility.yul\":10412:10592   */\n            tag_173:\n                /* \"#utility.yul\":10460:10537   */\n              0x4e487b7100000000000000000000000000000000000000000000000000000000\n                /* \"#utility.yul\":10457:10458   */\n              0x00\n                /* \"#utility.yul\":10450:10538   */\n              mstore\n                /* \"#utility.yul\":10557:10561   */\n              0x12\n                /* \"#utility.yul\":10554:10555   */\n              0x04\n                /* \"#utility.yul\":10547:10562   */\n              mstore\n                /* \"#utility.yul\":10581:10585   */\n              0x24\n                /* \"#utility.yul\":10578:10579   */\n              0x00\n                /* \"#utility.yul\":10571:10586   */\n              revert\n                /* \"#utility.yul\":10598:10783   */\n            tag_130:\n                /* \"#utility.yul\":10638:10639   */\n              0x00\n                /* \"#utility.yul\":10655:10675   */\n              tag_291\n                /* \"#utility.yul\":10673:10674   */\n              dup3\n                /* \"#utility.yul\":10655:10675   */\n              tag_144\n              jump\t// in\n            tag_291:\n                /* \"#utility.yul\":10650:10675   */\n              swap2\n              pop\n                /* \"#utility.yul\":10689:10709   */\n              tag_292\n                /* \"#utility.yul\":10707:10708   */\n              dup4\n                /* \"#utility.yul\":10689:10709   */\n              tag_144\n              jump\t// in\n            tag_292:\n                /* \"#utility.yul\":10684:10709   */\n              swap3\n              pop\n                /* \"#utility.yul\":10728:10729   */\n              dup3\n                /* \"#utility.yul\":10718:10753   */\n              tag_293\n              jumpi\n                /* \"#utility.yul\":10733:10751   */\n              tag_294\n              tag_173\n              jump\t// in\n            tag_294:\n                /* \"#utility.yul\":10718:10753   */\n            tag_293:\n                /* \"#utility.yul\":10775:10776   */\n              dup3\n                /* \"#utility.yul\":10772:10773   */\n              dup3\n                /* \"#utility.yul\":10768:10777   */\n              div\n                /* \"#utility.yul\":10763:10777   */\n              swap1\n              pop\n                /* \"#utility.yul\":10598:10783   */\n              swap3\n              swap2\n              pop\n              pop\n              jump\t// out\n\n            auxdata: 0xa2646970667358221220c8d9eb1d3626a49975880bbdb054fb33229950e9ebc37b0d8803ab6d5a5bd53464736f6c634300080c0033\n        }\n    }\n\n    auxdata: 0xa264697066735822122008d1e24e0451f17a327fe780c14cbb75d6ab3280e974f0813e58ecf024c9f87764736f6c634300080c0033\n}\n","bytecode":{"linkReferences":{},"object":"608060405234801561001057600080fd5b50336000806101000a81548173ffffffffffffffffffffffffffffffffffffffff021916908373ffffffffffffffffffffffffffffffffffffffff16021790555061173c806100606000396000f3fe608060405234801561001057600080fd5b506004361061004c5760003560e01c8063339d50a514610051578063481c6a75146100815780634acb9d4f1461009f578063a3303a75146100bd575b600080fd5b61006b600480360381019061006691906102b3565b6100d9565b6040516100789190610321565b60405180910390f35b610089610118565b6040516100969190610321565b60405180910390f35b6100a761013c565b6040516100b491906103fa565b60405180910390f35b6100d760048036038101906100d291906102b3565b6101ca565b005b600181815481106100e957600080fd5b906000526020600020016000915054906101000a900473ffffffffffffffffffffffffffffffffffffffff1681565b60008054906101000a900473ffffffffffffffffffffffffffffffffffffffff1681565b606060018054806020026020016040519081016040528092919081815260200182805480156101c057602002820191906000526020600020905b8160009054906101000a900473ffffffffffffffffffffffffffffffffffffffff1673ffffffffffffffffffffffffffffffffffffffff1681526020019060010190808311610176575b5050505050905090565b600081336040516101da9061026b565b6101e592919061042b565b604051809103906000f080158015610201573d6000803e3d6000fd5b5090506001819080600181540180825580915050600190039060005260206000200160009091909190916101000a81548173ffffffffffffffffffffffffffffffffffffffff021916908373ffffffffffffffffffffffffffffffffffffffff1602179055505050565b6112b28061045583390190565b600080fd5b6000819050919050565b6102908161027d565b811461029b57600080fd5b50565b6000813590506102ad81610287565b92915050565b6000602082840312156102c9576102c8610278565b5b60006102d78482850161029e565b91505092915050565b600073ffffffffffffffffffffffffffffffffffffffff82169050919050565b600061030b826102e0565b9050919050565b61031b81610300565b82525050565b60006020820190506103366000830184610312565b92915050565b600081519050919050565b600082825260208201905092915050565b6000819050602082019050919050565b61037181610300565b82525050565b60006103838383610368565b60208301905092915050565b6000602082019050919050565b60006103a78261033c565b6103b18185610347565b93506103bc83610358565b8060005b838110156103ed5781516103d48882610377565b97506103df8361038f565b9250506001810190506103c0565b5085935050505092915050565b60006020820190508181036000830152610414818461039c565b905092915050565b6104258161027d565b82525050565b6000604082019050610440600083018561041c565b61044d6020830184610312565b939250505056fe6080604052604051620012b2380380620012b283398181016040528101906200002991906200011e565b80600360006101000a81548173ffffffffffffffffffffffffffffffffffffffff021916908373ffffffffffffffffffffffffffffffffffffffff16021790555081600481905550505062000165565b600080fd5b6000819050919050565b62000093816200007e565b81146200009f57600080fd5b50565b600081519050620000b38162000088565b92915050565b600073ffffffffffffffffffffffffffffffffffffffff82169050919050565b6000620000e682620000b9565b9050919050565b620000f881620000d9565b81146200010457600080fd5b50565b6000815190506200011881620000ed565b92915050565b6000806040838503121562000138576200013762000079565b5b60006200014885828601620000a2565b92505060206200015b8582860162000107565b9150509250929050565b61113d80620001756000396000f3fe6080604052600436106100e85760003560e01c80638a9cfd551161008a578063d7bb99ba11610059578063d7bb99ba146102de578063d7d1bbdb146102e8578063e1c24d5114610311578063fd35e8b61461033c576100e8565b80638a9cfd5514610241578063937e09b11461025d578063b69ef8a814610288578063c29d566d146102b3576100e8565b80634051ddac116100c65780634051ddac1461017e578063481c6a75146101a957806381d12c58146101d457806382fde09314610216576100e8565b806303441006146100ed5780630a144391146101165780633410452a14610153575b600080fd5b3480156100f957600080fd5b50610114600480360381019061010f9190610b3e565b610379565b005b34801561012257600080fd5b5061013d60048036038101906101389190610bc9565b6104c6565b60405161014a9190610c11565b60405180910390f35b34801561015f57600080fd5b506101686104e6565b6040516101759190610c3b565b60405180910390f35b34801561018a57600080fd5b506101936104f0565b6040516101a09190610cba565b60405180910390f35b3480156101b557600080fd5b506101be610531565b6040516101cb9190610ce4565b60405180910390f35b3480156101e057600080fd5b506101fb60048036038101906101f69190610b3e565b610557565b60405161020d96959493929190610d98565b60405180910390f35b34801561022257600080fd5b5061022b610648565b6040516102389190610c3b565b60405180910390f35b61025b60048036038101906102569190610f35565b61064e565b005b34801561026957600080fd5b506102726107fd565b60405161027f9190610c3b565b60405180910390f35b34801561029457600080fd5b5061029d610803565b6040516102aa9190610c3b565b60405180910390f35b3480156102bf57600080fd5b506102c861080b565b6040516102d59190610c11565b60405180910390f35b6102e6610817565b005b3480156102f457600080fd5b5061030f600480360381019061030a9190610b3e565b61089e565b005b34801561031d57600080fd5b506103266109dc565b6040516103339190610c3b565b60405180910390f35b34801561034857600080fd5b50610363600480360381019061035e9190610b3e565b6109e2565b6040516103709190610c11565b60405180910390f35b600360009054906101000a900473ffffffffffffffffffffffffffffffffffffffff1673ffffffffffffffffffffffffffffffffffffffff163373ffffffffffffffffffffffffffffffffffffffff16146103d357600080fd5b60006002600083815260200190815260200160002090508060020160149054906101000a900460ff161561040657600080fd5b61040f826109e2565b61041857600080fd5b60018160020160146101000a81548160ff0219169083151502179055506001600081548092919061044890610fd3565b919050555060008160020160009054906101000a900473ffffffffffffffffffffffffffffffffffffffff1690508073ffffffffffffffffffffffffffffffffffffffff166108fc83600101549081150290604051600060405180830381858888f193505050501580156104c0573d6000803e3d6000fd5b50505050565b60066020528060005260406000206000915054906101000a900460ff1681565b6000600154905090565b6104f8610a29565b60006040518060800160405280600454815260200160075481526020016001548152602001610525610803565b81525090508091505090565b600360009054906101000a900473ffffffffffffffffffffffffffffffffffffffff1681565b600260205280600052604060002060009150905080600001805461057a9061102c565b80601f01602080910402602001604051908101604052809291908181526020018280546105a69061102c565b80156105f35780601f106105c8576101008083540402835291602001916105f3565b820191906000526020600020905b8154815290600101906020018083116105d657829003601f168201915b5050505050908060010154908060020160009054906101000a900473ffffffffffffffffffffffffffffffffffffffff16908060020160149054906101000a900460ff16908060030154908060040154905086565b60075481565b600360009054906101000a900473ffffffffffffffffffffffffffffffffffffffff1673ffffffffffffffffffffffffffffffffffffffff163373ffffffffffffffffffffffffffffffffffffffff16146106a857600080fd5b600060026000805481526020019081526020016000209050838160000190805190602001906106d8929190610a51565b50828160010181905550818160020160006101000a81548173ffffffffffffffffffffffffffffffffffffffff021916908373ffffffffffffffffffffffffffffffffffffffff16021790555060008160020160146101000a81548160ff021916908315150217905550600081600401819055506000816005016000600360009054906101000a900473ffffffffffffffffffffffffffffffffffffffff1673ffffffffffffffffffffffffffffffffffffffff1673ffffffffffffffffffffffffffffffffffffffff16815260200190815260200160002060006101000a81548160ff0219169083151502179055506000808154809291906107da9061105e565b9190505550600160008154809291906107f29061105e565b919050555050505050565b60045481565b600047905090565b60008060075411905090565b600454341161082557600080fd5b346005819055506001600660003373ffffffffffffffffffffffffffffffffffffffff1673ffffffffffffffffffffffffffffffffffffffff16815260200190815260200160002060006101000a81548160ff021916908315150217905550600760008154809291906108979061105e565b9190505550565b600660003373ffffffffffffffffffffffffffffffffffffffff1673ffffffffffffffffffffffffffffffffffffffff16815260200190815260200160002060009054906101000a900460ff166108f457600080fd5b60006002600083815260200190815260200160002090508060050160003373ffffffffffffffffffffffffffffffffffffffff1673ffffffffffffffffffffffffffffffffffffffff16815260200190815260200160002060009054906101000a900460ff161561096457600080fd5b8060040160008154809291906109799061105e565b919050555060018160050160003373ffffffffffffffffffffffffffffffffffffffff1673ffffffffffffffffffffffffffffffffffffffff16815260200190815260200160002060006101000a81548160ff0219169083151502179055505050565b60055481565b60006109ec61080b565b6109f557600080fd5b60006002600084815260200190815260200160002090506002600754610a1b91906110d6565b816004015411915050919050565b6040518060800160405280600081526020016000815260200160008152602001600081525090565b828054610a5d9061102c565b90600052602060002090601f016020900481019282610a7f5760008555610ac6565b82601f10610a9857805160ff1916838001178555610ac6565b82800160010185558215610ac6579182015b82811115610ac5578251825591602001919060010190610aaa565b5b509050610ad39190610ad7565b5090565b5b80821115610af0576000816000905550600101610ad8565b5090565b6000604051905090565b600080fd5b600080fd5b6000819050919050565b610b1b81610b08565b8114610b2657600080fd5b50565b600081359050610b3881610b12565b92915050565b600060208284031215610b5457610b53610afe565b5b6000610b6284828501610b29565b91505092915050565b600073ffffffffffffffffffffffffffffffffffffffff82169050919050565b6000610b9682610b6b565b9050919050565b610ba681610b8b565b8114610bb157600080fd5b50565b600081359050610bc381610b9d565b92915050565b600060208284031215610bdf57610bde610afe565b5b6000610bed84828501610bb4565b91505092915050565b60008115159050919050565b610c0b81610bf6565b82525050565b6000602082019050610c266000830184610c02565b92915050565b610c3581610b08565b82525050565b6000602082019050610c506000830184610c2c565b92915050565b610c5f81610b08565b82525050565b608082016000820151610c7b6000850182610c56565b506020820151610c8e6020850182610c56565b506040820151610ca16040850182610c56565b506060820151610cb46060850182610c56565b50505050565b6000608082019050610ccf6000830184610c65565b92915050565b610cde81610b8b565b82525050565b6000602082019050610cf96000830184610cd5565b92915050565b600081519050919050565b600082825260208201905092915050565b60005b83811015610d39578082015181840152602081019050610d1e565b83811115610d48576000848401525b50505050565b6000601f19601f8301169050919050565b6000610d6a82610cff565b610d748185610d0a565b9350610d84818560208601610d1b565b610d8d81610d4e565b840191505092915050565b600060c0820190508181036000830152610db28189610d5f565b9050610dc16020830188610c2c565b610dce6040830187610cd5565b610ddb6060830186610c02565b610de86080830185610c2c565b610df560a0830184610c2c565b979650505050505050565b600080fd5b600080fd5b7f4e487b7100000000000000000000000000000000000000000000000000000000600052604160045260246000fd5b610e4282610d4e565b810181811067ffffffffffffffff82111715610e6157610e60610e0a565b5b80604052505050565b6000610e74610af4565b9050610e808282610e39565b919050565b600067ffffffffffffffff821115610ea057610e9f610e0a565b5b610ea982610d4e565b9050602081019050919050565b82818337600083830152505050565b6000610ed8610ed384610e85565b610e6a565b905082815260208101848484011115610ef457610ef3610e05565b5b610eff848285610eb6565b509392505050565b600082601f830112610f1c57610f1b610e00565b5b8135610f2c848260208601610ec5565b91505092915050565b600080600060608486031215610f4e57610f4d610afe565b5b600084013567ffffffffffffffff811115610f6c57610f6b610b03565b5b610f7886828701610f07565b9350506020610f8986828701610b29565b9250506040610f9a86828701610bb4565b9150509250925092565b7f4e487b7100000000000000000000000000000000000000000000000000000000600052601160045260246000fd5b6000610fde82610b08565b91506000821415610ff257610ff1610fa4565b5b600182039050919050565b7f4e487b7100000000000000000000000000000000000000000000000000000000600052602260045260246000fd5b6000600282049050600182168061104457607f821691505b6020821081141561105857611057610ffd565b5b50919050565b600061106982610b08565b91507fffffffffffffffffffffffffffffffffffffffffffffffffffffffffffffffff82141561109c5761109b610fa4565b5b600182019050919050565b7f4e487b7100000000000000000000000000000000000000000000000000000000600052601260045260246000fd5b60006110e182610b08565b91506110ec83610b08565b9250826110fc576110fb6110a7565b5b82820490509291505056fea2646970667358221220c8d9eb1d3626a49975880bbdb054fb33229950e9ebc37b0d8803ab6d5a5bd53464736f6c634300080c0033a264697066735822122008d1e24e0451f17a327fe780c14cbb75d6ab3280e974f0813e58ecf024c9f87764736f6c634300080c0033","opcodes":"PUSH1 0x80 PUSH1 0x40 MSTORE CALLVALUE DUP1 ISZERO PUSH2 0x10 JUMPI PUSH1 0x0 DUP1 REVERT JUMPDEST POP CALLER PUSH1 0x0 DUP1 PUSH2 0x100 EXP DUP2 SLOAD DUP2 PUSH20 0xFFFFFFFFFFFFFFFFFFFFFFFFFFFFFFFFFFFFFFFF MUL NOT AND SWAP1 DUP4 PUSH20 0xFFFFFFFFFFFFFFFFFFFFFFFFFFFFFFFFFFFFFFFF AND MUL OR SWAP1 SSTORE POP PUSH2 0x173C DUP1 PUSH2 0x60 PUSH1 0x0 CODECOPY PUSH1 0x0 RETURN INVALID PUSH1 0x80 PUSH1 0x40 MSTORE CALLVALUE DUP1 ISZERO PUSH2 0x10 JUMPI PUSH1 0x0 DUP1 REVERT JUMPDEST POP PUSH1 0x4 CALLDATASIZE LT PUSH2 0x4C JUMPI PUSH1 0x0 CALLDATALOAD PUSH1 0xE0 SHR DUP1 PUSH4 0x339D50A5 EQ PUSH2 0x51 JUMPI DUP1 PUSH4 0x481C6A75 EQ PUSH2 0x81 JUMPI DUP1 PUSH4 0x4ACB9D4F EQ PUSH2 0x9F JUMPI DUP1 PUSH4 0xA3303A75 EQ PUSH2 0xBD JUMPI JUMPDEST PUSH1 0x0 DUP1 REVERT JUMPDEST PUSH2 0x6B PUSH1 0x4 DUP1 CALLDATASIZE SUB DUP2 ADD SWAP1 PUSH2 0x66 SWAP2 SWAP1 PUSH2 0x2B3 JUMP JUMPDEST PUSH2 0xD9 JUMP JUMPDEST PUSH1 0x40 MLOAD PUSH2 0x78 SWAP2 SWAP1 PUSH2 0x321 JUMP JUMPDEST PUSH1 0x40 MLOAD DUP1 SWAP2 SUB SWAP1 RETURN JUMPDEST PUSH2 0x89 PUSH2 0x118 JUMP JUMPDEST PUSH1 0x40 MLOAD PUSH2 0x96 SWAP2 SWAP1 PUSH2 0x321 JUMP JUMPDEST PUSH1 0x40 MLOAD DUP1 SWAP2 SUB SWAP1 RETURN JUMPDEST PUSH2 0xA7 PUSH2 0x13C JUMP JUMPDEST PUSH1 0x40 MLOAD PUSH2 0xB4 SWAP2 SWAP1 PUSH2 0x3FA JUMP JUMPDEST PUSH1 0x40 MLOAD DUP1 SWAP2 SUB SWAP1 RETURN JUMPDEST PUSH2 0xD7 PUSH1 0x4 DUP1 CALLDATASIZE SUB DUP2 ADD SWAP1 PUSH2 0xD2 SWAP2 SWAP1 PUSH2 0x2B3 JUMP JUMPDEST PUSH2 0x1CA JUMP JUMPDEST STOP JUMPDEST PUSH1 0x1 DUP2 DUP2 SLOAD DUP2 LT PUSH2 0xE9 JUMPI PUSH1 0x0 DUP1 REVERT JUMPDEST SWAP1 PUSH1 0x0 MSTORE PUSH1 0x20 PUSH1 0x0 KECCAK256 ADD PUSH1 0x0 SWAP2 POP SLOAD SWAP1 PUSH2 0x100 EXP SWAP1 DIV PUSH20 0xFFFFFFFFFFFFFFFFFFFFFFFFFFFFFFFFFFFFFFFF AND DUP2 JUMP JUMPDEST PUSH1 0x0 DUP1 SLOAD SWAP1 PUSH2 0x100 EXP SWAP1 DIV PUSH20 0xFFFFFFFFFFFFFFFFFFFFFFFFFFFFFFFFFFFFFFFF AND DUP2 JUMP JUMPDEST PUSH1 0x60 PUSH1 0x1 DUP1 SLOAD DUP1 PUSH1 0x20 MUL PUSH1 0x20 ADD PUSH1 0x40 MLOAD SWAP1 DUP2 ADD PUSH1 0x40 MSTORE DUP1 SWAP3 SWAP2 SWAP1 DUP2 DUP2 MSTORE PUSH1 0x20 ADD DUP3 DUP1 SLOAD DUP1 ISZERO PUSH2 0x1C0 JUMPI PUSH1 0x20 MUL DUP3 ADD SWAP2 SWAP1 PUSH1 0x0 MSTORE PUSH1 0x20 PUSH1 0x0 KECCAK256 SWAP1 JUMPDEST DUP2 PUSH1 0x0 SWAP1 SLOAD SWAP1 PUSH2 0x100 EXP SWAP1 DIV PUSH20 0xFFFFFFFFFFFFFFFFFFFFFFFFFFFFFFFFFFFFFFFF AND PUSH20 0xFFFFFFFFFFFFFFFFFFFFFFFFFFFFFFFFFFFFFFFF AND DUP2 MSTORE PUSH1 0x20 ADD SWAP1 PUSH1 0x1 ADD SWAP1 DUP1 DUP4 GT PUSH2 0x176 JUMPI JUMPDEST POP POP POP POP POP SWAP1 POP SWAP1 JUMP JUMPDEST PUSH1 0x0 DUP2 CALLER PUSH1 0x40 MLOAD PUSH2 0x1DA SWAP1 PUSH2 0x26B JUMP JUMPDEST PUSH2 0x1E5 SWAP3 SWAP2 SWAP1 PUSH2 0x42B JUMP JUMPDEST PUSH1 0x40 MLOAD DUP1 SWAP2 SUB SWAP1 PUSH1 0x0 CREATE DUP1 ISZERO DUP1 ISZERO PUSH2 0x201 JUMPI RETURNDATASIZE PUSH1 0x0 DUP1 RETURNDATACOPY RETURNDATASIZE PUSH1 0x0 REVERT JUMPDEST POP SWAP1 POP PUSH1 0x1 DUP2 SWAP1 DUP1 PUSH1 0x1 DUP2 SLOAD ADD DUP1 DUP3 SSTORE DUP1 SWAP2 POP POP PUSH1 0x1 SWAP1 SUB SWAP1 PUSH1 0x0 MSTORE PUSH1 0x20 PUSH1 0x0 KECCAK256 ADD PUSH1 0x0 SWAP1 SWAP2 SWAP1 SWAP2 SWAP1 SWAP2 PUSH2 0x100 EXP DUP2 SLOAD DUP2 PUSH20 0xFFFFFFFFFFFFFFFFFFFFFFFFFFFFFFFFFFFFFFFF MUL NOT AND SWAP1 DUP4 PUSH20 0xFFFFFFFFFFFFFFFFFFFFFFFFFFFFFFFFFFFFFFFF AND MUL OR SWAP1 SSTORE POP POP POP JUMP JUMPDEST PUSH2 0x12B2 DUP1 PUSH2 0x455 DUP4 CODECOPY ADD SWAP1 JUMP JUMPDEST PUSH1 0x0 DUP1 REVERT JUMPDEST PUSH1 0x0 DUP2 SWAP1 POP SWAP2 SWAP1 POP JUMP JUMPDEST PUSH2 0x290 DUP2 PUSH2 0x27D JUMP JUMPDEST DUP2 EQ PUSH2 0x29B JUMPI PUSH1 0x0 DUP1 REVERT JUMPDEST POP JUMP JUMPDEST PUSH1 0x0 DUP2 CALLDATALOAD SWAP1 POP PUSH2 0x2AD DUP2 PUSH2 0x287 JUMP JUMPDEST SWAP3 SWAP2 POP POP JUMP JUMPDEST PUSH1 0x0 PUSH1 0x20 DUP3 DUP5 SUB SLT ISZERO PUSH2 0x2C9 JUMPI PUSH2 0x2C8 PUSH2 0x278 JUMP JUMPDEST JUMPDEST PUSH1 0x0 PUSH2 0x2D7 DUP5 DUP3 DUP6 ADD PUSH2 0x29E JUMP JUMPDEST SWAP2 POP POP SWAP3 SWAP2 POP POP JUMP JUMPDEST PUSH1 0x0 PUSH20 0xFFFFFFFFFFFFFFFFFFFFFFFFFFFFFFFFFFFFFFFF DUP3 AND SWAP1 POP SWAP2 SWAP1 POP JUMP JUMPDEST PUSH1 0x0 PUSH2 0x30B DUP3 PUSH2 0x2E0 JUMP JUMPDEST SWAP1 POP SWAP2 SWAP1 POP JUMP JUMPDEST PUSH2 0x31B DUP2 PUSH2 0x300 JUMP JUMPDEST DUP3 MSTORE POP POP JUMP JUMPDEST PUSH1 0x0 PUSH1 0x20 DUP3 ADD SWAP1 POP PUSH2 0x336 PUSH1 0x0 DUP4 ADD DUP5 PUSH2 0x312 JUMP JUMPDEST SWAP3 SWAP2 POP POP JUMP JUMPDEST PUSH1 0x0 DUP2 MLOAD SWAP1 POP SWAP2 SWAP1 POP JUMP JUMPDEST PUSH1 0x0 DUP3 DUP3 MSTORE PUSH1 0x20 DUP3 ADD SWAP1 POP SWAP3 SWAP2 POP POP JUMP JUMPDEST PUSH1 0x0 DUP2 SWAP1 POP PUSH1 0x20 DUP3 ADD SWAP1 POP SWAP2 SWAP1 POP JUMP JUMPDEST PUSH2 0x371 DUP2 PUSH2 0x300 JUMP JUMPDEST DUP3 MSTORE POP POP JUMP JUMPDEST PUSH1 0x0 PUSH2 0x383 DUP4 DUP4 PUSH2 0x368 JUMP JUMPDEST PUSH1 0x20 DUP4 ADD SWAP1 POP SWAP3 SWAP2 POP POP JUMP JUMPDEST PUSH1 0x0 PUSH1 0x20 DUP3 ADD SWAP1 POP SWAP2 SWAP1 POP JUMP JUMPDEST PUSH1 0x0 PUSH2 0x3A7 DUP3 PUSH2 0x33C JUMP JUMPDEST PUSH2 0x3B1 DUP2 DUP6 PUSH2 0x347 JUMP JUMPDEST SWAP4 POP PUSH2 0x3BC DUP4 PUSH2 0x358 JUMP JUMPDEST DUP1 PUSH1 0x0 JUMPDEST DUP4 DUP2 LT ISZERO PUSH2 0x3ED JUMPI DUP2 MLOAD PUSH2 0x3D4 DUP9 DUP3 PUSH2 0x377 JUMP JUMPDEST SWAP8 POP PUSH2 0x3DF DUP4 PUSH2 0x38F JUMP JUMPDEST SWAP3 POP POP PUSH1 0x1 DUP2 ADD SWAP1 POP PUSH2 0x3C0 JUMP JUMPDEST POP DUP6 SWAP4 POP POP POP POP SWAP3 SWAP2 POP POP JUMP JUMPDEST PUSH1 0x0 PUSH1 0x20 DUP3 ADD SWAP1 POP DUP2 DUP2 SUB PUSH1 0x0 DUP4 ADD MSTORE PUSH2 0x414 DUP2 DUP5 PUSH2 0x39C JUMP JUMPDEST SWAP1 POP SWAP3 SWAP2 POP POP JUMP JUMPDEST PUSH2 0x425 DUP2 PUSH2 0x27D JUMP JUMPDEST DUP3 MSTORE POP POP JUMP JUMPDEST PUSH1 0x0 PUSH1 0x40 DUP3 ADD SWAP1 POP PUSH2 0x440 PUSH1 0x0 DUP4 ADD DUP6 PUSH2 0x41C JUMP JUMPDEST PUSH2 0x44D PUSH1 0x20 DUP4 ADD DUP5 PUSH2 0x312 JUMP JUMPDEST SWAP4 SWAP3 POP POP POP JUMP INVALID PUSH1 0x80 PUSH1 0x40 MSTORE PUSH1 0x40 MLOAD PUSH3 0x12B2 CODESIZE SUB DUP1 PUSH3 0x12B2 DUP4 CODECOPY DUP2 DUP2 ADD PUSH1 0x40 MSTORE DUP2 ADD SWAP1 PUSH3 0x29 SWAP2 SWAP1 PUSH3 0x11E JUMP JUMPDEST DUP1 PUSH1 0x3 PUSH1 0x0 PUSH2 0x100 EXP DUP2 SLOAD DUP2 PUSH20 0xFFFFFFFFFFFFFFFFFFFFFFFFFFFFFFFFFFFFFFFF MUL NOT AND SWAP1 DUP4 PUSH20 0xFFFFFFFFFFFFFFFFFFFFFFFFFFFFFFFFFFFFFFFF AND MUL OR SWAP1 SSTORE POP DUP2 PUSH1 0x4 DUP2 SWAP1 SSTORE POP POP POP PUSH3 0x165 JUMP JUMPDEST PUSH1 0x0 DUP1 REVERT JUMPDEST PUSH1 0x0 DUP2 SWAP1 POP SWAP2 SWAP1 POP JUMP JUMPDEST PUSH3 0x93 DUP2 PUSH3 0x7E JUMP JUMPDEST DUP2 EQ PUSH3 0x9F JUMPI PUSH1 0x0 DUP1 REVERT JUMPDEST POP JUMP JUMPDEST PUSH1 0x0 DUP2 MLOAD SWAP1 POP PUSH3 0xB3 DUP2 PUSH3 0x88 JUMP JUMPDEST SWAP3 SWAP2 POP POP JUMP JUMPDEST PUSH1 0x0 PUSH20 0xFFFFFFFFFFFFFFFFFFFFFFFFFFFFFFFFFFFFFFFF DUP3 AND SWAP1 POP SWAP2 SWAP1 POP JUMP JUMPDEST PUSH1 0x0 PUSH3 0xE6 DUP3 PUSH3 0xB9 JUMP JUMPDEST SWAP1 POP SWAP2 SWAP1 POP JUMP JUMPDEST PUSH3 0xF8 DUP2 PUSH3 0xD9 JUMP JUMPDEST DUP2 EQ PUSH3 0x104 JUMPI PUSH1 0x0 DUP1 REVERT JUMPDEST POP JUMP JUMPDEST PUSH1 0x0 DUP2 MLOAD SWAP1 POP PUSH3 0x118 DUP2 PUSH3 0xED JUMP JUMPDEST SWAP3 SWAP2 POP POP JUMP JUMPDEST PUSH1 0x0 DUP1 PUSH1 0x40 DUP4 DUP6 SUB SLT ISZERO PUSH3 0x138 JUMPI PUSH3 0x137 PUSH3 0x79 JUMP JUMPDEST JUMPDEST PUSH1 0x0 PUSH3 0x148 DUP6 DUP3 DUP7 ADD PUSH3 0xA2 JUMP JUMPDEST SWAP3 POP POP PUSH1 0x20 PUSH3 0x15B DUP6 DUP3 DUP7 ADD PUSH3 0x107 JUMP JUMPDEST SWAP2 POP POP SWAP3 POP SWAP3 SWAP1 POP JUMP JUMPDEST PUSH2 0x113D DUP1 PUSH3 0x175 PUSH1 0x0 CODECOPY PUSH1 0x0 RETURN INVALID PUSH1 0x80 PUSH1 0x40 MSTORE PUSH1 0x4 CALLDATASIZE LT PUSH2 0xE8 JUMPI PUSH1 0x0 CALLDATALOAD PUSH1 0xE0 SHR DUP1 PUSH4 0x8A9CFD55 GT PUSH2 0x8A JUMPI DUP1 PUSH4 0xD7BB99BA GT PUSH2 0x59 JUMPI DUP1 PUSH4 0xD7BB99BA EQ PUSH2 0x2DE JUMPI DUP1 PUSH4 0xD7D1BBDB EQ PUSH2 0x2E8 JUMPI DUP1 PUSH4 0xE1C24D51 EQ PUSH2 0x311 JUMPI DUP1 PUSH4 0xFD35E8B6 EQ PUSH2 0x33C JUMPI PUSH2 0xE8 JUMP JUMPDEST DUP1 PUSH4 0x8A9CFD55 EQ PUSH2 0x241 JUMPI DUP1 PUSH4 0x937E09B1 EQ PUSH2 0x25D JUMPI DUP1 PUSH4 0xB69EF8A8 EQ PUSH2 0x288 JUMPI DUP1 PUSH4 0xC29D566D EQ PUSH2 0x2B3 JUMPI PUSH2 0xE8 JUMP JUMPDEST DUP1 PUSH4 0x4051DDAC GT PUSH2 0xC6 JUMPI DUP1 PUSH4 0x4051DDAC EQ PUSH2 0x17E JUMPI DUP1 PUSH4 0x481C6A75 EQ PUSH2 0x1A9 JUMPI DUP1 PUSH4 0x81D12C58 EQ PUSH2 0x1D4 JUMPI DUP1 PUSH4 0x82FDE093 EQ PUSH2 0x216 JUMPI PUSH2 0xE8 JUMP JUMPDEST DUP1 PUSH4 0x3441006 EQ PUSH2 0xED JUMPI DUP1 PUSH4 0xA144391 EQ PUSH2 0x116 JUMPI DUP1 PUSH4 0x3410452A EQ PUSH2 0x153 JUMPI JUMPDEST PUSH1 0x0 DUP1 REVERT JUMPDEST CALLVALUE DUP1 ISZERO PUSH2 0xF9 JUMPI PUSH1 0x0 DUP1 REVERT JUMPDEST POP PUSH2 0x114 PUSH1 0x4 DUP1 CALLDATASIZE SUB DUP2 ADD SWAP1 PUSH2 0x10F SWAP2 SWAP1 PUSH2 0xB3E JUMP JUMPDEST PUSH2 0x379 JUMP JUMPDEST STOP JUMPDEST CALLVALUE DUP1 ISZERO PUSH2 0x122 JUMPI PUSH1 0x0 DUP1 REVERT JUMPDEST POP PUSH2 0x13D PUSH1 0x4 DUP1 CALLDATASIZE SUB DUP2 ADD SWAP1 PUSH2 0x138 SWAP2 SWAP1 PUSH2 0xBC9 JUMP JUMPDEST PUSH2 0x4C6 JUMP JUMPDEST PUSH1 0x40 MLOAD PUSH2 0x14A SWAP2 SWAP1 PUSH2 0xC11 JUMP JUMPDEST PUSH1 0x40 MLOAD DUP1 SWAP2 SUB SWAP1 RETURN JUMPDEST CALLVALUE DUP1 ISZERO PUSH2 0x15F JUMPI PUSH1 0x0 DUP1 REVERT JUMPDEST POP PUSH2 0x168 PUSH2 0x4E6 JUMP JUMPDEST PUSH1 0x40 MLOAD PUSH2 0x175 SWAP2 SWAP1 PUSH2 0xC3B JUMP JUMPDEST PUSH1 0x40 MLOAD DUP1 SWAP2 SUB SWAP1 RETURN JUMPDEST CALLVALUE DUP1 ISZERO PUSH2 0x18A JUMPI PUSH1 0x0 DUP1 REVERT JUMPDEST POP PUSH2 0x193 PUSH2 0x4F0 JUMP JUMPDEST PUSH1 0x40 MLOAD PUSH2 0x1A0 SWAP2 SWAP1 PUSH2 0xCBA JUMP JUMPDEST PUSH1 0x40 MLOAD DUP1 SWAP2 SUB SWAP1 RETURN JUMPDEST CALLVALUE DUP1 ISZERO PUSH2 0x1B5 JUMPI PUSH1 0x0 DUP1 REVERT JUMPDEST POP PUSH2 0x1BE PUSH2 0x531 JUMP JUMPDEST PUSH1 0x40 MLOAD PUSH2 0x1CB SWAP2 SWAP1 PUSH2 0xCE4 JUMP JUMPDEST PUSH1 0x40 MLOAD DUP1 SWAP2 SUB SWAP1 RETURN JUMPDEST CALLVALUE DUP1 ISZERO PUSH2 0x1E0 JUMPI PUSH1 0x0 DUP1 REVERT JUMPDEST POP PUSH2 0x1FB PUSH1 0x4 DUP1 CALLDATASIZE SUB DUP2 ADD SWAP1 PUSH2 0x1F6 SWAP2 SWAP1 PUSH2 0xB3E JUMP JUMPDEST PUSH2 0x557 JUMP JUMPDEST PUSH1 0x40 MLOAD PUSH2 0x20D SWAP7 SWAP6 SWAP5 SWAP4 SWAP3 SWAP2 SWAP1 PUSH2 0xD98 JUMP JUMPDEST PUSH1 0x40 MLOAD DUP1 SWAP2 SUB SWAP1 RETURN JUMPDEST CALLVALUE DUP1 ISZERO PUSH2 0x222 JUMPI PUSH1 0x0 DUP1 REVERT JUMPDEST POP PUSH2 0x22B PUSH2 0x648 JUMP JUMPDEST PUSH1 0x40 MLOAD PUSH2 0x238 SWAP2 SWAP1 PUSH2 0xC3B JUMP JUMPDEST PUSH1 0x40 MLOAD DUP1 SWAP2 SUB SWAP1 RETURN JUMPDEST PUSH2 0x25B PUSH1 0x4 DUP1 CALLDATASIZE SUB DUP2 ADD SWAP1 PUSH2 0x256 SWAP2 SWAP1 PUSH2 0xF35 JUMP JUMPDEST PUSH2 0x64E JUMP JUMPDEST STOP JUMPDEST CALLVALUE DUP1 ISZERO PUSH2 0x269 JUMPI PUSH1 0x0 DUP1 REVERT JUMPDEST POP PUSH2 0x272 PUSH2 0x7FD JUMP JUMPDEST PUSH1 0x40 MLOAD PUSH2 0x27F SWAP2 SWAP1 PUSH2 0xC3B JUMP JUMPDEST PUSH1 0x40 MLOAD DUP1 SWAP2 SUB SWAP1 RETURN JUMPDEST CALLVALUE DUP1 ISZERO PUSH2 0x294 JUMPI PUSH1 0x0 DUP1 REVERT JUMPDEST POP PUSH2 0x29D PUSH2 0x803 JUMP JUMPDEST PUSH1 0x40 MLOAD PUSH2 0x2AA SWAP2 SWAP1 PUSH2 0xC3B JUMP JUMPDEST PUSH1 0x40 MLOAD DUP1 SWAP2 SUB SWAP1 RETURN JUMPDEST CALLVALUE DUP1 ISZERO PUSH2 0x2BF JUMPI PUSH1 0x0 DUP1 REVERT JUMPDEST POP PUSH2 0x2C8 PUSH2 0x80B JUMP JUMPDEST PUSH1 0x40 MLOAD PUSH2 0x2D5 SWAP2 SWAP1 PUSH2 0xC11 JUMP JUMPDEST PUSH1 0x40 MLOAD DUP1 SWAP2 SUB SWAP1 RETURN JUMPDEST PUSH2 0x2E6 PUSH2 0x817 JUMP JUMPDEST STOP JUMPDEST CALLVALUE DUP1 ISZERO PUSH2 0x2F4 JUMPI PUSH1 0x0 DUP1 REVERT JUMPDEST POP PUSH2 0x30F PUSH1 0x4 DUP1 CALLDATASIZE SUB DUP2 ADD SWAP1 PUSH2 0x30A SWAP2 SWAP1 PUSH2 0xB3E JUMP JUMPDEST PUSH2 0x89E JUMP JUMPDEST STOP JUMPDEST CALLVALUE DUP1 ISZERO PUSH2 0x31D JUMPI PUSH1 0x0 DUP1 REVERT JUMPDEST POP PUSH2 0x326 PUSH2 0x9DC JUMP JUMPDEST PUSH1 0x40 MLOAD PUSH2 0x333 SWAP2 SWAP1 PUSH2 0xC3B JUMP JUMPDEST PUSH1 0x40 MLOAD DUP1 SWAP2 SUB SWAP1 RETURN JUMPDEST CALLVALUE DUP1 ISZERO PUSH2 0x348 JUMPI PUSH1 0x0 DUP1 REVERT JUMPDEST POP PUSH2 0x363 PUSH1 0x4 DUP1 CALLDATASIZE SUB DUP2 ADD SWAP1 PUSH2 0x35E SWAP2 SWAP1 PUSH2 0xB3E JUMP JUMPDEST PUSH2 0x9E2 JUMP JUMPDEST PUSH1 0x40 MLOAD PUSH2 0x370 SWAP2 SWAP1 PUSH2 0xC11 JUMP JUMPDEST PUSH1 0x40 MLOAD DUP1 SWAP2 SUB SWAP1 RETURN JUMPDEST PUSH1 0x3 PUSH1 0x0 SWAP1 SLOAD SWAP1 PUSH2 0x100 EXP SWAP1 DIV PUSH20 0xFFFFFFFFFFFFFFFFFFFFFFFFFFFFFFFFFFFFFFFF AND PUSH20 0xFFFFFFFFFFFFFFFFFFFFFFFFFFFFFFFFFFFFFFFF AND CALLER PUSH20 0xFFFFFFFFFFFFFFFFFFFFFFFFFFFFFFFFFFFFFFFF AND EQ PUSH2 0x3D3 JUMPI PUSH1 0x0 DUP1 REVERT JUMPDEST PUSH1 0x0 PUSH1 0x2 PUSH1 0x0 DUP4 DUP2 MSTORE PUSH1 0x20 ADD SWAP1 DUP2 MSTORE PUSH1 0x20 ADD PUSH1 0x0 KECCAK256 SWAP1 POP DUP1 PUSH1 0x2 ADD PUSH1 0x14 SWAP1 SLOAD SWAP1 PUSH2 0x100 EXP SWAP1 DIV PUSH1 0xFF AND ISZERO PUSH2 0x406 JUMPI PUSH1 0x0 DUP1 REVERT JUMPDEST PUSH2 0x40F DUP3 PUSH2 0x9E2 JUMP JUMPDEST PUSH2 0x418 JUMPI PUSH1 0x0 DUP1 REVERT JUMPDEST PUSH1 0x1 DUP2 PUSH1 0x2 ADD PUSH1 0x14 PUSH2 0x100 EXP DUP2 SLOAD DUP2 PUSH1 0xFF MUL NOT AND SWAP1 DUP4 ISZERO ISZERO MUL OR SWAP1 SSTORE POP PUSH1 0x1 PUSH1 0x0 DUP2 SLOAD DUP1 SWAP3 SWAP2 SWAP1 PUSH2 0x448 SWAP1 PUSH2 0xFD3 JUMP JUMPDEST SWAP2 SWAP1 POP SSTORE POP PUSH1 0x0 DUP2 PUSH1 0x2 ADD PUSH1 0x0 SWAP1 SLOAD SWAP1 PUSH2 0x100 EXP SWAP1 DIV PUSH20 0xFFFFFFFFFFFFFFFFFFFFFFFFFFFFFFFFFFFFFFFF AND SWAP1 POP DUP1 PUSH20 0xFFFFFFFFFFFFFFFFFFFFFFFFFFFFFFFFFFFFFFFF AND PUSH2 0x8FC DUP4 PUSH1 0x1 ADD SLOAD SWAP1 DUP2 ISZERO MUL SWAP1 PUSH1 0x40 MLOAD PUSH1 0x0 PUSH1 0x40 MLOAD DUP1 DUP4 SUB DUP2 DUP6 DUP9 DUP9 CALL SWAP4 POP POP POP POP ISZERO DUP1 ISZERO PUSH2 0x4C0 JUMPI RETURNDATASIZE PUSH1 0x0 DUP1 RETURNDATACOPY RETURNDATASIZE PUSH1 0x0 REVERT JUMPDEST POP POP POP POP JUMP JUMPDEST PUSH1 0x6 PUSH1 0x20 MSTORE DUP1 PUSH1 0x0 MSTORE PUSH1 0x40 PUSH1 0x0 KECCAK256 PUSH1 0x0 SWAP2 POP SLOAD SWAP1 PUSH2 0x100 EXP SWAP1 DIV PUSH1 0xFF AND DUP2 JUMP JUMPDEST PUSH1 0x0 PUSH1 0x1 SLOAD SWAP1 POP SWAP1 JUMP JUMPDEST PUSH2 0x4F8 PUSH2 0xA29 JUMP JUMPDEST PUSH1 0x0 PUSH1 0x40 MLOAD DUP1 PUSH1 0x80 ADD PUSH1 0x40 MSTORE DUP1 PUSH1 0x4 SLOAD DUP2 MSTORE PUSH1 0x20 ADD PUSH1 0x7 SLOAD DUP2 MSTORE PUSH1 0x20 ADD PUSH1 0x1 SLOAD DUP2 MSTORE PUSH1 0x20 ADD PUSH2 0x525 PUSH2 0x803 JUMP JUMPDEST DUP2 MSTORE POP SWAP1 POP DUP1 SWAP2 POP POP SWAP1 JUMP JUMPDEST PUSH1 0x3 PUSH1 0x0 SWAP1 SLOAD SWAP1 PUSH2 0x100 EXP SWAP1 DIV PUSH20 0xFFFFFFFFFFFFFFFFFFFFFFFFFFFFFFFFFFFFFFFF AND DUP2 JUMP JUMPDEST PUSH1 0x2 PUSH1 0x20 MSTORE DUP1 PUSH1 0x0 MSTORE PUSH1 0x40 PUSH1 0x0 KECCAK256 PUSH1 0x0 SWAP2 POP SWAP1 POP DUP1 PUSH1 0x0 ADD DUP1 SLOAD PUSH2 0x57A SWAP1 PUSH2 0x102C JUMP JUMPDEST DUP1 PUSH1 0x1F ADD PUSH1 0x20 DUP1 SWAP2 DIV MUL PUSH1 0x20 ADD PUSH1 0x40 MLOAD SWAP1 DUP2 ADD PUSH1 0x40 MSTORE DUP1 SWAP3 SWAP2 SWAP1 DUP2 DUP2 MSTORE PUSH1 0x20 ADD DUP3 DUP1 SLOAD PUSH2 0x5A6 SWAP1 PUSH2 0x102C JUMP JUMPDEST DUP1 ISZERO PUSH2 0x5F3 JUMPI DUP1 PUSH1 0x1F LT PUSH2 0x5C8 JUMPI PUSH2 0x100 DUP1 DUP4 SLOAD DIV MUL DUP4 MSTORE SWAP2 PUSH1 0x20 ADD SWAP2 PUSH2 0x5F3 JUMP JUMPDEST DUP3 ADD SWAP2 SWAP1 PUSH1 0x0 MSTORE PUSH1 0x20 PUSH1 0x0 KECCAK256 SWAP1 JUMPDEST DUP2 SLOAD DUP2 MSTORE SWAP1 PUSH1 0x1 ADD SWAP1 PUSH1 0x20 ADD DUP1 DUP4 GT PUSH2 0x5D6 JUMPI DUP3 SWAP1 SUB PUSH1 0x1F AND DUP3 ADD SWAP2 JUMPDEST POP POP POP POP POP SWAP1 DUP1 PUSH1 0x1 ADD SLOAD SWAP1 DUP1 PUSH1 0x2 ADD PUSH1 0x0 SWAP1 SLOAD SWAP1 PUSH2 0x100 EXP SWAP1 DIV PUSH20 0xFFFFFFFFFFFFFFFFFFFFFFFFFFFFFFFFFFFFFFFF AND SWAP1 DUP1 PUSH1 0x2 ADD PUSH1 0x14 SWAP1 SLOAD SWAP1 PUSH2 0x100 EXP SWAP1 DIV PUSH1 0xFF AND SWAP1 DUP1 PUSH1 0x3 ADD SLOAD SWAP1 DUP1 PUSH1 0x4 ADD SLOAD SWAP1 POP DUP7 JUMP JUMPDEST PUSH1 0x7 SLOAD DUP2 JUMP JUMPDEST PUSH1 0x3 PUSH1 0x0 SWAP1 SLOAD SWAP1 PUSH2 0x100 EXP SWAP1 DIV PUSH20 0xFFFFFFFFFFFFFFFFFFFFFFFFFFFFFFFFFFFFFFFF AND PUSH20 0xFFFFFFFFFFFFFFFFFFFFFFFFFFFFFFFFFFFFFFFF AND CALLER PUSH20 0xFFFFFFFFFFFFFFFFFFFFFFFFFFFFFFFFFFFFFFFF AND EQ PUSH2 0x6A8 JUMPI PUSH1 0x0 DUP1 REVERT JUMPDEST PUSH1 0x0 PUSH1 0x2 PUSH1 0x0 DUP1 SLOAD DUP2 MSTORE PUSH1 0x20 ADD SWAP1 DUP2 MSTORE PUSH1 0x20 ADD PUSH1 0x0 KECCAK256 SWAP1 POP DUP4 DUP2 PUSH1 0x0 ADD SWAP1 DUP1 MLOAD SWAP1 PUSH1 0x20 ADD SWAP1 PUSH2 0x6D8 SWAP3 SWAP2 SWAP1 PUSH2 0xA51 JUMP JUMPDEST POP DUP3 DUP2 PUSH1 0x1 ADD DUP2 SWAP1 SSTORE POP DUP2 DUP2 PUSH1 0x2 ADD PUSH1 0x0 PUSH2 0x100 EXP DUP2 SLOAD DUP2 PUSH20 0xFFFFFFFFFFFFFFFFFFFFFFFFFFFFFFFFFFFFFFFF MUL NOT AND SWAP1 DUP4 PUSH20 0xFFFFFFFFFFFFFFFFFFFFFFFFFFFFFFFFFFFFFFFF AND MUL OR SWAP1 SSTORE POP PUSH1 0x0 DUP2 PUSH1 0x2 ADD PUSH1 0x14 PUSH2 0x100 EXP DUP2 SLOAD DUP2 PUSH1 0xFF MUL NOT AND SWAP1 DUP4 ISZERO ISZERO MUL OR SWAP1 SSTORE POP PUSH1 0x0 DUP2 PUSH1 0x4 ADD DUP2 SWAP1 SSTORE POP PUSH1 0x0 DUP2 PUSH1 0x5 ADD PUSH1 0x0 PUSH1 0x3 PUSH1 0x0 SWAP1 SLOAD SWAP1 PUSH2 0x100 EXP SWAP1 DIV PUSH20 0xFFFFFFFFFFFFFFFFFFFFFFFFFFFFFFFFFFFFFFFF AND PUSH20 0xFFFFFFFFFFFFFFFFFFFFFFFFFFFFFFFFFFFFFFFF AND PUSH20 0xFFFFFFFFFFFFFFFFFFFFFFFFFFFFFFFFFFFFFFFF AND DUP2 MSTORE PUSH1 0x20 ADD SWAP1 DUP2 MSTORE PUSH1 0x20 ADD PUSH1 0x0 KECCAK256 PUSH1 0x0 PUSH2 0x100 EXP DUP2 SLOAD DUP2 PUSH1 0xFF MUL NOT AND SWAP1 DUP4 ISZERO ISZERO MUL OR SWAP1 SSTORE POP PUSH1 0x0 DUP1 DUP2 SLOAD DUP1 SWAP3 SWAP2 SWAP1 PUSH2 0x7DA SWAP1 PUSH2 0x105E JUMP JUMPDEST SWAP2 SWAP1 POP SSTORE POP PUSH1 0x1 PUSH1 0x0 DUP2 SLOAD DUP1 SWAP3 SWAP2 SWAP1 PUSH2 0x7F2 SWAP1 PUSH2 0x105E JUMP JUMPDEST SWAP2 SWAP1 POP SSTORE POP POP POP POP POP JUMP JUMPDEST PUSH1 0x4 SLOAD DUP2 JUMP JUMPDEST PUSH1 0x0 SELFBALANCE SWAP1 POP SWAP1 JUMP JUMPDEST PUSH1 0x0 DUP1 PUSH1 0x7 SLOAD GT SWAP1 POP SWAP1 JUMP JUMPDEST PUSH1 0x4 SLOAD CALLVALUE GT PUSH2 0x825 JUMPI PUSH1 0x0 DUP1 REVERT JUMPDEST CALLVALUE PUSH1 0x5 DUP2 SWAP1 SSTORE POP PUSH1 0x1 PUSH1 0x6 PUSH1 0x0 CALLER PUSH20 0xFFFFFFFFFFFFFFFFFFFFFFFFFFFFFFFFFFFFFFFF AND PUSH20 0xFFFFFFFFFFFFFFFFFFFFFFFFFFFFFFFFFFFFFFFF AND DUP2 MSTORE PUSH1 0x20 ADD SWAP1 DUP2 MSTORE PUSH1 0x20 ADD PUSH1 0x0 KECCAK256 PUSH1 0x0 PUSH2 0x100 EXP DUP2 SLOAD DUP2 PUSH1 0xFF MUL NOT AND SWAP1 DUP4 ISZERO ISZERO MUL OR SWAP1 SSTORE POP PUSH1 0x7 PUSH1 0x0 DUP2 SLOAD DUP1 SWAP3 SWAP2 SWAP1 PUSH2 0x897 SWAP1 PUSH2 0x105E JUMP JUMPDEST SWAP2 SWAP1 POP SSTORE POP JUMP JUMPDEST PUSH1 0x6 PUSH1 0x0 CALLER PUSH20 0xFFFFFFFFFFFFFFFFFFFFFFFFFFFFFFFFFFFFFFFF AND PUSH20 0xFFFFFFFFFFFFFFFFFFFFFFFFFFFFFFFFFFFFFFFF AND DUP2 MSTORE PUSH1 0x20 ADD SWAP1 DUP2 MSTORE PUSH1 0x20 ADD PUSH1 0x0 KECCAK256 PUSH1 0x0 SWAP1 SLOAD SWAP1 PUSH2 0x100 EXP SWAP1 DIV PUSH1 0xFF AND PUSH2 0x8F4 JUMPI PUSH1 0x0 DUP1 REVERT JUMPDEST PUSH1 0x0 PUSH1 0x2 PUSH1 0x0 DUP4 DUP2 MSTORE PUSH1 0x20 ADD SWAP1 DUP2 MSTORE PUSH1 0x20 ADD PUSH1 0x0 KECCAK256 SWAP1 POP DUP1 PUSH1 0x5 ADD PUSH1 0x0 CALLER PUSH20 0xFFFFFFFFFFFFFFFFFFFFFFFFFFFFFFFFFFFFFFFF AND PUSH20 0xFFFFFFFFFFFFFFFFFFFFFFFFFFFFFFFFFFFFFFFF AND DUP2 MSTORE PUSH1 0x20 ADD SWAP1 DUP2 MSTORE PUSH1 0x20 ADD PUSH1 0x0 KECCAK256 PUSH1 0x0 SWAP1 SLOAD SWAP1 PUSH2 0x100 EXP SWAP1 DIV PUSH1 0xFF AND ISZERO PUSH2 0x964 JUMPI PUSH1 0x0 DUP1 REVERT JUMPDEST DUP1 PUSH1 0x4 ADD PUSH1 0x0 DUP2 SLOAD DUP1 SWAP3 SWAP2 SWAP1 PUSH2 0x979 SWAP1 PUSH2 0x105E JUMP JUMPDEST SWAP2 SWAP1 POP SSTORE POP PUSH1 0x1 DUP2 PUSH1 0x5 ADD PUSH1 0x0 CALLER PUSH20 0xFFFFFFFFFFFFFFFFFFFFFFFFFFFFFFFFFFFFFFFF AND PUSH20 0xFFFFFFFFFFFFFFFFFFFFFFFFFFFFFFFFFFFFFFFF AND DUP2 MSTORE PUSH1 0x20 ADD SWAP1 DUP2 MSTORE PUSH1 0x20 ADD PUSH1 0x0 KECCAK256 PUSH1 0x0 PUSH2 0x100 EXP DUP2 SLOAD DUP2 PUSH1 0xFF MUL NOT AND SWAP1 DUP4 ISZERO ISZERO MUL OR SWAP1 SSTORE POP POP POP JUMP JUMPDEST PUSH1 0x5 SLOAD DUP2 JUMP JUMPDEST PUSH1 0x0 PUSH2 0x9EC PUSH2 0x80B JUMP JUMPDEST PUSH2 0x9F5 JUMPI PUSH1 0x0 DUP1 REVERT JUMPDEST PUSH1 0x0 PUSH1 0x2 PUSH1 0x0 DUP5 DUP2 MSTORE PUSH1 0x20 ADD SWAP1 DUP2 MSTORE PUSH1 0x20 ADD PUSH1 0x0 KECCAK256 SWAP1 POP PUSH1 0x2 PUSH1 0x7 SLOAD PUSH2 0xA1B SWAP2 SWAP1 PUSH2 0x10D6 JUMP JUMPDEST DUP2 PUSH1 0x4 ADD SLOAD GT SWAP2 POP POP SWAP2 SWAP1 POP JUMP JUMPDEST PUSH1 0x40 MLOAD DUP1 PUSH1 0x80 ADD PUSH1 0x40 MSTORE DUP1 PUSH1 0x0 DUP2 MSTORE PUSH1 0x20 ADD PUSH1 0x0 DUP2 MSTORE PUSH1 0x20 ADD PUSH1 0x0 DUP2 MSTORE PUSH1 0x20 ADD PUSH1 0x0 DUP2 MSTORE POP SWAP1 JUMP JUMPDEST DUP3 DUP1 SLOAD PUSH2 0xA5D SWAP1 PUSH2 0x102C JUMP JUMPDEST SWAP1 PUSH1 0x0 MSTORE PUSH1 0x20 PUSH1 0x0 KECCAK256 SWAP1 PUSH1 0x1F ADD PUSH1 0x20 SWAP1 DIV DUP2 ADD SWAP3 DUP3 PUSH2 0xA7F JUMPI PUSH1 0x0 DUP6 SSTORE PUSH2 0xAC6 JUMP JUMPDEST DUP3 PUSH1 0x1F LT PUSH2 0xA98 JUMPI DUP1 MLOAD PUSH1 0xFF NOT AND DUP4 DUP1 ADD OR DUP6 SSTORE PUSH2 0xAC6 JUMP JUMPDEST DUP3 DUP1 ADD PUSH1 0x1 ADD DUP6 SSTORE DUP3 ISZERO PUSH2 0xAC6 JUMPI SWAP2 DUP3 ADD JUMPDEST DUP3 DUP2 GT ISZERO PUSH2 0xAC5 JUMPI DUP3 MLOAD DUP3 SSTORE SWAP2 PUSH1 0x20 ADD SWAP2 SWAP1 PUSH1 0x1 ADD SWAP1 PUSH2 0xAAA JUMP JUMPDEST JUMPDEST POP SWAP1 POP PUSH2 0xAD3 SWAP2 SWAP1 PUSH2 0xAD7 JUMP JUMPDEST POP SWAP1 JUMP JUMPDEST JUMPDEST DUP1 DUP3 GT ISZERO PUSH2 0xAF0 JUMPI PUSH1 0x0 DUP2 PUSH1 0x0 SWAP1 SSTORE POP PUSH1 0x1 ADD PUSH2 0xAD8 JUMP JUMPDEST POP SWAP1 JUMP JUMPDEST PUSH1 0x0 PUSH1 0x40 MLOAD SWAP1 POP SWAP1 JUMP JUMPDEST PUSH1 0x0 DUP1 REVERT JUMPDEST PUSH1 0x0 DUP1 REVERT JUMPDEST PUSH1 0x0 DUP2 SWAP1 POP SWAP2 SWAP1 POP JUMP JUMPDEST PUSH2 0xB1B DUP2 PUSH2 0xB08 JUMP JUMPDEST DUP2 EQ PUSH2 0xB26 JUMPI PUSH1 0x0 DUP1 REVERT JUMPDEST POP JUMP JUMPDEST PUSH1 0x0 DUP2 CALLDATALOAD SWAP1 POP PUSH2 0xB38 DUP2 PUSH2 0xB12 JUMP JUMPDEST SWAP3 SWAP2 POP POP JUMP JUMPDEST PUSH1 0x0 PUSH1 0x20 DUP3 DUP5 SUB SLT ISZERO PUSH2 0xB54 JUMPI PUSH2 0xB53 PUSH2 0xAFE JUMP JUMPDEST JUMPDEST PUSH1 0x0 PUSH2 0xB62 DUP5 DUP3 DUP6 ADD PUSH2 0xB29 JUMP JUMPDEST SWAP2 POP POP SWAP3 SWAP2 POP POP JUMP JUMPDEST PUSH1 0x0 PUSH20 0xFFFFFFFFFFFFFFFFFFFFFFFFFFFFFFFFFFFFFFFF DUP3 AND SWAP1 POP SWAP2 SWAP1 POP JUMP JUMPDEST PUSH1 0x0 PUSH2 0xB96 DUP3 PUSH2 0xB6B JUMP JUMPDEST SWAP1 POP SWAP2 SWAP1 POP JUMP JUMPDEST PUSH2 0xBA6 DUP2 PUSH2 0xB8B JUMP JUMPDEST DUP2 EQ PUSH2 0xBB1 JUMPI PUSH1 0x0 DUP1 REVERT JUMPDEST POP JUMP JUMPDEST PUSH1 0x0 DUP2 CALLDATALOAD SWAP1 POP PUSH2 0xBC3 DUP2 PUSH2 0xB9D JUMP JUMPDEST SWAP3 SWAP2 POP POP JUMP JUMPDEST PUSH1 0x0 PUSH1 0x20 DUP3 DUP5 SUB SLT ISZERO PUSH2 0xBDF JUMPI PUSH2 0xBDE PUSH2 0xAFE JUMP JUMPDEST JUMPDEST PUSH1 0x0 PUSH2 0xBED DUP5 DUP3 DUP6 ADD PUSH2 0xBB4 JUMP JUMPDEST SWAP2 POP POP SWAP3 SWAP2 POP POP JUMP JUMPDEST PUSH1 0x0 DUP2 ISZERO ISZERO SWAP1 POP SWAP2 SWAP1 POP JUMP JUMPDEST PUSH2 0xC0B DUP2 PUSH2 0xBF6 JUMP JUMPDEST DUP3 MSTORE POP POP JUMP JUMPDEST PUSH1 0x0 PUSH1 0x20 DUP3 ADD SWAP1 POP PUSH2 0xC26 PUSH1 0x0 DUP4 ADD DUP5 PUSH2 0xC02 JUMP JUMPDEST SWAP3 SWAP2 POP POP JUMP JUMPDEST PUSH2 0xC35 DUP2 PUSH2 0xB08 JUMP JUMPDEST DUP3 MSTORE POP POP JUMP JUMPDEST PUSH1 0x0 PUSH1 0x20 DUP3 ADD SWAP1 POP PUSH2 0xC50 PUSH1 0x0 DUP4 ADD DUP5 PUSH2 0xC2C JUMP JUMPDEST SWAP3 SWAP2 POP POP JUMP JUMPDEST PUSH2 0xC5F DUP2 PUSH2 0xB08 JUMP JUMPDEST DUP3 MSTORE POP POP JUMP JUMPDEST PUSH1 0x80 DUP3 ADD PUSH1 0x0 DUP3 ADD MLOAD PUSH2 0xC7B PUSH1 0x0 DUP6 ADD DUP3 PUSH2 0xC56 JUMP JUMPDEST POP PUSH1 0x20 DUP3 ADD MLOAD PUSH2 0xC8E PUSH1 0x20 DUP6 ADD DUP3 PUSH2 0xC56 JUMP JUMPDEST POP PUSH1 0x40 DUP3 ADD MLOAD PUSH2 0xCA1 PUSH1 0x40 DUP6 ADD DUP3 PUSH2 0xC56 JUMP JUMPDEST POP PUSH1 0x60 DUP3 ADD MLOAD PUSH2 0xCB4 PUSH1 0x60 DUP6 ADD DUP3 PUSH2 0xC56 JUMP JUMPDEST POP POP POP POP JUMP JUMPDEST PUSH1 0x0 PUSH1 0x80 DUP3 ADD SWAP1 POP PUSH2 0xCCF PUSH1 0x0 DUP4 ADD DUP5 PUSH2 0xC65 JUMP JUMPDEST SWAP3 SWAP2 POP POP JUMP JUMPDEST PUSH2 0xCDE DUP2 PUSH2 0xB8B JUMP JUMPDEST DUP3 MSTORE POP POP JUMP JUMPDEST PUSH1 0x0 PUSH1 0x20 DUP3 ADD SWAP1 POP PUSH2 0xCF9 PUSH1 0x0 DUP4 ADD DUP5 PUSH2 0xCD5 JUMP JUMPDEST SWAP3 SWAP2 POP POP JUMP JUMPDEST PUSH1 0x0 DUP2 MLOAD SWAP1 POP SWAP2 SWAP1 POP JUMP JUMPDEST PUSH1 0x0 DUP3 DUP3 MSTORE PUSH1 0x20 DUP3 ADD SWAP1 POP SWAP3 SWAP2 POP POP JUMP JUMPDEST PUSH1 0x0 JUMPDEST DUP4 DUP2 LT ISZERO PUSH2 0xD39 JUMPI DUP1 DUP3 ADD MLOAD DUP2 DUP5 ADD MSTORE PUSH1 0x20 DUP2 ADD SWAP1 POP PUSH2 0xD1E JUMP JUMPDEST DUP4 DUP2 GT ISZERO PUSH2 0xD48 JUMPI PUSH1 0x0 DUP5 DUP5 ADD MSTORE JUMPDEST POP POP POP POP JUMP JUMPDEST PUSH1 0x0 PUSH1 0x1F NOT PUSH1 0x1F DUP4 ADD AND SWAP1 POP SWAP2 SWAP1 POP JUMP JUMPDEST PUSH1 0x0 PUSH2 0xD6A DUP3 PUSH2 0xCFF JUMP JUMPDEST PUSH2 0xD74 DUP2 DUP6 PUSH2 0xD0A JUMP JUMPDEST SWAP4 POP PUSH2 0xD84 DUP2 DUP6 PUSH1 0x20 DUP7 ADD PUSH2 0xD1B JUMP JUMPDEST PUSH2 0xD8D DUP2 PUSH2 0xD4E JUMP JUMPDEST DUP5 ADD SWAP2 POP POP SWAP3 SWAP2 POP POP JUMP JUMPDEST PUSH1 0x0 PUSH1 0xC0 DUP3 ADD SWAP1 POP DUP2 DUP2 SUB PUSH1 0x0 DUP4 ADD MSTORE PUSH2 0xDB2 DUP2 DUP10 PUSH2 0xD5F JUMP JUMPDEST SWAP1 POP PUSH2 0xDC1 PUSH1 0x20 DUP4 ADD DUP9 PUSH2 0xC2C JUMP JUMPDEST PUSH2 0xDCE PUSH1 0x40 DUP4 ADD DUP8 PUSH2 0xCD5 JUMP JUMPDEST PUSH2 0xDDB PUSH1 0x60 DUP4 ADD DUP7 PUSH2 0xC02 JUMP JUMPDEST PUSH2 0xDE8 PUSH1 0x80 DUP4 ADD DUP6 PUSH2 0xC2C JUMP JUMPDEST PUSH2 0xDF5 PUSH1 0xA0 DUP4 ADD DUP5 PUSH2 0xC2C JUMP JUMPDEST SWAP8 SWAP7 POP POP POP POP POP POP POP JUMP JUMPDEST PUSH1 0x0 DUP1 REVERT JUMPDEST PUSH1 0x0 DUP1 REVERT JUMPDEST PUSH32 0x4E487B7100000000000000000000000000000000000000000000000000000000 PUSH1 0x0 MSTORE PUSH1 0x41 PUSH1 0x4 MSTORE PUSH1 0x24 PUSH1 0x0 REVERT JUMPDEST PUSH2 0xE42 DUP3 PUSH2 0xD4E JUMP JUMPDEST DUP2 ADD DUP2 DUP2 LT PUSH8 0xFFFFFFFFFFFFFFFF DUP3 GT OR ISZERO PUSH2 0xE61 JUMPI PUSH2 0xE60 PUSH2 0xE0A JUMP JUMPDEST JUMPDEST DUP1 PUSH1 0x40 MSTORE POP POP POP JUMP JUMPDEST PUSH1 0x0 PUSH2 0xE74 PUSH2 0xAF4 JUMP JUMPDEST SWAP1 POP PUSH2 0xE80 DUP3 DUP3 PUSH2 0xE39 JUMP JUMPDEST SWAP2 SWAP1 POP JUMP JUMPDEST PUSH1 0x0 PUSH8 0xFFFFFFFFFFFFFFFF DUP3 GT ISZERO PUSH2 0xEA0 JUMPI PUSH2 0xE9F PUSH2 0xE0A JUMP JUMPDEST JUMPDEST PUSH2 0xEA9 DUP3 PUSH2 0xD4E JUMP JUMPDEST SWAP1 POP PUSH1 0x20 DUP2 ADD SWAP1 POP SWAP2 SWAP1 POP JUMP JUMPDEST DUP3 DUP2 DUP4 CALLDATACOPY PUSH1 0x0 DUP4 DUP4 ADD MSTORE POP POP POP JUMP JUMPDEST PUSH1 0x0 PUSH2 0xED8 PUSH2 0xED3 DUP5 PUSH2 0xE85 JUMP JUMPDEST PUSH2 0xE6A JUMP JUMPDEST SWAP1 POP DUP3 DUP2 MSTORE PUSH1 0x20 DUP2 ADD DUP5 DUP5 DUP5 ADD GT ISZERO PUSH2 0xEF4 JUMPI PUSH2 0xEF3 PUSH2 0xE05 JUMP JUMPDEST JUMPDEST PUSH2 0xEFF DUP5 DUP3 DUP6 PUSH2 0xEB6 JUMP JUMPDEST POP SWAP4 SWAP3 POP POP POP JUMP JUMPDEST PUSH1 0x0 DUP3 PUSH1 0x1F DUP4 ADD SLT PUSH2 0xF1C JUMPI PUSH2 0xF1B PUSH2 0xE00 JUMP JUMPDEST JUMPDEST DUP2 CALLDATALOAD PUSH2 0xF2C DUP5 DUP3 PUSH1 0x20 DUP7 ADD PUSH2 0xEC5 JUMP JUMPDEST SWAP2 POP POP SWAP3 SWAP2 POP POP JUMP JUMPDEST PUSH1 0x0 DUP1 PUSH1 0x0 PUSH1 0x60 DUP5 DUP7 SUB SLT ISZERO PUSH2 0xF4E JUMPI PUSH2 0xF4D PUSH2 0xAFE JUMP JUMPDEST JUMPDEST PUSH1 0x0 DUP5 ADD CALLDATALOAD PUSH8 0xFFFFFFFFFFFFFFFF DUP2 GT ISZERO PUSH2 0xF6C JUMPI PUSH2 0xF6B PUSH2 0xB03 JUMP JUMPDEST JUMPDEST PUSH2 0xF78 DUP7 DUP3 DUP8 ADD PUSH2 0xF07 JUMP JUMPDEST SWAP4 POP POP PUSH1 0x20 PUSH2 0xF89 DUP7 DUP3 DUP8 ADD PUSH2 0xB29 JUMP JUMPDEST SWAP3 POP POP PUSH1 0x40 PUSH2 0xF9A DUP7 DUP3 DUP8 ADD PUSH2 0xBB4 JUMP JUMPDEST SWAP2 POP POP SWAP3 POP SWAP3 POP SWAP3 JUMP JUMPDEST PUSH32 0x4E487B7100000000000000000000000000000000000000000000000000000000 PUSH1 0x0 MSTORE PUSH1 0x11 PUSH1 0x4 MSTORE PUSH1 0x24 PUSH1 0x0 REVERT JUMPDEST PUSH1 0x0 PUSH2 0xFDE DUP3 PUSH2 0xB08 JUMP JUMPDEST SWAP2 POP PUSH1 0x0 DUP3 EQ ISZERO PUSH2 0xFF2 JUMPI PUSH2 0xFF1 PUSH2 0xFA4 JUMP JUMPDEST JUMPDEST PUSH1 0x1 DUP3 SUB SWAP1 POP SWAP2 SWAP1 POP JUMP JUMPDEST PUSH32 0x4E487B7100000000000000000000000000000000000000000000000000000000 PUSH1 0x0 MSTORE PUSH1 0x22 PUSH1 0x4 MSTORE PUSH1 0x24 PUSH1 0x0 REVERT JUMPDEST PUSH1 0x0 PUSH1 0x2 DUP3 DIV SWAP1 POP PUSH1 0x1 DUP3 AND DUP1 PUSH2 0x1044 JUMPI PUSH1 0x7F DUP3 AND SWAP2 POP JUMPDEST PUSH1 0x20 DUP3 LT DUP2 EQ ISZERO PUSH2 0x1058 JUMPI PUSH2 0x1057 PUSH2 0xFFD JUMP JUMPDEST JUMPDEST POP SWAP2 SWAP1 POP JUMP JUMPDEST PUSH1 0x0 PUSH2 0x1069 DUP3 PUSH2 0xB08 JUMP JUMPDEST SWAP2 POP PUSH32 0xFFFFFFFFFFFFFFFFFFFFFFFFFFFFFFFFFFFFFFFFFFFFFFFFFFFFFFFFFFFFFFFF DUP3 EQ ISZERO PUSH2 0x109C JUMPI PUSH2 0x109B PUSH2 0xFA4 JUMP JUMPDEST JUMPDEST PUSH1 0x1 DUP3 ADD SWAP1 POP SWAP2 SWAP1 POP JUMP JUMPDEST PUSH32 0x4E487B7100000000000000000000000000000000000000000000000000000000 PUSH1 0x0 MSTORE PUSH1 0x12 PUSH1 0x4 MSTORE PUSH1 0x24 PUSH1 0x0 REVERT JUMPDEST PUSH1 0x0 PUSH2 0x10E1 DUP3 PUSH2 0xB08 JUMP JUMPDEST SWAP2 POP PUSH2 0x10EC DUP4 PUSH2 0xB08 JUMP JUMPDEST SWAP3 POP DUP3 PUSH2 0x10FC JUMPI PUSH2 0x10FB PUSH2 0x10A7 JUMP JUMPDEST JUMPDEST DUP3 DUP3 DIV SWAP1 POP SWAP3 SWAP2 POP POP JUMP INVALID LOG2 PUSH5 0x6970667358 0x22 SLT KECCAK256 0xC8 0xD9 0xEB SAR CALLDATASIZE 0x26 LOG4 SWAP10 PUSH22 0x880BBDB054FB33229950E9EBC37B0D8803AB6D5A5BD5 CALLVALUE PUSH5 0x736F6C6343 STOP ADDMOD 0xC STOP CALLER LOG2 PUSH5 0x6970667358 0x22 SLT KECCAK256 ADDMOD 0xD1 0xE2 0x4E DIV MLOAD CALL PUSH27 0x327FE780C14CBB75D6AB3280E974F0813E58ECF024C9F87764736F PUSH13 0x634300080C0033000000000000 "},"gasEstimates":{"creation":{"codeDepositCost":"1189600","executionCost":"25500","totalCost":"1215100"},"external":{"createCampaign(uint256)":"infinite","deployedCampaigns(uint256)":"4934","getDeployedCampaigns()":"infinite","manager()":"2511"}},"methodIdentifiers":{"createCampaign(uint256)":"a3303a75","deployedCampaigns(uint256)":"339d50a5","getDeployedCampaigns()":"4acb9d4f","manager()":"481c6a75"}},"storageLayout":{"storage":[{"astId":3,"contract":"MyPunchStarter.sol:CampaignFactory","label":"manager","offset":0,"slot":"0","type":"t_address"},{"astId":6,"contract":"MyPunchStarter.sol:CampaignFactory","label":"deployedCampaigns","offset":0,"slot":"1","type":"t_array(t_address)dyn_storage"}],"types":{"t_address":{"encoding":"inplace","label":"address","numberOfBytes":"20"},"t_array(t_address)dyn_storage":{"base":"t_address","encoding":"dynamic_array","label":"address[]","numberOfBytes":"32"}}},"userdoc":{"kind":"user","methods":{},"version":1}}