{"abi":[{"inputs":[{"internalType":"uint256","name":"minimum","type":"uint256"},{"internalType":"address","name":"creator","type":"address"}],"stateMutability":"payable","type":"constructor"},{"inputs":[{"internalType":"uint256","name":"requestIndex","type":"uint256"}],"name":"approveRequest","outputs":[],"stateMutability":"nonpayable","type":"function"},{"inputs":[{"internalType":"address","name":"","type":"address"}],"name":"approvers","outputs":[{"internalType":"bool","name":"","type":"bool"}],"stateMutability":"view","type":"function"},{"inputs":[],"name":"approversCount","outputs":[{"internalType":"uint256","name":"","type":"uint256"}],"stateMutability":"view","type":"function"},{"inputs":[],"name":"balance","outputs":[{"internalType":"uint256","name":"","type":"uint256"}],"stateMutability":"view","type":"function"},{"inputs":[],"name":"contribute","outputs":[],"stateMutability":"payable","type":"function"},{"inputs":[{"internalType":"string","name":"description","type":"string"},{"internalType":"uint256","name":"value","type":"uint256"},{"internalType":"address","name":"recipient","type":"address"}],"name":"createRequest","outputs":[],"stateMutability":"payable","type":"function"},{"inputs":[{"internalType":"uint256","name":"requestIndex","type":"uint256"}],"name":"enoughApproversForRequest","outputs":[{"internalType":"bool","name":"","type":"bool"}],"stateMutability":"view","type":"function"},{"inputs":[],"name":"existsApproversForRequest","outputs":[{"internalType":"bool","name":"","type":"bool"}],"stateMutability":"view","type":"function"},{"inputs":[{"internalType":"uint256","name":"requestIndex","type":"uint256"}],"name":"finalizeRequest","outputs":[],"stateMutability":"nonpayable","type":"function"},{"inputs":[],"name":"lastContribution","outputs":[{"internalType":"uint256","name":"","type":"uint256"}],"stateMutability":"view","type":"function"},{"inputs":[],"name":"manager","outputs":[{"internalType":"address","name":"","type":"address"}],"stateMutability":"view","type":"function"},{"inputs":[],"name":"minimumContribution","outputs":[{"internalType":"uint256","name":"","type":"uint256"}],"stateMutability":"view","type":"function"},{"inputs":[{"internalType":"uint256","name":"","type":"uint256"}],"name":"requests","outputs":[{"internalType":"string","name":"description","type":"string"},{"internalType":"uint256","name":"value","type":"uint256"},{"internalType":"address","name":"recipient","type":"address"},{"internalType":"bool","name":"complete","type":"bool"},{"internalType":"uint256","name":"approvalCount","type":"uint256"},{"internalType":"uint256","name":"numApprovals","type":"uint256"}],"stateMutability":"view","type":"function"}],"devdoc":{"kind":"dev","methods":{},"version":1},"evm":{"assembly":"    /* \"MyPunchStarter.sol\":539:3036  contract MyPunchStarter {... */\n  mstore(0x40, 0x80)\n    /* \"MyPunchStarter.sol\":1127:1252  constructor ( uint minimum, address creator) payable{... */\n  mload(0x40)\n  sub(codesize, bytecodeSize)\n  dup1\n  bytecodeSize\n  dup4\n  codecopy\n  dup2\n  dup2\n  add\n  0x40\n  mstore\n  dup2\n  add\n  swap1\n  tag_1\n  swap2\n  swap1\n  tag_2\n  jump\t// in\ntag_1:\n    /* \"MyPunchStarter.sol\":1199:1206  creator */\n  dup1\n    /* \"MyPunchStarter.sol\":1189:1196  manager */\n  0x02\n  0x00\n    /* \"MyPunchStarter.sol\":1189:1206  manager = creator */\n  0x0100\n  exp\n  dup2\n  sload\n  dup2\n  0xffffffffffffffffffffffffffffffffffffffff\n  mul\n  not\n  and\n  swap1\n  dup4\n  0xffffffffffffffffffffffffffffffffffffffff\n  and\n  mul\n  or\n  swap1\n  sstore\n  pop\n    /* \"MyPunchStarter.sol\":1238:1245  minimum */\n  dup2\n    /* \"MyPunchStarter.sol\":1216:1235  minimumContribution */\n  0x03\n    /* \"MyPunchStarter.sol\":1216:1245  minimumContribution = minimum */\n  dup2\n  swap1\n  sstore\n  pop\n    /* \"MyPunchStarter.sol\":1127:1252  constructor ( uint minimum, address creator) payable{... */\n  pop\n  pop\n    /* \"MyPunchStarter.sol\":539:3036  contract MyPunchStarter {... */\n  jump(tag_5)\n    /* \"#utility.yul\":88:205   */\ntag_7:\n    /* \"#utility.yul\":197:198   */\n  0x00\n    /* \"#utility.yul\":194:195   */\n  dup1\n    /* \"#utility.yul\":187:199   */\n  revert\n    /* \"#utility.yul\":334:411   */\ntag_9:\n    /* \"#utility.yul\":371:378   */\n  0x00\n    /* \"#utility.yul\":400:405   */\n  dup2\n    /* \"#utility.yul\":389:405   */\n  swap1\n  pop\n    /* \"#utility.yul\":334:411   */\n  swap2\n  swap1\n  pop\n  jump\t// out\n    /* \"#utility.yul\":417:539   */\ntag_10:\n    /* \"#utility.yul\":490:514   */\n  tag_22\n    /* \"#utility.yul\":508:513   */\n  dup2\n    /* \"#utility.yul\":490:514   */\n  tag_9\n  jump\t// in\ntag_22:\n    /* \"#utility.yul\":483:488   */\n  dup2\n    /* \"#utility.yul\":480:515   */\n  eq\n    /* \"#utility.yul\":470:533   */\n  tag_23\n  jumpi\n    /* \"#utility.yul\":529:530   */\n  0x00\n    /* \"#utility.yul\":526:527   */\n  dup1\n    /* \"#utility.yul\":519:531   */\n  revert\n    /* \"#utility.yul\":470:533   */\ntag_23:\n    /* \"#utility.yul\":417:539   */\n  pop\n  jump\t// out\n    /* \"#utility.yul\":545:688   */\ntag_11:\n    /* \"#utility.yul\":602:607   */\n  0x00\n    /* \"#utility.yul\":633:639   */\n  dup2\n    /* \"#utility.yul\":627:640   */\n  mload\n    /* \"#utility.yul\":618:640   */\n  swap1\n  pop\n    /* \"#utility.yul\":649:682   */\n  tag_25\n    /* \"#utility.yul\":676:681   */\n  dup2\n    /* \"#utility.yul\":649:682   */\n  tag_10\n  jump\t// in\ntag_25:\n    /* \"#utility.yul\":545:688   */\n  swap3\n  swap2\n  pop\n  pop\n  jump\t// out\n    /* \"#utility.yul\":694:820   */\ntag_12:\n    /* \"#utility.yul\":731:738   */\n  0x00\n    /* \"#utility.yul\":771:813   */\n  0xffffffffffffffffffffffffffffffffffffffff\n    /* \"#utility.yul\":764:769   */\n  dup3\n    /* \"#utility.yul\":760:814   */\n  and\n    /* \"#utility.yul\":749:814   */\n  swap1\n  pop\n    /* \"#utility.yul\":694:820   */\n  swap2\n  swap1\n  pop\n  jump\t// out\n    /* \"#utility.yul\":826:922   */\ntag_13:\n    /* \"#utility.yul\":863:870   */\n  0x00\n    /* \"#utility.yul\":892:916   */\n  tag_28\n    /* \"#utility.yul\":910:915   */\n  dup3\n    /* \"#utility.yul\":892:916   */\n  tag_12\n  jump\t// in\ntag_28:\n    /* \"#utility.yul\":881:916   */\n  swap1\n  pop\n    /* \"#utility.yul\":826:922   */\n  swap2\n  swap1\n  pop\n  jump\t// out\n    /* \"#utility.yul\":928:1050   */\ntag_14:\n    /* \"#utility.yul\":1001:1025   */\n  tag_30\n    /* \"#utility.yul\":1019:1024   */\n  dup2\n    /* \"#utility.yul\":1001:1025   */\n  tag_13\n  jump\t// in\ntag_30:\n    /* \"#utility.yul\":994:999   */\n  dup2\n    /* \"#utility.yul\":991:1026   */\n  eq\n    /* \"#utility.yul\":981:1044   */\n  tag_31\n  jumpi\n    /* \"#utility.yul\":1040:1041   */\n  0x00\n    /* \"#utility.yul\":1037:1038   */\n  dup1\n    /* \"#utility.yul\":1030:1042   */\n  revert\n    /* \"#utility.yul\":981:1044   */\ntag_31:\n    /* \"#utility.yul\":928:1050   */\n  pop\n  jump\t// out\n    /* \"#utility.yul\":1056:1199   */\ntag_15:\n    /* \"#utility.yul\":1113:1118   */\n  0x00\n    /* \"#utility.yul\":1144:1150   */\n  dup2\n    /* \"#utility.yul\":1138:1151   */\n  mload\n    /* \"#utility.yul\":1129:1151   */\n  swap1\n  pop\n    /* \"#utility.yul\":1160:1193   */\n  tag_33\n    /* \"#utility.yul\":1187:1192   */\n  dup2\n    /* \"#utility.yul\":1160:1193   */\n  tag_14\n  jump\t// in\ntag_33:\n    /* \"#utility.yul\":1056:1199   */\n  swap3\n  swap2\n  pop\n  pop\n  jump\t// out\n    /* \"#utility.yul\":1205:1712   */\ntag_2:\n    /* \"#utility.yul\":1284:1290   */\n  0x00\n    /* \"#utility.yul\":1292:1298   */\n  dup1\n    /* \"#utility.yul\":1341:1343   */\n  0x40\n    /* \"#utility.yul\":1329:1338   */\n  dup4\n    /* \"#utility.yul\":1320:1327   */\n  dup6\n    /* \"#utility.yul\":1316:1339   */\n  sub\n    /* \"#utility.yul\":1312:1344   */\n  slt\n    /* \"#utility.yul\":1309:1428   */\n  iszero\n  tag_35\n  jumpi\n    /* \"#utility.yul\":1347:1426   */\n  tag_36\n  tag_7\n  jump\t// in\ntag_36:\n    /* \"#utility.yul\":1309:1428   */\ntag_35:\n    /* \"#utility.yul\":1467:1468   */\n  0x00\n    /* \"#utility.yul\":1492:1556   */\n  tag_37\n    /* \"#utility.yul\":1548:1555   */\n  dup6\n    /* \"#utility.yul\":1539:1545   */\n  dup3\n    /* \"#utility.yul\":1528:1537   */\n  dup7\n    /* \"#utility.yul\":1524:1546   */\n  add\n    /* \"#utility.yul\":1492:1556   */\n  tag_11\n  jump\t// in\ntag_37:\n    /* \"#utility.yul\":1482:1556   */\n  swap3\n  pop\n    /* \"#utility.yul\":1438:1566   */\n  pop\n    /* \"#utility.yul\":1605:1607   */\n  0x20\n    /* \"#utility.yul\":1631:1695   */\n  tag_38\n    /* \"#utility.yul\":1687:1694   */\n  dup6\n    /* \"#utility.yul\":1678:1684   */\n  dup3\n    /* \"#utility.yul\":1667:1676   */\n  dup7\n    /* \"#utility.yul\":1663:1685   */\n  add\n    /* \"#utility.yul\":1631:1695   */\n  tag_15\n  jump\t// in\ntag_38:\n    /* \"#utility.yul\":1621:1695   */\n  swap2\n  pop\n    /* \"#utility.yul\":1576:1705   */\n  pop\n    /* \"#utility.yul\":1205:1712   */\n  swap3\n  pop\n  swap3\n  swap1\n  pop\n  jump\t// out\n    /* \"MyPunchStarter.sol\":539:3036  contract MyPunchStarter {... */\ntag_5:\n  dataSize(sub_0)\n  dup1\n  dataOffset(sub_0)\n  0x00\n  codecopy\n  0x00\n  return\nstop\n\nsub_0: assembly {\n        /* \"MyPunchStarter.sol\":539:3036  contract MyPunchStarter {... */\n      mstore(0x40, 0x80)\n      jumpi(tag_1, lt(calldatasize, 0x04))\n      shr(0xe0, calldataload(0x00))\n      dup1\n      0x937e09b1\n      gt\n      tag_15\n      jumpi\n      dup1\n      0xd7bb99ba\n      gt\n      tag_16\n      jumpi\n      dup1\n      0xd7bb99ba\n      eq\n      tag_11\n      jumpi\n      dup1\n      0xd7d1bbdb\n      eq\n      tag_12\n      jumpi\n      dup1\n      0xe1c24d51\n      eq\n      tag_13\n      jumpi\n      dup1\n      0xfd35e8b6\n      eq\n      tag_14\n      jumpi\n      jump(tag_1)\n    tag_16:\n      dup1\n      0x937e09b1\n      eq\n      tag_8\n      jumpi\n      dup1\n      0xb69ef8a8\n      eq\n      tag_9\n      jumpi\n      dup1\n      0xc29d566d\n      eq\n      tag_10\n      jumpi\n      jump(tag_1)\n    tag_15:\n      dup1\n      0x03441006\n      eq\n      tag_2\n      jumpi\n      dup1\n      0x0a144391\n      eq\n      tag_3\n      jumpi\n      dup1\n      0x481c6a75\n      eq\n      tag_4\n      jumpi\n      dup1\n      0x81d12c58\n      eq\n      tag_5\n      jumpi\n      dup1\n      0x82fde093\n      eq\n      tag_6\n      jumpi\n      dup1\n      0x8a9cfd55\n      eq\n      tag_7\n      jumpi\n    tag_1:\n      0x00\n      dup1\n      revert\n        /* \"MyPunchStarter.sol\":2382:2745  function finalizeRequest(uint requestIndex) public restricted  {... */\n    tag_2:\n      callvalue\n      dup1\n      iszero\n      tag_17\n      jumpi\n      0x00\n      dup1\n      revert\n    tag_17:\n      pop\n      tag_18\n      0x04\n      dup1\n      calldatasize\n      sub\n      dup2\n      add\n      swap1\n      tag_19\n      swap2\n      swap1\n      tag_20\n      jump\t// in\n    tag_19:\n      tag_21\n      jump\t// in\n    tag_18:\n      stop\n        /* \"MyPunchStarter.sol\":961:1002  mapping(address => bool) public approvers */\n    tag_3:\n      callvalue\n      dup1\n      iszero\n      tag_22\n      jumpi\n      0x00\n      dup1\n      revert\n    tag_22:\n      pop\n      tag_23\n      0x04\n      dup1\n      calldatasize\n      sub\n      dup2\n      add\n      swap1\n      tag_24\n      swap2\n      swap1\n      tag_25\n      jump\t// in\n    tag_24:\n      tag_26\n      jump\t// in\n    tag_23:\n      mload(0x40)\n      tag_27\n      swap2\n      swap1\n      tag_28\n      jump\t// in\n    tag_27:\n      mload(0x40)\n      dup1\n      swap2\n      sub\n      swap1\n      return\n        /* \"MyPunchStarter.sol\":862:884  address public manager */\n    tag_4:\n      callvalue\n      dup1\n      iszero\n      tag_29\n      jumpi\n      0x00\n      dup1\n      revert\n    tag_29:\n      pop\n      tag_30\n      tag_31\n      jump\t// in\n    tag_30:\n      mload(0x40)\n      tag_32\n      swap2\n      swap1\n      tag_33\n      jump\t// in\n    tag_32:\n      mload(0x40)\n      dup1\n      swap2\n      sub\n      swap1\n      return\n        /* \"MyPunchStarter.sol\":816:856  mapping(uint => Request) public requests */\n    tag_5:\n      callvalue\n      dup1\n      iszero\n      tag_34\n      jumpi\n      0x00\n      dup1\n      revert\n    tag_34:\n      pop\n      tag_35\n      0x04\n      dup1\n      calldatasize\n      sub\n      dup2\n      add\n      swap1\n      tag_36\n      swap2\n      swap1\n      tag_20\n      jump\t// in\n    tag_36:\n      tag_37\n      jump\t// in\n    tag_35:\n      mload(0x40)\n      tag_38\n      swap7\n      swap6\n      swap5\n      swap4\n      swap3\n      swap2\n      swap1\n      tag_39\n      jump\t// in\n    tag_38:\n      mload(0x40)\n      dup1\n      swap2\n      sub\n      swap1\n      return\n        /* \"MyPunchStarter.sol\":1008:1034  uint public approversCount */\n    tag_6:\n      callvalue\n      dup1\n      iszero\n      tag_40\n      jumpi\n      0x00\n      dup1\n      revert\n    tag_40:\n      pop\n      tag_41\n      tag_42\n      jump\t// in\n    tag_41:\n      mload(0x40)\n      tag_43\n      swap2\n      swap1\n      tag_44\n      jump\t// in\n    tag_43:\n      mload(0x40)\n      dup1\n      swap2\n      sub\n      swap1\n      return\n        /* \"MyPunchStarter.sol\":1460:1900  function createRequest(string memory description, uint value, address recipient) public restricted payable {... */\n    tag_7:\n      tag_45\n      0x04\n      dup1\n      calldatasize\n      sub\n      dup2\n      add\n      swap1\n      tag_46\n      swap2\n      swap1\n      tag_47\n      jump\t// in\n    tag_46:\n      tag_48\n      jump\t// in\n    tag_45:\n      stop\n        /* \"MyPunchStarter.sol\":890:921  uint public minimumContribution */\n    tag_8:\n      callvalue\n      dup1\n      iszero\n      tag_49\n      jumpi\n      0x00\n      dup1\n      revert\n    tag_49:\n      pop\n      tag_50\n      tag_51\n      jump\t// in\n    tag_50:\n      mload(0x40)\n      tag_52\n      swap2\n      swap1\n      tag_44\n      jump\t// in\n    tag_52:\n      mload(0x40)\n      dup1\n      swap2\n      sub\n      swap1\n      return\n        /* \"MyPunchStarter.sol\":1906:1996  function balance() public view returns (uint){... */\n    tag_9:\n      callvalue\n      dup1\n      iszero\n      tag_53\n      jumpi\n      0x00\n      dup1\n      revert\n    tag_53:\n      pop\n      tag_54\n      tag_55\n      jump\t// in\n    tag_54:\n      mload(0x40)\n      tag_56\n      swap2\n      swap1\n      tag_44\n      jump\t// in\n    tag_56:\n      mload(0x40)\n      dup1\n      swap2\n      sub\n      swap1\n      return\n        /* \"MyPunchStarter.sol\":2003:2114  function existsApproversForRequest ()  public view returns (bool)  {... */\n    tag_10:\n      callvalue\n      dup1\n      iszero\n      tag_57\n      jumpi\n      0x00\n      dup1\n      revert\n    tag_57:\n      pop\n      tag_58\n      tag_59\n      jump\t// in\n    tag_58:\n      mload(0x40)\n      tag_60\n      swap2\n      swap1\n      tag_28\n      jump\t// in\n    tag_60:\n      mload(0x40)\n      dup1\n      swap2\n      sub\n      swap1\n      return\n        /* \"MyPunchStarter.sol\":1258:1454  function contribute() public payable {... */\n    tag_11:\n      tag_61\n      tag_62\n      jump\t// in\n    tag_61:\n      stop\n        /* \"MyPunchStarter.sol\":2751:3034  function approveRequest(uint requestIndex) public  {... */\n    tag_12:\n      callvalue\n      dup1\n      iszero\n      tag_63\n      jumpi\n      0x00\n      dup1\n      revert\n    tag_63:\n      pop\n      tag_64\n      0x04\n      dup1\n      calldatasize\n      sub\n      dup2\n      add\n      swap1\n      tag_65\n      swap2\n      swap1\n      tag_20\n      jump\t// in\n    tag_65:\n      tag_66\n      jump\t// in\n    tag_64:\n      stop\n        /* \"MyPunchStarter.sol\":927:955  uint public lastContribution */\n    tag_13:\n      callvalue\n      dup1\n      iszero\n      tag_67\n      jumpi\n      0x00\n      dup1\n      revert\n    tag_67:\n      pop\n      tag_68\n      tag_69\n      jump\t// in\n    tag_68:\n      mload(0x40)\n      tag_70\n      swap2\n      swap1\n      tag_44\n      jump\t// in\n    tag_70:\n      mload(0x40)\n      dup1\n      swap2\n      sub\n      swap1\n      return\n        /* \"MyPunchStarter.sol\":2120:2376  function enoughApproversForRequest (uint requestIndex)  public view returns (bool)  {... */\n    tag_14:\n      callvalue\n      dup1\n      iszero\n      tag_71\n      jumpi\n      0x00\n      dup1\n      revert\n    tag_71:\n      pop\n      tag_72\n      0x04\n      dup1\n      calldatasize\n      sub\n      dup2\n      add\n      swap1\n      tag_73\n      swap2\n      swap1\n      tag_20\n      jump\t// in\n    tag_73:\n      tag_74\n      jump\t// in\n    tag_72:\n      mload(0x40)\n      tag_75\n      swap2\n      swap1\n      tag_28\n      jump\t// in\n    tag_75:\n      mload(0x40)\n      dup1\n      swap2\n      sub\n      swap1\n      return\n        /* \"MyPunchStarter.sol\":2382:2745  function finalizeRequest(uint requestIndex) public restricted  {... */\n    tag_21:\n        /* \"MyPunchStarter.sol\":1095:1102  manager */\n      0x02\n      0x00\n      swap1\n      sload\n      swap1\n      0x0100\n      exp\n      swap1\n      div\n      0xffffffffffffffffffffffffffffffffffffffff\n      and\n        /* \"MyPunchStarter.sol\":1081:1102  msg.sender == manager */\n      0xffffffffffffffffffffffffffffffffffffffff\n      and\n        /* \"MyPunchStarter.sol\":1081:1091  msg.sender */\n      caller\n        /* \"MyPunchStarter.sol\":1081:1102  msg.sender == manager */\n      0xffffffffffffffffffffffffffffffffffffffff\n      and\n      eq\n        /* \"MyPunchStarter.sol\":1073:1103  require(msg.sender == manager) */\n      tag_77\n      jumpi\n      0x00\n      dup1\n      revert\n    tag_77:\n        /* \"MyPunchStarter.sol\":2455:2478  Request storage request */\n      0x00\n        /* \"MyPunchStarter.sol\":2481:2489  requests */\n      0x01\n        /* \"MyPunchStarter.sol\":2481:2503  requests[requestIndex] */\n      0x00\n        /* \"MyPunchStarter.sol\":2490:2502  requestIndex */\n      dup4\n        /* \"MyPunchStarter.sol\":2481:2503  requests[requestIndex] */\n      dup2\n      mstore\n      0x20\n      add\n      swap1\n      dup2\n      mstore\n      0x20\n      add\n      0x00\n      keccak256\n        /* \"MyPunchStarter.sol\":2455:2503  Request storage request = requests[requestIndex] */\n      swap1\n      pop\n        /* \"MyPunchStarter.sol\":2522:2529  request */\n      dup1\n        /* \"MyPunchStarter.sol\":2522:2538  request.complete */\n      0x02\n      add\n      0x14\n      swap1\n      sload\n      swap1\n      0x0100\n      exp\n      swap1\n      div\n      0xff\n      and\n        /* \"MyPunchStarter.sol\":2521:2538  !request.complete */\n      iszero\n        /* \"MyPunchStarter.sol\":2513:2539  require(!request.complete) */\n      tag_79\n      jumpi\n      0x00\n      dup1\n      revert\n    tag_79:\n        /* \"MyPunchStarter.sol\":2557:2596  enoughApproversForRequest(requestIndex) */\n      tag_80\n        /* \"MyPunchStarter.sol\":2583:2595  requestIndex */\n      dup3\n        /* \"MyPunchStarter.sol\":2557:2582  enoughApproversForRequest */\n      tag_74\n        /* \"MyPunchStarter.sol\":2557:2596  enoughApproversForRequest(requestIndex) */\n      jump\t// in\n    tag_80:\n        /* \"MyPunchStarter.sol\":2549:2597  require(enoughApproversForRequest(requestIndex)) */\n      tag_81\n      jumpi\n      0x00\n      dup1\n      revert\n    tag_81:\n        /* \"MyPunchStarter.sol\":2626:2630  true */\n      0x01\n        /* \"MyPunchStarter.sol\":2607:2614  request */\n      dup2\n        /* \"MyPunchStarter.sol\":2607:2623  request.complete */\n      0x02\n      add\n      0x14\n        /* \"MyPunchStarter.sol\":2607:2630  request.complete = true */\n      0x0100\n      exp\n      dup2\n      sload\n      dup2\n      0xff\n      mul\n      not\n      and\n      swap1\n      dup4\n      iszero\n      iszero\n      mul\n      or\n      swap1\n      sstore\n      pop\n        /* \"MyPunchStarter.sol\":2640:2665  address payable recipient */\n      0x00\n        /* \"MyPunchStarter.sol\":2676:2683  request */\n      dup2\n        /* \"MyPunchStarter.sol\":2676:2693  request.recipient */\n      0x02\n      add\n      0x00\n      swap1\n      sload\n      swap1\n      0x0100\n      exp\n      swap1\n      div\n      0xffffffffffffffffffffffffffffffffffffffff\n      and\n        /* \"MyPunchStarter.sol\":2640:2694  address payable recipient = payable(request.recipient) */\n      swap1\n      pop\n        /* \"MyPunchStarter.sol\":2704:2713  recipient */\n      dup1\n        /* \"MyPunchStarter.sol\":2704:2722  recipient.transfer */\n      0xffffffffffffffffffffffffffffffffffffffff\n      and\n        /* \"MyPunchStarter.sol\":2704:2737  recipient.transfer(request.value) */\n      0x08fc\n        /* \"MyPunchStarter.sol\":2723:2730  request */\n      dup4\n        /* \"MyPunchStarter.sol\":2723:2736  request.value */\n      0x01\n      add\n      sload\n        /* \"MyPunchStarter.sol\":2704:2737  recipient.transfer(request.value) */\n      swap1\n      dup2\n      iszero\n      mul\n      swap1\n      mload(0x40)\n      0x00\n      mload(0x40)\n      dup1\n      dup4\n      sub\n      dup2\n      dup6\n      dup9\n      dup9\n      call\n      swap4\n      pop\n      pop\n      pop\n      pop\n      iszero\n      dup1\n      iszero\n      tag_83\n      jumpi\n      returndatasize\n      0x00\n      dup1\n      returndatacopy\n      revert(0x00, returndatasize)\n    tag_83:\n      pop\n        /* \"MyPunchStarter.sol\":2445:2745  {... */\n      pop\n      pop\n        /* \"MyPunchStarter.sol\":2382:2745  function finalizeRequest(uint requestIndex) public restricted  {... */\n      pop\n      jump\t// out\n        /* \"MyPunchStarter.sol\":961:1002  mapping(address => bool) public approvers */\n    tag_26:\n      mstore(0x20, 0x05)\n      dup1\n      0x00\n      mstore\n      keccak256(0x00, 0x40)\n      0x00\n      swap2\n      pop\n      sload\n      swap1\n      0x0100\n      exp\n      swap1\n      div\n      0xff\n      and\n      dup2\n      jump\t// out\n        /* \"MyPunchStarter.sol\":862:884  address public manager */\n    tag_31:\n      0x02\n      0x00\n      swap1\n      sload\n      swap1\n      0x0100\n      exp\n      swap1\n      div\n      0xffffffffffffffffffffffffffffffffffffffff\n      and\n      dup2\n      jump\t// out\n        /* \"MyPunchStarter.sol\":816:856  mapping(uint => Request) public requests */\n    tag_37:\n      mstore(0x20, 0x01)\n      dup1\n      0x00\n      mstore\n      keccak256(0x00, 0x40)\n      0x00\n      swap2\n      pop\n      swap1\n      pop\n      dup1\n      0x00\n      add\n      dup1\n      sload\n      tag_84\n      swap1\n      tag_85\n      jump\t// in\n    tag_84:\n      dup1\n      0x1f\n      add\n      0x20\n      dup1\n      swap2\n      div\n      mul\n      0x20\n      add\n      mload(0x40)\n      swap1\n      dup2\n      add\n      0x40\n      mstore\n      dup1\n      swap3\n      swap2\n      swap1\n      dup2\n      dup2\n      mstore\n      0x20\n      add\n      dup3\n      dup1\n      sload\n      tag_86\n      swap1\n      tag_85\n      jump\t// in\n    tag_86:\n      dup1\n      iszero\n      tag_87\n      jumpi\n      dup1\n      0x1f\n      lt\n      tag_88\n      jumpi\n      0x0100\n      dup1\n      dup4\n      sload\n      div\n      mul\n      dup4\n      mstore\n      swap2\n      0x20\n      add\n      swap2\n      jump(tag_87)\n    tag_88:\n      dup3\n      add\n      swap2\n      swap1\n      0x00\n      mstore\n      keccak256(0x00, 0x20)\n      swap1\n    tag_89:\n      dup2\n      sload\n      dup2\n      mstore\n      swap1\n      0x01\n      add\n      swap1\n      0x20\n      add\n      dup1\n      dup4\n      gt\n      tag_89\n      jumpi\n      dup3\n      swap1\n      sub\n      0x1f\n      and\n      dup3\n      add\n      swap2\n    tag_87:\n      pop\n      pop\n      pop\n      pop\n      pop\n      swap1\n      dup1\n      0x01\n      add\n      sload\n      swap1\n      dup1\n      0x02\n      add\n      0x00\n      swap1\n      sload\n      swap1\n      0x0100\n      exp\n      swap1\n      div\n      0xffffffffffffffffffffffffffffffffffffffff\n      and\n      swap1\n      dup1\n      0x02\n      add\n      0x14\n      swap1\n      sload\n      swap1\n      0x0100\n      exp\n      swap1\n      div\n      0xff\n      and\n      swap1\n      dup1\n      0x03\n      add\n      sload\n      swap1\n      dup1\n      0x04\n      add\n      sload\n      swap1\n      pop\n      dup7\n      jump\t// out\n        /* \"MyPunchStarter.sol\":1008:1034  uint public approversCount */\n    tag_42:\n      sload(0x06)\n      dup2\n      jump\t// out\n        /* \"MyPunchStarter.sol\":1460:1900  function createRequest(string memory description, uint value, address recipient) public restricted payable {... */\n    tag_48:\n        /* \"MyPunchStarter.sol\":1095:1102  manager */\n      0x02\n      0x00\n      swap1\n      sload\n      swap1\n      0x0100\n      exp\n      swap1\n      div\n      0xffffffffffffffffffffffffffffffffffffffff\n      and\n        /* \"MyPunchStarter.sol\":1081:1102  msg.sender == manager */\n      0xffffffffffffffffffffffffffffffffffffffff\n      and\n        /* \"MyPunchStarter.sol\":1081:1091  msg.sender */\n      caller\n        /* \"MyPunchStarter.sol\":1081:1102  msg.sender == manager */\n      0xffffffffffffffffffffffffffffffffffffffff\n      and\n      eq\n        /* \"MyPunchStarter.sol\":1073:1103  require(msg.sender == manager) */\n      tag_91\n      jumpi\n      0x00\n      dup1\n      revert\n    tag_91:\n        /* \"MyPunchStarter.sol\":1577:1603  Request storage newRequest */\n      0x00\n        /* \"MyPunchStarter.sol\":1606:1614  requests */\n      0x01\n        /* \"MyPunchStarter.sol\":1606:1627  requests[numRequests] */\n      0x00\n        /* \"MyPunchStarter.sol\":1615:1626  numRequests */\n      dup1\n      sload\n        /* \"MyPunchStarter.sol\":1606:1627  requests[numRequests] */\n      dup2\n      mstore\n      0x20\n      add\n      swap1\n      dup2\n      mstore\n      0x20\n      add\n      0x00\n      keccak256\n        /* \"MyPunchStarter.sol\":1577:1627  Request storage newRequest = requests[numRequests] */\n      swap1\n      pop\n        /* \"MyPunchStarter.sol\":1662:1673  description */\n      dup4\n        /* \"MyPunchStarter.sol\":1637:1647  newRequest */\n      dup2\n        /* \"MyPunchStarter.sol\":1637:1659  newRequest.description */\n      0x00\n      add\n        /* \"MyPunchStarter.sol\":1637:1673  newRequest.description = description */\n      swap1\n      dup1\n      mload\n      swap1\n      0x20\n      add\n      swap1\n      tag_93\n      swap3\n      swap2\n      swap1\n      tag_94\n      jump\t// in\n    tag_93:\n      pop\n        /* \"MyPunchStarter.sol\":1702:1707  value */\n      dup3\n        /* \"MyPunchStarter.sol\":1683:1693  newRequest */\n      dup2\n        /* \"MyPunchStarter.sol\":1683:1699  newRequest.value */\n      0x01\n      add\n        /* \"MyPunchStarter.sol\":1683:1707  newRequest.value = value */\n      dup2\n      swap1\n      sstore\n      pop\n        /* \"MyPunchStarter.sol\":1740:1749  recipient */\n      dup2\n        /* \"MyPunchStarter.sol\":1717:1727  newRequest */\n      dup2\n        /* \"MyPunchStarter.sol\":1717:1737  newRequest.recipient */\n      0x02\n      add\n      0x00\n        /* \"MyPunchStarter.sol\":1717:1749  newRequest.recipient = recipient */\n      0x0100\n      exp\n      dup2\n      sload\n      dup2\n      0xffffffffffffffffffffffffffffffffffffffff\n      mul\n      not\n      and\n      swap1\n      dup4\n      0xffffffffffffffffffffffffffffffffffffffff\n      and\n      mul\n      or\n      swap1\n      sstore\n      pop\n        /* \"MyPunchStarter.sol\":1781:1786  false */\n      0x00\n        /* \"MyPunchStarter.sol\":1759:1769  newRequest */\n      dup2\n        /* \"MyPunchStarter.sol\":1759:1778  newRequest.complete */\n      0x02\n      add\n      0x14\n        /* \"MyPunchStarter.sol\":1759:1786  newRequest.complete = false */\n      0x0100\n      exp\n      dup2\n      sload\n      dup2\n      0xff\n      mul\n      not\n      and\n      swap1\n      dup4\n      iszero\n      iszero\n      mul\n      or\n      swap1\n      sstore\n      pop\n        /* \"MyPunchStarter.sol\":1822:1823  0 */\n      0x00\n        /* \"MyPunchStarter.sol\":1796:1806  newRequest */\n      dup2\n        /* \"MyPunchStarter.sol\":1796:1819  newRequest.numApprovals */\n      0x04\n      add\n        /* \"MyPunchStarter.sol\":1796:1823  newRequest.numApprovals = 0 */\n      dup2\n      swap1\n      sstore\n      pop\n        /* \"MyPunchStarter.sol\":1865:1870  false */\n      0x00\n        /* \"MyPunchStarter.sol\":1833:1843  newRequest */\n      dup2\n        /* \"MyPunchStarter.sol\":1833:1853  newRequest.approvals */\n      0x05\n      add\n        /* \"MyPunchStarter.sol\":1833:1862  newRequest.approvals[manager] */\n      0x00\n        /* \"MyPunchStarter.sol\":1854:1861  manager */\n      0x02\n      0x00\n      swap1\n      sload\n      swap1\n      0x0100\n      exp\n      swap1\n      div\n      0xffffffffffffffffffffffffffffffffffffffff\n      and\n        /* \"MyPunchStarter.sol\":1833:1862  newRequest.approvals[manager] */\n      0xffffffffffffffffffffffffffffffffffffffff\n      and\n      0xffffffffffffffffffffffffffffffffffffffff\n      and\n      dup2\n      mstore\n      0x20\n      add\n      swap1\n      dup2\n      mstore\n      0x20\n      add\n      0x00\n      keccak256\n      0x00\n        /* \"MyPunchStarter.sol\":1833:1870  newRequest.approvals[manager] = false */\n      0x0100\n      exp\n      dup2\n      sload\n      dup2\n      0xff\n      mul\n      not\n      and\n      swap1\n      dup4\n      iszero\n      iszero\n      mul\n      or\n      swap1\n      sstore\n      pop\n        /* \"MyPunchStarter.sol\":1880:1891  numRequests */\n      0x00\n      dup1\n        /* \"MyPunchStarter.sol\":1880:1893  numRequests++ */\n      dup2\n      sload\n      dup1\n      swap3\n      swap2\n      swap1\n      tag_95\n      swap1\n      tag_96\n      jump\t// in\n    tag_95:\n      swap2\n      swap1\n      pop\n      sstore\n      pop\n        /* \"MyPunchStarter.sol\":1567:1900  {... */\n      pop\n        /* \"MyPunchStarter.sol\":1460:1900  function createRequest(string memory description, uint value, address recipient) public restricted payable {... */\n      pop\n      pop\n      pop\n      jump\t// out\n        /* \"MyPunchStarter.sol\":890:921  uint public minimumContribution */\n    tag_51:\n      sload(0x03)\n      dup2\n      jump\t// out\n        /* \"MyPunchStarter.sol\":1906:1996  function balance() public view returns (uint){... */\n    tag_55:\n        /* \"MyPunchStarter.sol\":1946:1950  uint */\n      0x00\n        /* \"MyPunchStarter.sol\":1968:1989  address(this).balance */\n      selfbalance\n        /* \"MyPunchStarter.sol\":1961:1989  return address(this).balance */\n      swap1\n      pop\n        /* \"MyPunchStarter.sol\":1906:1996  function balance() public view returns (uint){... */\n      swap1\n      jump\t// out\n        /* \"MyPunchStarter.sol\":2003:2114  function existsApproversForRequest ()  public view returns (bool)  {... */\n    tag_59:\n        /* \"MyPunchStarter.sol\":2063:2067  bool */\n      0x00\n        /* \"MyPunchStarter.sol\":2105:2106  0 */\n      dup1\n        /* \"MyPunchStarter.sol\":2088:2102  approversCount */\n      sload(0x06)\n        /* \"MyPunchStarter.sol\":2088:2106  approversCount > 0 */\n      gt\n        /* \"MyPunchStarter.sol\":2080:2107  return (approversCount > 0) */\n      swap1\n      pop\n        /* \"MyPunchStarter.sol\":2003:2114  function existsApproversForRequest ()  public view returns (bool)  {... */\n      swap1\n      jump\t// out\n        /* \"MyPunchStarter.sol\":1258:1454  function contribute() public payable {... */\n    tag_62:\n        /* \"MyPunchStarter.sol\":1325:1344  minimumContribution */\n      sload(0x03)\n        /* \"MyPunchStarter.sol\":1313:1322  msg.value */\n      callvalue\n        /* \"MyPunchStarter.sol\":1313:1344  msg.value > minimumContribution */\n      gt\n        /* \"MyPunchStarter.sol\":1305:1345  require(msg.value > minimumContribution) */\n      tag_100\n      jumpi\n      0x00\n      dup1\n      revert\n    tag_100:\n        /* \"MyPunchStarter.sol\":1374:1383  msg.value */\n      callvalue\n        /* \"MyPunchStarter.sol\":1355:1371  lastContribution */\n      0x04\n        /* \"MyPunchStarter.sol\":1355:1383  lastContribution = msg.value */\n      dup2\n      swap1\n      sstore\n      pop\n        /* \"MyPunchStarter.sol\":1417:1421  true */\n      0x01\n        /* \"MyPunchStarter.sol\":1393:1402  approvers */\n      0x05\n        /* \"MyPunchStarter.sol\":1393:1414  approvers[msg.sender] */\n      0x00\n        /* \"MyPunchStarter.sol\":1403:1413  msg.sender */\n      caller\n        /* \"MyPunchStarter.sol\":1393:1414  approvers[msg.sender] */\n      0xffffffffffffffffffffffffffffffffffffffff\n      and\n      0xffffffffffffffffffffffffffffffffffffffff\n      and\n      dup2\n      mstore\n      0x20\n      add\n      swap1\n      dup2\n      mstore\n      0x20\n      add\n      0x00\n      keccak256\n      0x00\n        /* \"MyPunchStarter.sol\":1393:1421  approvers[msg.sender] = true */\n      0x0100\n      exp\n      dup2\n      sload\n      dup2\n      0xff\n      mul\n      not\n      and\n      swap1\n      dup4\n      iszero\n      iszero\n      mul\n      or\n      swap1\n      sstore\n      pop\n        /* \"MyPunchStarter.sol\":1431:1445  approversCount */\n      0x06\n      0x00\n        /* \"MyPunchStarter.sol\":1431:1447  approversCount++ */\n      dup2\n      sload\n      dup1\n      swap3\n      swap2\n      swap1\n      tag_101\n      swap1\n      tag_96\n      jump\t// in\n    tag_101:\n      swap2\n      swap1\n      pop\n      sstore\n      pop\n        /* \"MyPunchStarter.sol\":1258:1454  function contribute() public payable {... */\n      jump\t// out\n        /* \"MyPunchStarter.sol\":2751:3034  function approveRequest(uint requestIndex) public  {... */\n    tag_66:\n        /* \"MyPunchStarter.sol\":2820:2829  approvers */\n      0x05\n        /* \"MyPunchStarter.sol\":2820:2841  approvers[msg.sender] */\n      0x00\n        /* \"MyPunchStarter.sol\":2830:2840  msg.sender */\n      caller\n        /* \"MyPunchStarter.sol\":2820:2841  approvers[msg.sender] */\n      0xffffffffffffffffffffffffffffffffffffffff\n      and\n      0xffffffffffffffffffffffffffffffffffffffff\n      and\n      dup2\n      mstore\n      0x20\n      add\n      swap1\n      dup2\n      mstore\n      0x20\n      add\n      0x00\n      keccak256\n      0x00\n      swap1\n      sload\n      swap1\n      0x0100\n      exp\n      swap1\n      div\n      0xff\n      and\n        /* \"MyPunchStarter.sol\":2812:2842  require(approvers[msg.sender]) */\n      tag_103\n      jumpi\n      0x00\n      dup1\n      revert\n    tag_103:\n        /* \"MyPunchStarter.sol\":2852:2875  Request storage request */\n      0x00\n        /* \"MyPunchStarter.sol\":2878:2886  requests */\n      0x01\n        /* \"MyPunchStarter.sol\":2878:2900  requests[requestIndex] */\n      0x00\n        /* \"MyPunchStarter.sol\":2887:2899  requestIndex */\n      dup4\n        /* \"MyPunchStarter.sol\":2878:2900  requests[requestIndex] */\n      dup2\n      mstore\n      0x20\n      add\n      swap1\n      dup2\n      mstore\n      0x20\n      add\n      0x00\n      keccak256\n        /* \"MyPunchStarter.sol\":2852:2900  Request storage request = requests[requestIndex] */\n      swap1\n      pop\n        /* \"MyPunchStarter.sol\":2919:2926  request */\n      dup1\n        /* \"MyPunchStarter.sol\":2919:2936  request.approvals */\n      0x05\n      add\n        /* \"MyPunchStarter.sol\":2919:2948  request.approvals[msg.sender] */\n      0x00\n        /* \"MyPunchStarter.sol\":2937:2947  msg.sender */\n      caller\n        /* \"MyPunchStarter.sol\":2919:2948  request.approvals[msg.sender] */\n      0xffffffffffffffffffffffffffffffffffffffff\n      and\n      0xffffffffffffffffffffffffffffffffffffffff\n      and\n      dup2\n      mstore\n      0x20\n      add\n      swap1\n      dup2\n      mstore\n      0x20\n      add\n      0x00\n      keccak256\n      0x00\n      swap1\n      sload\n      swap1\n      0x0100\n      exp\n      swap1\n      div\n      0xff\n      and\n        /* \"MyPunchStarter.sol\":2918:2948  !request.approvals[msg.sender] */\n      iszero\n        /* \"MyPunchStarter.sol\":2910:2949  require(!request.approvals[msg.sender]) */\n      tag_104\n      jumpi\n      0x00\n      dup1\n      revert\n    tag_104:\n        /* \"MyPunchStarter.sol\":2959:2966  request */\n      dup1\n        /* \"MyPunchStarter.sol\":2959:2979  request.numApprovals */\n      0x04\n      add\n      0x00\n        /* \"MyPunchStarter.sol\":2959:2981  request.numApprovals++ */\n      dup2\n      sload\n      dup1\n      swap3\n      swap2\n      swap1\n      tag_105\n      swap1\n      tag_96\n      jump\t// in\n    tag_105:\n      swap2\n      swap1\n      pop\n      sstore\n      pop\n        /* \"MyPunchStarter.sol\":3023:3027  true */\n      0x01\n        /* \"MyPunchStarter.sol\":2991:2998  request */\n      dup2\n        /* \"MyPunchStarter.sol\":2991:3008  request.approvals */\n      0x05\n      add\n        /* \"MyPunchStarter.sol\":2991:3020  request.approvals[msg.sender] */\n      0x00\n        /* \"MyPunchStarter.sol\":3009:3019  msg.sender */\n      caller\n        /* \"MyPunchStarter.sol\":2991:3020  request.approvals[msg.sender] */\n      0xffffffffffffffffffffffffffffffffffffffff\n      and\n      0xffffffffffffffffffffffffffffffffffffffff\n      and\n      dup2\n      mstore\n      0x20\n      add\n      swap1\n      dup2\n      mstore\n      0x20\n      add\n      0x00\n      keccak256\n      0x00\n        /* \"MyPunchStarter.sol\":2991:3027  request.approvals[msg.sender] = true */\n      0x0100\n      exp\n      dup2\n      sload\n      dup2\n      0xff\n      mul\n      not\n      and\n      swap1\n      dup4\n      iszero\n      iszero\n      mul\n      or\n      swap1\n      sstore\n      pop\n        /* \"MyPunchStarter.sol\":2802:3034  {... */\n      pop\n        /* \"MyPunchStarter.sol\":2751:3034  function approveRequest(uint requestIndex) public  {... */\n      pop\n      jump\t// out\n        /* \"MyPunchStarter.sol\":927:955  uint public lastContribution */\n    tag_69:\n      sload(0x04)\n      dup2\n      jump\t// out\n        /* \"MyPunchStarter.sol\":2120:2376  function enoughApproversForRequest (uint requestIndex)  public view returns (bool)  {... */\n    tag_74:\n        /* \"MyPunchStarter.sol\":2197:2201  bool */\n      0x00\n        /* \"MyPunchStarter.sol\":2222:2249  existsApproversForRequest() */\n      tag_107\n        /* \"MyPunchStarter.sol\":2222:2247  existsApproversForRequest */\n      tag_59\n        /* \"MyPunchStarter.sol\":2222:2249  existsApproversForRequest() */\n      jump\t// in\n    tag_107:\n        /* \"MyPunchStarter.sol\":2214:2250  require(existsApproversForRequest()) */\n      tag_108\n      jumpi\n      0x00\n      dup1\n      revert\n    tag_108:\n        /* \"MyPunchStarter.sol\":2260:2283  Request storage request */\n      0x00\n        /* \"MyPunchStarter.sol\":2286:2294  requests */\n      0x01\n        /* \"MyPunchStarter.sol\":2286:2308  requests[requestIndex] */\n      0x00\n        /* \"MyPunchStarter.sol\":2295:2307  requestIndex */\n      dup5\n        /* \"MyPunchStarter.sol\":2286:2308  requests[requestIndex] */\n      dup2\n      mstore\n      0x20\n      add\n      swap1\n      dup2\n      mstore\n      0x20\n      add\n      0x00\n      keccak256\n        /* \"MyPunchStarter.sol\":2260:2308  Request storage request = requests[requestIndex] */\n      swap1\n      pop\n        /* \"MyPunchStarter.sol\":2365:2366  2 */\n      0x02\n        /* \"MyPunchStarter.sol\":2350:2364  approversCount */\n      sload(0x06)\n        /* \"MyPunchStarter.sol\":2350:2366  approversCount/2 */\n      tag_109\n      swap2\n      swap1\n      tag_110\n      jump\t// in\n    tag_109:\n        /* \"MyPunchStarter.sol\":2326:2333  request */\n      dup2\n        /* \"MyPunchStarter.sol\":2326:2346  request.numApprovals */\n      0x04\n      add\n      sload\n        /* \"MyPunchStarter.sol\":2326:2367  request.numApprovals > (approversCount/2) */\n      gt\n        /* \"MyPunchStarter.sol\":2318:2368  return (request.numApprovals > (approversCount/2)) */\n      swap2\n      pop\n      pop\n        /* \"MyPunchStarter.sol\":2120:2376  function enoughApproversForRequest (uint requestIndex)  public view returns (bool)  {... */\n      swap2\n      swap1\n      pop\n      jump\t// out\n    tag_94:\n      dup3\n      dup1\n      sload\n      tag_111\n      swap1\n      tag_85\n      jump\t// in\n    tag_111:\n      swap1\n      0x00\n      mstore\n      keccak256(0x00, 0x20)\n      swap1\n      0x1f\n      add\n      0x20\n      swap1\n      div\n      dup2\n      add\n      swap3\n      dup3\n      tag_113\n      jumpi\n      0x00\n      dup6\n      sstore\n      jump(tag_112)\n    tag_113:\n      dup3\n      0x1f\n      lt\n      tag_114\n      jumpi\n      dup1\n      mload\n      not(0xff)\n      and\n      dup4\n      dup1\n      add\n      or\n      dup6\n      sstore\n      jump(tag_112)\n    tag_114:\n      dup3\n      dup1\n      add\n      0x01\n      add\n      dup6\n      sstore\n      dup3\n      iszero\n      tag_112\n      jumpi\n      swap2\n      dup3\n      add\n    tag_115:\n      dup3\n      dup2\n      gt\n      iszero\n      tag_116\n      jumpi\n      dup3\n      mload\n      dup3\n      sstore\n      swap2\n      0x20\n      add\n      swap2\n      swap1\n      0x01\n      add\n      swap1\n      jump(tag_115)\n    tag_116:\n    tag_112:\n      pop\n      swap1\n      pop\n      tag_117\n      swap2\n      swap1\n      tag_118\n      jump\t// in\n    tag_117:\n      pop\n      swap1\n      jump\t// out\n    tag_118:\n    tag_119:\n      dup1\n      dup3\n      gt\n      iszero\n      tag_120\n      jumpi\n      0x00\n      dup2\n      0x00\n      swap1\n      sstore\n      pop\n      0x01\n      add\n      jump(tag_119)\n    tag_120:\n      pop\n      swap1\n      jump\t// out\n        /* \"#utility.yul\":7:82   */\n    tag_121:\n        /* \"#utility.yul\":40:46   */\n      0x00\n        /* \"#utility.yul\":73:75   */\n      0x40\n        /* \"#utility.yul\":67:76   */\n      mload\n        /* \"#utility.yul\":57:76   */\n      swap1\n      pop\n        /* \"#utility.yul\":7:82   */\n      swap1\n      jump\t// out\n        /* \"#utility.yul\":88:205   */\n    tag_122:\n        /* \"#utility.yul\":197:198   */\n      0x00\n        /* \"#utility.yul\":194:195   */\n      dup1\n        /* \"#utility.yul\":187:199   */\n      revert\n        /* \"#utility.yul\":211:328   */\n    tag_123:\n        /* \"#utility.yul\":320:321   */\n      0x00\n        /* \"#utility.yul\":317:318   */\n      dup1\n        /* \"#utility.yul\":310:322   */\n      revert\n        /* \"#utility.yul\":334:411   */\n    tag_124:\n        /* \"#utility.yul\":371:378   */\n      0x00\n        /* \"#utility.yul\":400:405   */\n      dup2\n        /* \"#utility.yul\":389:405   */\n      swap1\n      pop\n        /* \"#utility.yul\":334:411   */\n      swap2\n      swap1\n      pop\n      jump\t// out\n        /* \"#utility.yul\":417:539   */\n    tag_125:\n        /* \"#utility.yul\":490:514   */\n      tag_158\n        /* \"#utility.yul\":508:513   */\n      dup2\n        /* \"#utility.yul\":490:514   */\n      tag_124\n      jump\t// in\n    tag_158:\n        /* \"#utility.yul\":483:488   */\n      dup2\n        /* \"#utility.yul\":480:515   */\n      eq\n        /* \"#utility.yul\":470:533   */\n      tag_159\n      jumpi\n        /* \"#utility.yul\":529:530   */\n      0x00\n        /* \"#utility.yul\":526:527   */\n      dup1\n        /* \"#utility.yul\":519:531   */\n      revert\n        /* \"#utility.yul\":470:533   */\n    tag_159:\n        /* \"#utility.yul\":417:539   */\n      pop\n      jump\t// out\n        /* \"#utility.yul\":545:684   */\n    tag_126:\n        /* \"#utility.yul\":591:596   */\n      0x00\n        /* \"#utility.yul\":629:635   */\n      dup2\n        /* \"#utility.yul\":616:636   */\n      calldataload\n        /* \"#utility.yul\":607:636   */\n      swap1\n      pop\n        /* \"#utility.yul\":645:678   */\n      tag_161\n        /* \"#utility.yul\":672:677   */\n      dup2\n        /* \"#utility.yul\":645:678   */\n      tag_125\n      jump\t// in\n    tag_161:\n        /* \"#utility.yul\":545:684   */\n      swap3\n      swap2\n      pop\n      pop\n      jump\t// out\n        /* \"#utility.yul\":690:1019   */\n    tag_20:\n        /* \"#utility.yul\":749:755   */\n      0x00\n        /* \"#utility.yul\":798:800   */\n      0x20\n        /* \"#utility.yul\":786:795   */\n      dup3\n        /* \"#utility.yul\":777:784   */\n      dup5\n        /* \"#utility.yul\":773:796   */\n      sub\n        /* \"#utility.yul\":769:801   */\n      slt\n        /* \"#utility.yul\":766:885   */\n      iszero\n      tag_163\n      jumpi\n        /* \"#utility.yul\":804:883   */\n      tag_164\n      tag_122\n      jump\t// in\n    tag_164:\n        /* \"#utility.yul\":766:885   */\n    tag_163:\n        /* \"#utility.yul\":924:925   */\n      0x00\n        /* \"#utility.yul\":949:1002   */\n      tag_165\n        /* \"#utility.yul\":994:1001   */\n      dup5\n        /* \"#utility.yul\":985:991   */\n      dup3\n        /* \"#utility.yul\":974:983   */\n      dup6\n        /* \"#utility.yul\":970:992   */\n      add\n        /* \"#utility.yul\":949:1002   */\n      tag_126\n      jump\t// in\n    tag_165:\n        /* \"#utility.yul\":939:1002   */\n      swap2\n      pop\n        /* \"#utility.yul\":895:1012   */\n      pop\n        /* \"#utility.yul\":690:1019   */\n      swap3\n      swap2\n      pop\n      pop\n      jump\t// out\n        /* \"#utility.yul\":1025:1151   */\n    tag_127:\n        /* \"#utility.yul\":1062:1069   */\n      0x00\n        /* \"#utility.yul\":1102:1144   */\n      0xffffffffffffffffffffffffffffffffffffffff\n        /* \"#utility.yul\":1095:1100   */\n      dup3\n        /* \"#utility.yul\":1091:1145   */\n      and\n        /* \"#utility.yul\":1080:1145   */\n      swap1\n      pop\n        /* \"#utility.yul\":1025:1151   */\n      swap2\n      swap1\n      pop\n      jump\t// out\n        /* \"#utility.yul\":1157:1253   */\n    tag_128:\n        /* \"#utility.yul\":1194:1201   */\n      0x00\n        /* \"#utility.yul\":1223:1247   */\n      tag_168\n        /* \"#utility.yul\":1241:1246   */\n      dup3\n        /* \"#utility.yul\":1223:1247   */\n      tag_127\n      jump\t// in\n    tag_168:\n        /* \"#utility.yul\":1212:1247   */\n      swap1\n      pop\n        /* \"#utility.yul\":1157:1253   */\n      swap2\n      swap1\n      pop\n      jump\t// out\n        /* \"#utility.yul\":1259:1381   */\n    tag_129:\n        /* \"#utility.yul\":1332:1356   */\n      tag_170\n        /* \"#utility.yul\":1350:1355   */\n      dup2\n        /* \"#utility.yul\":1332:1356   */\n      tag_128\n      jump\t// in\n    tag_170:\n        /* \"#utility.yul\":1325:1330   */\n      dup2\n        /* \"#utility.yul\":1322:1357   */\n      eq\n        /* \"#utility.yul\":1312:1375   */\n      tag_171\n      jumpi\n        /* \"#utility.yul\":1371:1372   */\n      0x00\n        /* \"#utility.yul\":1368:1369   */\n      dup1\n        /* \"#utility.yul\":1361:1373   */\n      revert\n        /* \"#utility.yul\":1312:1375   */\n    tag_171:\n        /* \"#utility.yul\":1259:1381   */\n      pop\n      jump\t// out\n        /* \"#utility.yul\":1387:1526   */\n    tag_130:\n        /* \"#utility.yul\":1433:1438   */\n      0x00\n        /* \"#utility.yul\":1471:1477   */\n      dup2\n        /* \"#utility.yul\":1458:1478   */\n      calldataload\n        /* \"#utility.yul\":1449:1478   */\n      swap1\n      pop\n        /* \"#utility.yul\":1487:1520   */\n      tag_173\n        /* \"#utility.yul\":1514:1519   */\n      dup2\n        /* \"#utility.yul\":1487:1520   */\n      tag_129\n      jump\t// in\n    tag_173:\n        /* \"#utility.yul\":1387:1526   */\n      swap3\n      swap2\n      pop\n      pop\n      jump\t// out\n        /* \"#utility.yul\":1532:1861   */\n    tag_25:\n        /* \"#utility.yul\":1591:1597   */\n      0x00\n        /* \"#utility.yul\":1640:1642   */\n      0x20\n        /* \"#utility.yul\":1628:1637   */\n      dup3\n        /* \"#utility.yul\":1619:1626   */\n      dup5\n        /* \"#utility.yul\":1615:1638   */\n      sub\n        /* \"#utility.yul\":1611:1643   */\n      slt\n        /* \"#utility.yul\":1608:1727   */\n      iszero\n      tag_175\n      jumpi\n        /* \"#utility.yul\":1646:1725   */\n      tag_176\n      tag_122\n      jump\t// in\n    tag_176:\n        /* \"#utility.yul\":1608:1727   */\n    tag_175:\n        /* \"#utility.yul\":1766:1767   */\n      0x00\n        /* \"#utility.yul\":1791:1844   */\n      tag_177\n        /* \"#utility.yul\":1836:1843   */\n      dup5\n        /* \"#utility.yul\":1827:1833   */\n      dup3\n        /* \"#utility.yul\":1816:1825   */\n      dup6\n        /* \"#utility.yul\":1812:1834   */\n      add\n        /* \"#utility.yul\":1791:1844   */\n      tag_130\n      jump\t// in\n    tag_177:\n        /* \"#utility.yul\":1781:1844   */\n      swap2\n      pop\n        /* \"#utility.yul\":1737:1854   */\n      pop\n        /* \"#utility.yul\":1532:1861   */\n      swap3\n      swap2\n      pop\n      pop\n      jump\t// out\n        /* \"#utility.yul\":1867:1957   */\n    tag_131:\n        /* \"#utility.yul\":1901:1908   */\n      0x00\n        /* \"#utility.yul\":1944:1949   */\n      dup2\n        /* \"#utility.yul\":1937:1950   */\n      iszero\n        /* \"#utility.yul\":1930:1951   */\n      iszero\n        /* \"#utility.yul\":1919:1951   */\n      swap1\n      pop\n        /* \"#utility.yul\":1867:1957   */\n      swap2\n      swap1\n      pop\n      jump\t// out\n        /* \"#utility.yul\":1963:2072   */\n    tag_132:\n        /* \"#utility.yul\":2044:2065   */\n      tag_180\n        /* \"#utility.yul\":2059:2064   */\n      dup2\n        /* \"#utility.yul\":2044:2065   */\n      tag_131\n      jump\t// in\n    tag_180:\n        /* \"#utility.yul\":2039:2042   */\n      dup3\n        /* \"#utility.yul\":2032:2066   */\n      mstore\n        /* \"#utility.yul\":1963:2072   */\n      pop\n      pop\n      jump\t// out\n        /* \"#utility.yul\":2078:2288   */\n    tag_28:\n        /* \"#utility.yul\":2165:2169   */\n      0x00\n        /* \"#utility.yul\":2203:2205   */\n      0x20\n        /* \"#utility.yul\":2192:2201   */\n      dup3\n        /* \"#utility.yul\":2188:2206   */\n      add\n        /* \"#utility.yul\":2180:2206   */\n      swap1\n      pop\n        /* \"#utility.yul\":2216:2281   */\n      tag_182\n        /* \"#utility.yul\":2278:2279   */\n      0x00\n        /* \"#utility.yul\":2267:2276   */\n      dup4\n        /* \"#utility.yul\":2263:2280   */\n      add\n        /* \"#utility.yul\":2254:2260   */\n      dup5\n        /* \"#utility.yul\":2216:2281   */\n      tag_132\n      jump\t// in\n    tag_182:\n        /* \"#utility.yul\":2078:2288   */\n      swap3\n      swap2\n      pop\n      pop\n      jump\t// out\n        /* \"#utility.yul\":2294:2412   */\n    tag_133:\n        /* \"#utility.yul\":2381:2405   */\n      tag_184\n        /* \"#utility.yul\":2399:2404   */\n      dup2\n        /* \"#utility.yul\":2381:2405   */\n      tag_128\n      jump\t// in\n    tag_184:\n        /* \"#utility.yul\":2376:2379   */\n      dup3\n        /* \"#utility.yul\":2369:2406   */\n      mstore\n        /* \"#utility.yul\":2294:2412   */\n      pop\n      pop\n      jump\t// out\n        /* \"#utility.yul\":2418:2640   */\n    tag_33:\n        /* \"#utility.yul\":2511:2515   */\n      0x00\n        /* \"#utility.yul\":2549:2551   */\n      0x20\n        /* \"#utility.yul\":2538:2547   */\n      dup3\n        /* \"#utility.yul\":2534:2552   */\n      add\n        /* \"#utility.yul\":2526:2552   */\n      swap1\n      pop\n        /* \"#utility.yul\":2562:2633   */\n      tag_186\n        /* \"#utility.yul\":2630:2631   */\n      0x00\n        /* \"#utility.yul\":2619:2628   */\n      dup4\n        /* \"#utility.yul\":2615:2632   */\n      add\n        /* \"#utility.yul\":2606:2612   */\n      dup5\n        /* \"#utility.yul\":2562:2633   */\n      tag_133\n      jump\t// in\n    tag_186:\n        /* \"#utility.yul\":2418:2640   */\n      swap3\n      swap2\n      pop\n      pop\n      jump\t// out\n        /* \"#utility.yul\":2646:2745   */\n    tag_134:\n        /* \"#utility.yul\":2698:2704   */\n      0x00\n        /* \"#utility.yul\":2732:2737   */\n      dup2\n        /* \"#utility.yul\":2726:2738   */\n      mload\n        /* \"#utility.yul\":2716:2738   */\n      swap1\n      pop\n        /* \"#utility.yul\":2646:2745   */\n      swap2\n      swap1\n      pop\n      jump\t// out\n        /* \"#utility.yul\":2751:2920   */\n    tag_135:\n        /* \"#utility.yul\":2835:2846   */\n      0x00\n        /* \"#utility.yul\":2869:2875   */\n      dup3\n        /* \"#utility.yul\":2864:2867   */\n      dup3\n        /* \"#utility.yul\":2857:2876   */\n      mstore\n        /* \"#utility.yul\":2909:2913   */\n      0x20\n        /* \"#utility.yul\":2904:2907   */\n      dup3\n        /* \"#utility.yul\":2900:2914   */\n      add\n        /* \"#utility.yul\":2885:2914   */\n      swap1\n      pop\n        /* \"#utility.yul\":2751:2920   */\n      swap3\n      swap2\n      pop\n      pop\n      jump\t// out\n        /* \"#utility.yul\":2926:3233   */\n    tag_136:\n        /* \"#utility.yul\":2994:2995   */\n      0x00\n        /* \"#utility.yul\":3004:3117   */\n    tag_190:\n        /* \"#utility.yul\":3018:3024   */\n      dup4\n        /* \"#utility.yul\":3015:3016   */\n      dup2\n        /* \"#utility.yul\":3012:3025   */\n      lt\n        /* \"#utility.yul\":3004:3117   */\n      iszero\n      tag_192\n      jumpi\n        /* \"#utility.yul\":3103:3104   */\n      dup1\n        /* \"#utility.yul\":3098:3101   */\n      dup3\n        /* \"#utility.yul\":3094:3105   */\n      add\n        /* \"#utility.yul\":3088:3106   */\n      mload\n        /* \"#utility.yul\":3084:3085   */\n      dup2\n        /* \"#utility.yul\":3079:3082   */\n      dup5\n        /* \"#utility.yul\":3075:3086   */\n      add\n        /* \"#utility.yul\":3068:3107   */\n      mstore\n        /* \"#utility.yul\":3040:3042   */\n      0x20\n        /* \"#utility.yul\":3037:3038   */\n      dup2\n        /* \"#utility.yul\":3033:3043   */\n      add\n        /* \"#utility.yul\":3028:3043   */\n      swap1\n      pop\n        /* \"#utility.yul\":3004:3117   */\n      jump(tag_190)\n    tag_192:\n        /* \"#utility.yul\":3135:3141   */\n      dup4\n        /* \"#utility.yul\":3132:3133   */\n      dup2\n        /* \"#utility.yul\":3129:3142   */\n      gt\n        /* \"#utility.yul\":3126:3227   */\n      iszero\n      tag_193\n      jumpi\n        /* \"#utility.yul\":3215:3216   */\n      0x00\n        /* \"#utility.yul\":3206:3212   */\n      dup5\n        /* \"#utility.yul\":3201:3204   */\n      dup5\n        /* \"#utility.yul\":3197:3213   */\n      add\n        /* \"#utility.yul\":3190:3217   */\n      mstore\n        /* \"#utility.yul\":3126:3227   */\n    tag_193:\n        /* \"#utility.yul\":2975:3233   */\n      pop\n        /* \"#utility.yul\":2926:3233   */\n      pop\n      pop\n      pop\n      jump\t// out\n        /* \"#utility.yul\":3239:3341   */\n    tag_137:\n        /* \"#utility.yul\":3280:3286   */\n      0x00\n        /* \"#utility.yul\":3331:3333   */\n      0x1f\n        /* \"#utility.yul\":3327:3334   */\n      not\n        /* \"#utility.yul\":3322:3324   */\n      0x1f\n        /* \"#utility.yul\":3315:3320   */\n      dup4\n        /* \"#utility.yul\":3311:3325   */\n      add\n        /* \"#utility.yul\":3307:3335   */\n      and\n        /* \"#utility.yul\":3297:3335   */\n      swap1\n      pop\n        /* \"#utility.yul\":3239:3341   */\n      swap2\n      swap1\n      pop\n      jump\t// out\n        /* \"#utility.yul\":3347:3711   */\n    tag_138:\n        /* \"#utility.yul\":3435:3438   */\n      0x00\n        /* \"#utility.yul\":3463:3502   */\n      tag_196\n        /* \"#utility.yul\":3496:3501   */\n      dup3\n        /* \"#utility.yul\":3463:3502   */\n      tag_134\n      jump\t// in\n    tag_196:\n        /* \"#utility.yul\":3518:3589   */\n      tag_197\n        /* \"#utility.yul\":3582:3588   */\n      dup2\n        /* \"#utility.yul\":3577:3580   */\n      dup6\n        /* \"#utility.yul\":3518:3589   */\n      tag_135\n      jump\t// in\n    tag_197:\n        /* \"#utility.yul\":3511:3589   */\n      swap4\n      pop\n        /* \"#utility.yul\":3598:3650   */\n      tag_198\n        /* \"#utility.yul\":3643:3649   */\n      dup2\n        /* \"#utility.yul\":3638:3641   */\n      dup6\n        /* \"#utility.yul\":3631:3635   */\n      0x20\n        /* \"#utility.yul\":3624:3629   */\n      dup7\n        /* \"#utility.yul\":3620:3636   */\n      add\n        /* \"#utility.yul\":3598:3650   */\n      tag_136\n      jump\t// in\n    tag_198:\n        /* \"#utility.yul\":3675:3704   */\n      tag_199\n        /* \"#utility.yul\":3697:3703   */\n      dup2\n        /* \"#utility.yul\":3675:3704   */\n      tag_137\n      jump\t// in\n    tag_199:\n        /* \"#utility.yul\":3670:3673   */\n      dup5\n        /* \"#utility.yul\":3666:3705   */\n      add\n        /* \"#utility.yul\":3659:3705   */\n      swap2\n      pop\n        /* \"#utility.yul\":3439:3711   */\n      pop\n        /* \"#utility.yul\":3347:3711   */\n      swap3\n      swap2\n      pop\n      pop\n      jump\t// out\n        /* \"#utility.yul\":3717:3835   */\n    tag_139:\n        /* \"#utility.yul\":3804:3828   */\n      tag_201\n        /* \"#utility.yul\":3822:3827   */\n      dup2\n        /* \"#utility.yul\":3804:3828   */\n      tag_124\n      jump\t// in\n    tag_201:\n        /* \"#utility.yul\":3799:3802   */\n      dup3\n        /* \"#utility.yul\":3792:3829   */\n      mstore\n        /* \"#utility.yul\":3717:3835   */\n      pop\n      pop\n      jump\t// out\n        /* \"#utility.yul\":3841:4695   */\n    tag_39:\n        /* \"#utility.yul\":4088:4092   */\n      0x00\n        /* \"#utility.yul\":4126:4129   */\n      0xc0\n        /* \"#utility.yul\":4115:4124   */\n      dup3\n        /* \"#utility.yul\":4111:4130   */\n      add\n        /* \"#utility.yul\":4103:4130   */\n      swap1\n      pop\n        /* \"#utility.yul\":4176:4185   */\n      dup2\n        /* \"#utility.yul\":4170:4174   */\n      dup2\n        /* \"#utility.yul\":4166:4186   */\n      sub\n        /* \"#utility.yul\":4162:4163   */\n      0x00\n        /* \"#utility.yul\":4151:4160   */\n      dup4\n        /* \"#utility.yul\":4147:4164   */\n      add\n        /* \"#utility.yul\":4140:4187   */\n      mstore\n        /* \"#utility.yul\":4204:4282   */\n      tag_203\n        /* \"#utility.yul\":4277:4281   */\n      dup2\n        /* \"#utility.yul\":4268:4274   */\n      dup10\n        /* \"#utility.yul\":4204:4282   */\n      tag_138\n      jump\t// in\n    tag_203:\n        /* \"#utility.yul\":4196:4282   */\n      swap1\n      pop\n        /* \"#utility.yul\":4292:4364   */\n      tag_204\n        /* \"#utility.yul\":4360:4362   */\n      0x20\n        /* \"#utility.yul\":4349:4358   */\n      dup4\n        /* \"#utility.yul\":4345:4363   */\n      add\n        /* \"#utility.yul\":4336:4342   */\n      dup9\n        /* \"#utility.yul\":4292:4364   */\n      tag_139\n      jump\t// in\n    tag_204:\n        /* \"#utility.yul\":4374:4446   */\n      tag_205\n        /* \"#utility.yul\":4442:4444   */\n      0x40\n        /* \"#utility.yul\":4431:4440   */\n      dup4\n        /* \"#utility.yul\":4427:4445   */\n      add\n        /* \"#utility.yul\":4418:4424   */\n      dup8\n        /* \"#utility.yul\":4374:4446   */\n      tag_133\n      jump\t// in\n    tag_205:\n        /* \"#utility.yul\":4456:4522   */\n      tag_206\n        /* \"#utility.yul\":4518:4520   */\n      0x60\n        /* \"#utility.yul\":4507:4516   */\n      dup4\n        /* \"#utility.yul\":4503:4521   */\n      add\n        /* \"#utility.yul\":4494:4500   */\n      dup7\n        /* \"#utility.yul\":4456:4522   */\n      tag_132\n      jump\t// in\n    tag_206:\n        /* \"#utility.yul\":4532:4605   */\n      tag_207\n        /* \"#utility.yul\":4600:4603   */\n      0x80\n        /* \"#utility.yul\":4589:4598   */\n      dup4\n        /* \"#utility.yul\":4585:4604   */\n      add\n        /* \"#utility.yul\":4576:4582   */\n      dup6\n        /* \"#utility.yul\":4532:4605   */\n      tag_139\n      jump\t// in\n    tag_207:\n        /* \"#utility.yul\":4615:4688   */\n      tag_208\n        /* \"#utility.yul\":4683:4686   */\n      0xa0\n        /* \"#utility.yul\":4672:4681   */\n      dup4\n        /* \"#utility.yul\":4668:4687   */\n      add\n        /* \"#utility.yul\":4659:4665   */\n      dup5\n        /* \"#utility.yul\":4615:4688   */\n      tag_139\n      jump\t// in\n    tag_208:\n        /* \"#utility.yul\":3841:4695   */\n      swap8\n      swap7\n      pop\n      pop\n      pop\n      pop\n      pop\n      pop\n      pop\n      jump\t// out\n        /* \"#utility.yul\":4701:4923   */\n    tag_44:\n        /* \"#utility.yul\":4794:4798   */\n      0x00\n        /* \"#utility.yul\":4832:4834   */\n      0x20\n        /* \"#utility.yul\":4821:4830   */\n      dup3\n        /* \"#utility.yul\":4817:4835   */\n      add\n        /* \"#utility.yul\":4809:4835   */\n      swap1\n      pop\n        /* \"#utility.yul\":4845:4916   */\n      tag_210\n        /* \"#utility.yul\":4913:4914   */\n      0x00\n        /* \"#utility.yul\":4902:4911   */\n      dup4\n        /* \"#utility.yul\":4898:4915   */\n      add\n        /* \"#utility.yul\":4889:4895   */\n      dup5\n        /* \"#utility.yul\":4845:4916   */\n      tag_139\n      jump\t// in\n    tag_210:\n        /* \"#utility.yul\":4701:4923   */\n      swap3\n      swap2\n      pop\n      pop\n      jump\t// out\n        /* \"#utility.yul\":4929:5046   */\n    tag_140:\n        /* \"#utility.yul\":5038:5039   */\n      0x00\n        /* \"#utility.yul\":5035:5036   */\n      dup1\n        /* \"#utility.yul\":5028:5040   */\n      revert\n        /* \"#utility.yul\":5052:5169   */\n    tag_141:\n        /* \"#utility.yul\":5161:5162   */\n      0x00\n        /* \"#utility.yul\":5158:5159   */\n      dup1\n        /* \"#utility.yul\":5151:5163   */\n      revert\n        /* \"#utility.yul\":5175:5355   */\n    tag_142:\n        /* \"#utility.yul\":5223:5300   */\n      0x4e487b7100000000000000000000000000000000000000000000000000000000\n        /* \"#utility.yul\":5220:5221   */\n      0x00\n        /* \"#utility.yul\":5213:5301   */\n      mstore\n        /* \"#utility.yul\":5320:5324   */\n      0x41\n        /* \"#utility.yul\":5317:5318   */\n      0x04\n        /* \"#utility.yul\":5310:5325   */\n      mstore\n        /* \"#utility.yul\":5344:5348   */\n      0x24\n        /* \"#utility.yul\":5341:5342   */\n      0x00\n        /* \"#utility.yul\":5334:5349   */\n      revert\n        /* \"#utility.yul\":5361:5642   */\n    tag_143:\n        /* \"#utility.yul\":5444:5471   */\n      tag_215\n        /* \"#utility.yul\":5466:5470   */\n      dup3\n        /* \"#utility.yul\":5444:5471   */\n      tag_137\n      jump\t// in\n    tag_215:\n        /* \"#utility.yul\":5436:5442   */\n      dup2\n        /* \"#utility.yul\":5432:5472   */\n      add\n        /* \"#utility.yul\":5574:5580   */\n      dup2\n        /* \"#utility.yul\":5562:5572   */\n      dup2\n        /* \"#utility.yul\":5559:5581   */\n      lt\n        /* \"#utility.yul\":5538:5556   */\n      0xffffffffffffffff\n        /* \"#utility.yul\":5526:5536   */\n      dup3\n        /* \"#utility.yul\":5523:5557   */\n      gt\n        /* \"#utility.yul\":5520:5582   */\n      or\n        /* \"#utility.yul\":5517:5605   */\n      iszero\n      tag_216\n      jumpi\n        /* \"#utility.yul\":5585:5603   */\n      tag_217\n      tag_142\n      jump\t// in\n    tag_217:\n        /* \"#utility.yul\":5517:5605   */\n    tag_216:\n        /* \"#utility.yul\":5625:5635   */\n      dup1\n        /* \"#utility.yul\":5621:5623   */\n      0x40\n        /* \"#utility.yul\":5614:5636   */\n      mstore\n        /* \"#utility.yul\":5404:5642   */\n      pop\n        /* \"#utility.yul\":5361:5642   */\n      pop\n      pop\n      jump\t// out\n        /* \"#utility.yul\":5648:5777   */\n    tag_144:\n        /* \"#utility.yul\":5682:5688   */\n      0x00\n        /* \"#utility.yul\":5709:5729   */\n      tag_219\n      tag_121\n      jump\t// in\n    tag_219:\n        /* \"#utility.yul\":5699:5729   */\n      swap1\n      pop\n        /* \"#utility.yul\":5738:5771   */\n      tag_220\n        /* \"#utility.yul\":5766:5770   */\n      dup3\n        /* \"#utility.yul\":5758:5764   */\n      dup3\n        /* \"#utility.yul\":5738:5771   */\n      tag_143\n      jump\t// in\n    tag_220:\n        /* \"#utility.yul\":5648:5777   */\n      swap2\n      swap1\n      pop\n      jump\t// out\n        /* \"#utility.yul\":5783:6091   */\n    tag_145:\n        /* \"#utility.yul\":5845:5849   */\n      0x00\n        /* \"#utility.yul\":5935:5953   */\n      0xffffffffffffffff\n        /* \"#utility.yul\":5927:5933   */\n      dup3\n        /* \"#utility.yul\":5924:5954   */\n      gt\n        /* \"#utility.yul\":5921:5977   */\n      iszero\n      tag_222\n      jumpi\n        /* \"#utility.yul\":5957:5975   */\n      tag_223\n      tag_142\n      jump\t// in\n    tag_223:\n        /* \"#utility.yul\":5921:5977   */\n    tag_222:\n        /* \"#utility.yul\":5995:6024   */\n      tag_224\n        /* \"#utility.yul\":6017:6023   */\n      dup3\n        /* \"#utility.yul\":5995:6024   */\n      tag_137\n      jump\t// in\n    tag_224:\n        /* \"#utility.yul\":5987:6024   */\n      swap1\n      pop\n        /* \"#utility.yul\":6079:6083   */\n      0x20\n        /* \"#utility.yul\":6073:6077   */\n      dup2\n        /* \"#utility.yul\":6069:6084   */\n      add\n        /* \"#utility.yul\":6061:6084   */\n      swap1\n      pop\n        /* \"#utility.yul\":5783:6091   */\n      swap2\n      swap1\n      pop\n      jump\t// out\n        /* \"#utility.yul\":6097:6251   */\n    tag_146:\n        /* \"#utility.yul\":6181:6187   */\n      dup3\n        /* \"#utility.yul\":6176:6179   */\n      dup2\n        /* \"#utility.yul\":6171:6174   */\n      dup4\n        /* \"#utility.yul\":6158:6188   */\n      calldatacopy\n        /* \"#utility.yul\":6243:6244   */\n      0x00\n        /* \"#utility.yul\":6234:6240   */\n      dup4\n        /* \"#utility.yul\":6229:6232   */\n      dup4\n        /* \"#utility.yul\":6225:6241   */\n      add\n        /* \"#utility.yul\":6218:6245   */\n      mstore\n        /* \"#utility.yul\":6097:6251   */\n      pop\n      pop\n      pop\n      jump\t// out\n        /* \"#utility.yul\":6257:6669   */\n    tag_147:\n        /* \"#utility.yul\":6335:6340   */\n      0x00\n        /* \"#utility.yul\":6360:6426   */\n      tag_227\n        /* \"#utility.yul\":6376:6425   */\n      tag_228\n        /* \"#utility.yul\":6418:6424   */\n      dup5\n        /* \"#utility.yul\":6376:6425   */\n      tag_145\n      jump\t// in\n    tag_228:\n        /* \"#utility.yul\":6360:6426   */\n      tag_144\n      jump\t// in\n    tag_227:\n        /* \"#utility.yul\":6351:6426   */\n      swap1\n      pop\n        /* \"#utility.yul\":6449:6455   */\n      dup3\n        /* \"#utility.yul\":6442:6447   */\n      dup2\n        /* \"#utility.yul\":6435:6456   */\n      mstore\n        /* \"#utility.yul\":6487:6491   */\n      0x20\n        /* \"#utility.yul\":6480:6485   */\n      dup2\n        /* \"#utility.yul\":6476:6492   */\n      add\n        /* \"#utility.yul\":6525:6528   */\n      dup5\n        /* \"#utility.yul\":6516:6522   */\n      dup5\n        /* \"#utility.yul\":6511:6514   */\n      dup5\n        /* \"#utility.yul\":6507:6523   */\n      add\n        /* \"#utility.yul\":6504:6529   */\n      gt\n        /* \"#utility.yul\":6501:6613   */\n      iszero\n      tag_229\n      jumpi\n        /* \"#utility.yul\":6532:6611   */\n      tag_230\n      tag_141\n      jump\t// in\n    tag_230:\n        /* \"#utility.yul\":6501:6613   */\n    tag_229:\n        /* \"#utility.yul\":6622:6663   */\n      tag_231\n        /* \"#utility.yul\":6656:6662   */\n      dup5\n        /* \"#utility.yul\":6651:6654   */\n      dup3\n        /* \"#utility.yul\":6646:6649   */\n      dup6\n        /* \"#utility.yul\":6622:6663   */\n      tag_146\n      jump\t// in\n    tag_231:\n        /* \"#utility.yul\":6341:6669   */\n      pop\n        /* \"#utility.yul\":6257:6669   */\n      swap4\n      swap3\n      pop\n      pop\n      pop\n      jump\t// out\n        /* \"#utility.yul\":6689:7029   */\n    tag_148:\n        /* \"#utility.yul\":6745:6750   */\n      0x00\n        /* \"#utility.yul\":6794:6797   */\n      dup3\n        /* \"#utility.yul\":6787:6791   */\n      0x1f\n        /* \"#utility.yul\":6779:6785   */\n      dup4\n        /* \"#utility.yul\":6775:6792   */\n      add\n        /* \"#utility.yul\":6771:6798   */\n      slt\n        /* \"#utility.yul\":6761:6883   */\n      tag_233\n      jumpi\n        /* \"#utility.yul\":6802:6881   */\n      tag_234\n      tag_140\n      jump\t// in\n    tag_234:\n        /* \"#utility.yul\":6761:6883   */\n    tag_233:\n        /* \"#utility.yul\":6919:6925   */\n      dup2\n        /* \"#utility.yul\":6906:6926   */\n      calldataload\n        /* \"#utility.yul\":6944:7023   */\n      tag_235\n        /* \"#utility.yul\":7019:7022   */\n      dup5\n        /* \"#utility.yul\":7011:7017   */\n      dup3\n        /* \"#utility.yul\":7004:7008   */\n      0x20\n        /* \"#utility.yul\":6996:7002   */\n      dup7\n        /* \"#utility.yul\":6992:7009   */\n      add\n        /* \"#utility.yul\":6944:7023   */\n      tag_147\n      jump\t// in\n    tag_235:\n        /* \"#utility.yul\":6935:7023   */\n      swap2\n      pop\n        /* \"#utility.yul\":6751:7029   */\n      pop\n        /* \"#utility.yul\":6689:7029   */\n      swap3\n      swap2\n      pop\n      pop\n      jump\t// out\n        /* \"#utility.yul\":7035:7834   */\n    tag_47:\n        /* \"#utility.yul\":7122:7128   */\n      0x00\n        /* \"#utility.yul\":7130:7136   */\n      dup1\n        /* \"#utility.yul\":7138:7144   */\n      0x00\n        /* \"#utility.yul\":7187:7189   */\n      0x60\n        /* \"#utility.yul\":7175:7184   */\n      dup5\n        /* \"#utility.yul\":7166:7173   */\n      dup7\n        /* \"#utility.yul\":7162:7185   */\n      sub\n        /* \"#utility.yul\":7158:7190   */\n      slt\n        /* \"#utility.yul\":7155:7274   */\n      iszero\n      tag_237\n      jumpi\n        /* \"#utility.yul\":7193:7272   */\n      tag_238\n      tag_122\n      jump\t// in\n    tag_238:\n        /* \"#utility.yul\":7155:7274   */\n    tag_237:\n        /* \"#utility.yul\":7341:7342   */\n      0x00\n        /* \"#utility.yul\":7330:7339   */\n      dup5\n        /* \"#utility.yul\":7326:7343   */\n      add\n        /* \"#utility.yul\":7313:7344   */\n      calldataload\n        /* \"#utility.yul\":7371:7389   */\n      0xffffffffffffffff\n        /* \"#utility.yul\":7363:7369   */\n      dup2\n        /* \"#utility.yul\":7360:7390   */\n      gt\n        /* \"#utility.yul\":7357:7474   */\n      iszero\n      tag_239\n      jumpi\n        /* \"#utility.yul\":7393:7472   */\n      tag_240\n      tag_123\n      jump\t// in\n    tag_240:\n        /* \"#utility.yul\":7357:7474   */\n    tag_239:\n        /* \"#utility.yul\":7498:7561   */\n      tag_241\n        /* \"#utility.yul\":7553:7560   */\n      dup7\n        /* \"#utility.yul\":7544:7550   */\n      dup3\n        /* \"#utility.yul\":7533:7542   */\n      dup8\n        /* \"#utility.yul\":7529:7551   */\n      add\n        /* \"#utility.yul\":7498:7561   */\n      tag_148\n      jump\t// in\n    tag_241:\n        /* \"#utility.yul\":7488:7561   */\n      swap4\n      pop\n        /* \"#utility.yul\":7284:7571   */\n      pop\n        /* \"#utility.yul\":7610:7612   */\n      0x20\n        /* \"#utility.yul\":7636:7689   */\n      tag_242\n        /* \"#utility.yul\":7681:7688   */\n      dup7\n        /* \"#utility.yul\":7672:7678   */\n      dup3\n        /* \"#utility.yul\":7661:7670   */\n      dup8\n        /* \"#utility.yul\":7657:7679   */\n      add\n        /* \"#utility.yul\":7636:7689   */\n      tag_126\n      jump\t// in\n    tag_242:\n        /* \"#utility.yul\":7626:7689   */\n      swap3\n      pop\n        /* \"#utility.yul\":7581:7699   */\n      pop\n        /* \"#utility.yul\":7738:7740   */\n      0x40\n        /* \"#utility.yul\":7764:7817   */\n      tag_243\n        /* \"#utility.yul\":7809:7816   */\n      dup7\n        /* \"#utility.yul\":7800:7806   */\n      dup3\n        /* \"#utility.yul\":7789:7798   */\n      dup8\n        /* \"#utility.yul\":7785:7807   */\n      add\n        /* \"#utility.yul\":7764:7817   */\n      tag_130\n      jump\t// in\n    tag_243:\n        /* \"#utility.yul\":7754:7817   */\n      swap2\n      pop\n        /* \"#utility.yul\":7709:7827   */\n      pop\n        /* \"#utility.yul\":7035:7834   */\n      swap3\n      pop\n      swap3\n      pop\n      swap3\n      jump\t// out\n        /* \"#utility.yul\":7840:8020   */\n    tag_149:\n        /* \"#utility.yul\":7888:7965   */\n      0x4e487b7100000000000000000000000000000000000000000000000000000000\n        /* \"#utility.yul\":7885:7886   */\n      0x00\n        /* \"#utility.yul\":7878:7966   */\n      mstore\n        /* \"#utility.yul\":7985:7989   */\n      0x22\n        /* \"#utility.yul\":7982:7983   */\n      0x04\n        /* \"#utility.yul\":7975:7990   */\n      mstore\n        /* \"#utility.yul\":8009:8013   */\n      0x24\n        /* \"#utility.yul\":8006:8007   */\n      0x00\n        /* \"#utility.yul\":7999:8014   */\n      revert\n        /* \"#utility.yul\":8026:8346   */\n    tag_85:\n        /* \"#utility.yul\":8070:8076   */\n      0x00\n        /* \"#utility.yul\":8107:8108   */\n      0x02\n        /* \"#utility.yul\":8101:8105   */\n      dup3\n        /* \"#utility.yul\":8097:8109   */\n      div\n        /* \"#utility.yul\":8087:8109   */\n      swap1\n      pop\n        /* \"#utility.yul\":8154:8155   */\n      0x01\n        /* \"#utility.yul\":8148:8152   */\n      dup3\n        /* \"#utility.yul\":8144:8156   */\n      and\n        /* \"#utility.yul\":8175:8193   */\n      dup1\n        /* \"#utility.yul\":8165:8246   */\n      tag_246\n      jumpi\n        /* \"#utility.yul\":8231:8235   */\n      0x7f\n        /* \"#utility.yul\":8223:8229   */\n      dup3\n        /* \"#utility.yul\":8219:8236   */\n      and\n        /* \"#utility.yul\":8209:8236   */\n      swap2\n      pop\n        /* \"#utility.yul\":8165:8246   */\n    tag_246:\n        /* \"#utility.yul\":8293:8295   */\n      0x20\n        /* \"#utility.yul\":8285:8291   */\n      dup3\n        /* \"#utility.yul\":8282:8296   */\n      lt\n        /* \"#utility.yul\":8262:8280   */\n      dup2\n        /* \"#utility.yul\":8259:8297   */\n      eq\n        /* \"#utility.yul\":8256:8340   */\n      iszero\n      tag_247\n      jumpi\n        /* \"#utility.yul\":8312:8330   */\n      tag_248\n      tag_149\n      jump\t// in\n    tag_248:\n        /* \"#utility.yul\":8256:8340   */\n    tag_247:\n        /* \"#utility.yul\":8077:8346   */\n      pop\n        /* \"#utility.yul\":8026:8346   */\n      swap2\n      swap1\n      pop\n      jump\t// out\n        /* \"#utility.yul\":8352:8532   */\n    tag_150:\n        /* \"#utility.yul\":8400:8477   */\n      0x4e487b7100000000000000000000000000000000000000000000000000000000\n        /* \"#utility.yul\":8397:8398   */\n      0x00\n        /* \"#utility.yul\":8390:8478   */\n      mstore\n        /* \"#utility.yul\":8497:8501   */\n      0x11\n        /* \"#utility.yul\":8494:8495   */\n      0x04\n        /* \"#utility.yul\":8487:8502   */\n      mstore\n        /* \"#utility.yul\":8521:8525   */\n      0x24\n        /* \"#utility.yul\":8518:8519   */\n      0x00\n        /* \"#utility.yul\":8511:8526   */\n      revert\n        /* \"#utility.yul\":8538:8771   */\n    tag_96:\n        /* \"#utility.yul\":8577:8580   */\n      0x00\n        /* \"#utility.yul\":8600:8624   */\n      tag_251\n        /* \"#utility.yul\":8618:8623   */\n      dup3\n        /* \"#utility.yul\":8600:8624   */\n      tag_124\n      jump\t// in\n    tag_251:\n        /* \"#utility.yul\":8591:8624   */\n      swap2\n      pop\n        /* \"#utility.yul\":8646:8712   */\n      0xffffffffffffffffffffffffffffffffffffffffffffffffffffffffffffffff\n        /* \"#utility.yul\":8639:8644   */\n      dup3\n        /* \"#utility.yul\":8636:8713   */\n      eq\n        /* \"#utility.yul\":8633:8736   */\n      iszero\n      tag_252\n      jumpi\n        /* \"#utility.yul\":8716:8734   */\n      tag_253\n      tag_150\n      jump\t// in\n    tag_253:\n        /* \"#utility.yul\":8633:8736   */\n    tag_252:\n        /* \"#utility.yul\":8763:8764   */\n      0x01\n        /* \"#utility.yul\":8756:8761   */\n      dup3\n        /* \"#utility.yul\":8752:8765   */\n      add\n        /* \"#utility.yul\":8745:8765   */\n      swap1\n      pop\n        /* \"#utility.yul\":8538:8771   */\n      swap2\n      swap1\n      pop\n      jump\t// out\n        /* \"#utility.yul\":8777:8957   */\n    tag_151:\n        /* \"#utility.yul\":8825:8902   */\n      0x4e487b7100000000000000000000000000000000000000000000000000000000\n        /* \"#utility.yul\":8822:8823   */\n      0x00\n        /* \"#utility.yul\":8815:8903   */\n      mstore\n        /* \"#utility.yul\":8922:8926   */\n      0x12\n        /* \"#utility.yul\":8919:8920   */\n      0x04\n        /* \"#utility.yul\":8912:8927   */\n      mstore\n        /* \"#utility.yul\":8946:8950   */\n      0x24\n        /* \"#utility.yul\":8943:8944   */\n      0x00\n        /* \"#utility.yul\":8936:8951   */\n      revert\n        /* \"#utility.yul\":8963:9148   */\n    tag_110:\n        /* \"#utility.yul\":9003:9004   */\n      0x00\n        /* \"#utility.yul\":9020:9040   */\n      tag_256\n        /* \"#utility.yul\":9038:9039   */\n      dup3\n        /* \"#utility.yul\":9020:9040   */\n      tag_124\n      jump\t// in\n    tag_256:\n        /* \"#utility.yul\":9015:9040   */\n      swap2\n      pop\n        /* \"#utility.yul\":9054:9074   */\n      tag_257\n        /* \"#utility.yul\":9072:9073   */\n      dup4\n        /* \"#utility.yul\":9054:9074   */\n      tag_124\n      jump\t// in\n    tag_257:\n        /* \"#utility.yul\":9049:9074   */\n      swap3\n      pop\n        /* \"#utility.yul\":9093:9094   */\n      dup3\n        /* \"#utility.yul\":9083:9118   */\n      tag_258\n      jumpi\n        /* \"#utility.yul\":9098:9116   */\n      tag_259\n      tag_151\n      jump\t// in\n    tag_259:\n        /* \"#utility.yul\":9083:9118   */\n    tag_258:\n        /* \"#utility.yul\":9140:9141   */\n      dup3\n        /* \"#utility.yul\":9137:9138   */\n      dup3\n        /* \"#utility.yul\":9133:9142   */\n      div\n        /* \"#utility.yul\":9128:9142   */\n      swap1\n      pop\n        /* \"#utility.yul\":8963:9148   */\n      swap3\n      swap2\n      pop\n      pop\n      jump\t// out\n\n    auxdata: 0xa26469706673582212209e847a716cdc448aa79bcab475d8d1447cafa224a6db00f2ea382cba3605e5a664736f6c634300080c0033\n}\n","bytecode":{"linkReferences":{},"object":"6080604052604051620010ea380380620010ea83398181016040528101906200002991906200011e565b80600260006101000a81548173ffffffffffffffffffffffffffffffffffffffff021916908373ffffffffffffffffffffffffffffffffffffffff16021790555081600381905550505062000165565b600080fd5b6000819050919050565b62000093816200007e565b81146200009f57600080fd5b50565b600081519050620000b38162000088565b92915050565b600073ffffffffffffffffffffffffffffffffffffffff82169050919050565b6000620000e682620000b9565b9050919050565b620000f881620000d9565b81146200010457600080fd5b50565b6000815190506200011881620000ed565b92915050565b6000806040838503121562000138576200013762000079565b5b60006200014885828601620000a2565b92505060206200015b8582860162000107565b9150509250929050565b610f7580620001756000396000f3fe6080604052600436106100c25760003560e01c8063937e09b11161007f578063d7bb99ba11610059578063d7bb99ba14610262578063d7d1bbdb1461026c578063e1c24d5114610295578063fd35e8b6146102c0576100c2565b8063937e09b1146101e1578063b69ef8a81461020c578063c29d566d14610237576100c2565b806303441006146100c75780630a144391146100f0578063481c6a751461012d57806381d12c581461015857806382fde0931461019a5780638a9cfd55146101c5575b600080fd5b3480156100d357600080fd5b506100ee60048036038101906100e99190610a1f565b6102fd565b005b3480156100fc57600080fd5b5061011760048036038101906101129190610aaa565b610432565b6040516101249190610af2565b60405180910390f35b34801561013957600080fd5b50610142610452565b60405161014f9190610b1c565b60405180910390f35b34801561016457600080fd5b5061017f600480360381019061017a9190610a1f565b610478565b60405161019196959493929190610bdf565b60405180910390f35b3480156101a657600080fd5b506101af610569565b6040516101bc9190610c47565b60405180910390f35b6101df60048036038101906101da9190610d97565b61056f565b005b3480156101ed57600080fd5b506101f6610706565b6040516102039190610c47565b60405180910390f35b34801561021857600080fd5b5061022161070c565b60405161022e9190610c47565b60405180910390f35b34801561024357600080fd5b5061024c610714565b6040516102599190610af2565b60405180910390f35b61026a610720565b005b34801561027857600080fd5b50610293600480360381019061028e9190610a1f565b6107a7565b005b3480156102a157600080fd5b506102aa6108e5565b6040516102b79190610c47565b60405180910390f35b3480156102cc57600080fd5b506102e760048036038101906102e29190610a1f565b6108eb565b6040516102f49190610af2565b60405180910390f35b600260009054906101000a900473ffffffffffffffffffffffffffffffffffffffff1673ffffffffffffffffffffffffffffffffffffffff163373ffffffffffffffffffffffffffffffffffffffff161461035757600080fd5b60006001600083815260200190815260200160002090508060020160149054906101000a900460ff161561038a57600080fd5b610393826108eb565b61039c57600080fd5b60018160020160146101000a81548160ff02191690831515021790555060008160020160009054906101000a900473ffffffffffffffffffffffffffffffffffffffff1690508073ffffffffffffffffffffffffffffffffffffffff166108fc83600101549081150290604051600060405180830381858888f1935050505015801561042c573d6000803e3d6000fd5b50505050565b60056020528060005260406000206000915054906101000a900460ff1681565b600260009054906101000a900473ffffffffffffffffffffffffffffffffffffffff1681565b600160205280600052604060002060009150905080600001805461049b90610e35565b80601f01602080910402602001604051908101604052809291908181526020018280546104c790610e35565b80156105145780601f106104e957610100808354040283529160200191610514565b820191906000526020600020905b8154815290600101906020018083116104f757829003601f168201915b5050505050908060010154908060020160009054906101000a900473ffffffffffffffffffffffffffffffffffffffff16908060020160149054906101000a900460ff16908060030154908060040154905086565b60065481565b600260009054906101000a900473ffffffffffffffffffffffffffffffffffffffff1673ffffffffffffffffffffffffffffffffffffffff163373ffffffffffffffffffffffffffffffffffffffff16146105c957600080fd5b600060016000805481526020019081526020016000209050838160000190805190602001906105f9929190610932565b50828160010181905550818160020160006101000a81548173ffffffffffffffffffffffffffffffffffffffff021916908373ffffffffffffffffffffffffffffffffffffffff16021790555060008160020160146101000a81548160ff021916908315150217905550600081600401819055506000816005016000600260009054906101000a900473ffffffffffffffffffffffffffffffffffffffff1673ffffffffffffffffffffffffffffffffffffffff1673ffffffffffffffffffffffffffffffffffffffff16815260200190815260200160002060006101000a81548160ff0219169083151502179055506000808154809291906106fb90610e96565b919050555050505050565b60035481565b600047905090565b60008060065411905090565b600354341161072e57600080fd5b346004819055506001600560003373ffffffffffffffffffffffffffffffffffffffff1673ffffffffffffffffffffffffffffffffffffffff16815260200190815260200160002060006101000a81548160ff021916908315150217905550600660008154809291906107a090610e96565b9190505550565b600560003373ffffffffffffffffffffffffffffffffffffffff1673ffffffffffffffffffffffffffffffffffffffff16815260200190815260200160002060009054906101000a900460ff166107fd57600080fd5b60006001600083815260200190815260200160002090508060050160003373ffffffffffffffffffffffffffffffffffffffff1673ffffffffffffffffffffffffffffffffffffffff16815260200190815260200160002060009054906101000a900460ff161561086d57600080fd5b80600401600081548092919061088290610e96565b919050555060018160050160003373ffffffffffffffffffffffffffffffffffffffff1673ffffffffffffffffffffffffffffffffffffffff16815260200190815260200160002060006101000a81548160ff0219169083151502179055505050565b60045481565b60006108f5610714565b6108fe57600080fd5b600060016000848152602001908152602001600020905060026006546109249190610f0e565b816004015411915050919050565b82805461093e90610e35565b90600052602060002090601f01602090048101928261096057600085556109a7565b82601f1061097957805160ff19168380011785556109a7565b828001600101855582156109a7579182015b828111156109a657825182559160200191906001019061098b565b5b5090506109b491906109b8565b5090565b5b808211156109d15760008160009055506001016109b9565b5090565b6000604051905090565b600080fd5b600080fd5b6000819050919050565b6109fc816109e9565b8114610a0757600080fd5b50565b600081359050610a19816109f3565b92915050565b600060208284031215610a3557610a346109df565b5b6000610a4384828501610a0a565b91505092915050565b600073ffffffffffffffffffffffffffffffffffffffff82169050919050565b6000610a7782610a4c565b9050919050565b610a8781610a6c565b8114610a9257600080fd5b50565b600081359050610aa481610a7e565b92915050565b600060208284031215610ac057610abf6109df565b5b6000610ace84828501610a95565b91505092915050565b60008115159050919050565b610aec81610ad7565b82525050565b6000602082019050610b076000830184610ae3565b92915050565b610b1681610a6c565b82525050565b6000602082019050610b316000830184610b0d565b92915050565b600081519050919050565b600082825260208201905092915050565b60005b83811015610b71578082015181840152602081019050610b56565b83811115610b80576000848401525b50505050565b6000601f19601f8301169050919050565b6000610ba282610b37565b610bac8185610b42565b9350610bbc818560208601610b53565b610bc581610b86565b840191505092915050565b610bd9816109e9565b82525050565b600060c0820190508181036000830152610bf98189610b97565b9050610c086020830188610bd0565b610c156040830187610b0d565b610c226060830186610ae3565b610c2f6080830185610bd0565b610c3c60a0830184610bd0565b979650505050505050565b6000602082019050610c5c6000830184610bd0565b92915050565b600080fd5b600080fd5b7f4e487b7100000000000000000000000000000000000000000000000000000000600052604160045260246000fd5b610ca482610b86565b810181811067ffffffffffffffff82111715610cc357610cc2610c6c565b5b80604052505050565b6000610cd66109d5565b9050610ce28282610c9b565b919050565b600067ffffffffffffffff821115610d0257610d01610c6c565b5b610d0b82610b86565b9050602081019050919050565b82818337600083830152505050565b6000610d3a610d3584610ce7565b610ccc565b905082815260208101848484011115610d5657610d55610c67565b5b610d61848285610d18565b509392505050565b600082601f830112610d7e57610d7d610c62565b5b8135610d8e848260208601610d27565b91505092915050565b600080600060608486031215610db057610daf6109df565b5b600084013567ffffffffffffffff811115610dce57610dcd6109e4565b5b610dda86828701610d69565b9350506020610deb86828701610a0a565b9250506040610dfc86828701610a95565b9150509250925092565b7f4e487b7100000000000000000000000000000000000000000000000000000000600052602260045260246000fd5b60006002820490506001821680610e4d57607f821691505b60208210811415610e6157610e60610e06565b5b50919050565b7f4e487b7100000000000000000000000000000000000000000000000000000000600052601160045260246000fd5b6000610ea1826109e9565b91507fffffffffffffffffffffffffffffffffffffffffffffffffffffffffffffffff821415610ed457610ed3610e67565b5b600182019050919050565b7f4e487b7100000000000000000000000000000000000000000000000000000000600052601260045260246000fd5b6000610f19826109e9565b9150610f24836109e9565b925082610f3457610f33610edf565b5b82820490509291505056fea26469706673582212209e847a716cdc448aa79bcab475d8d1447cafa224a6db00f2ea382cba3605e5a664736f6c634300080c0033","opcodes":"PUSH1 0x80 PUSH1 0x40 MSTORE PUSH1 0x40 MLOAD PUSH3 0x10EA CODESIZE SUB DUP1 PUSH3 0x10EA DUP4 CODECOPY DUP2 DUP2 ADD PUSH1 0x40 MSTORE DUP2 ADD SWAP1 PUSH3 0x29 SWAP2 SWAP1 PUSH3 0x11E JUMP JUMPDEST DUP1 PUSH1 0x2 PUSH1 0x0 PUSH2 0x100 EXP DUP2 SLOAD DUP2 PUSH20 0xFFFFFFFFFFFFFFFFFFFFFFFFFFFFFFFFFFFFFFFF MUL NOT AND SWAP1 DUP4 PUSH20 0xFFFFFFFFFFFFFFFFFFFFFFFFFFFFFFFFFFFFFFFF AND MUL OR SWAP1 SSTORE POP DUP2 PUSH1 0x3 DUP2 SWAP1 SSTORE POP POP POP PUSH3 0x165 JUMP JUMPDEST PUSH1 0x0 DUP1 REVERT JUMPDEST PUSH1 0x0 DUP2 SWAP1 POP SWAP2 SWAP1 POP JUMP JUMPDEST PUSH3 0x93 DUP2 PUSH3 0x7E JUMP JUMPDEST DUP2 EQ PUSH3 0x9F JUMPI PUSH1 0x0 DUP1 REVERT JUMPDEST POP JUMP JUMPDEST PUSH1 0x0 DUP2 MLOAD SWAP1 POP PUSH3 0xB3 DUP2 PUSH3 0x88 JUMP JUMPDEST SWAP3 SWAP2 POP POP JUMP JUMPDEST PUSH1 0x0 PUSH20 0xFFFFFFFFFFFFFFFFFFFFFFFFFFFFFFFFFFFFFFFF DUP3 AND SWAP1 POP SWAP2 SWAP1 POP JUMP JUMPDEST PUSH1 0x0 PUSH3 0xE6 DUP3 PUSH3 0xB9 JUMP JUMPDEST SWAP1 POP SWAP2 SWAP1 POP JUMP JUMPDEST PUSH3 0xF8 DUP2 PUSH3 0xD9 JUMP JUMPDEST DUP2 EQ PUSH3 0x104 JUMPI PUSH1 0x0 DUP1 REVERT JUMPDEST POP JUMP JUMPDEST PUSH1 0x0 DUP2 MLOAD SWAP1 POP PUSH3 0x118 DUP2 PUSH3 0xED JUMP JUMPDEST SWAP3 SWAP2 POP POP JUMP JUMPDEST PUSH1 0x0 DUP1 PUSH1 0x40 DUP4 DUP6 SUB SLT ISZERO PUSH3 0x138 JUMPI PUSH3 0x137 PUSH3 0x79 JUMP JUMPDEST JUMPDEST PUSH1 0x0 PUSH3 0x148 DUP6 DUP3 DUP7 ADD PUSH3 0xA2 JUMP JUMPDEST SWAP3 POP POP PUSH1 0x20 PUSH3 0x15B DUP6 DUP3 DUP7 ADD PUSH3 0x107 JUMP JUMPDEST SWAP2 POP POP SWAP3 POP SWAP3 SWAP1 POP JUMP JUMPDEST PUSH2 0xF75 DUP1 PUSH3 0x175 PUSH1 0x0 CODECOPY PUSH1 0x0 RETURN INVALID PUSH1 0x80 PUSH1 0x40 MSTORE PUSH1 0x4 CALLDATASIZE LT PUSH2 0xC2 JUMPI PUSH1 0x0 CALLDATALOAD PUSH1 0xE0 SHR DUP1 PUSH4 0x937E09B1 GT PUSH2 0x7F JUMPI DUP1 PUSH4 0xD7BB99BA GT PUSH2 0x59 JUMPI DUP1 PUSH4 0xD7BB99BA EQ PUSH2 0x262 JUMPI DUP1 PUSH4 0xD7D1BBDB EQ PUSH2 0x26C JUMPI DUP1 PUSH4 0xE1C24D51 EQ PUSH2 0x295 JUMPI DUP1 PUSH4 0xFD35E8B6 EQ PUSH2 0x2C0 JUMPI PUSH2 0xC2 JUMP JUMPDEST DUP1 PUSH4 0x937E09B1 EQ PUSH2 0x1E1 JUMPI DUP1 PUSH4 0xB69EF8A8 EQ PUSH2 0x20C JUMPI DUP1 PUSH4 0xC29D566D EQ PUSH2 0x237 JUMPI PUSH2 0xC2 JUMP JUMPDEST DUP1 PUSH4 0x3441006 EQ PUSH2 0xC7 JUMPI DUP1 PUSH4 0xA144391 EQ PUSH2 0xF0 JUMPI DUP1 PUSH4 0x481C6A75 EQ PUSH2 0x12D JUMPI DUP1 PUSH4 0x81D12C58 EQ PUSH2 0x158 JUMPI DUP1 PUSH4 0x82FDE093 EQ PUSH2 0x19A JUMPI DUP1 PUSH4 0x8A9CFD55 EQ PUSH2 0x1C5 JUMPI JUMPDEST PUSH1 0x0 DUP1 REVERT JUMPDEST CALLVALUE DUP1 ISZERO PUSH2 0xD3 JUMPI PUSH1 0x0 DUP1 REVERT JUMPDEST POP PUSH2 0xEE PUSH1 0x4 DUP1 CALLDATASIZE SUB DUP2 ADD SWAP1 PUSH2 0xE9 SWAP2 SWAP1 PUSH2 0xA1F JUMP JUMPDEST PUSH2 0x2FD JUMP JUMPDEST STOP JUMPDEST CALLVALUE DUP1 ISZERO PUSH2 0xFC JUMPI PUSH1 0x0 DUP1 REVERT JUMPDEST POP PUSH2 0x117 PUSH1 0x4 DUP1 CALLDATASIZE SUB DUP2 ADD SWAP1 PUSH2 0x112 SWAP2 SWAP1 PUSH2 0xAAA JUMP JUMPDEST PUSH2 0x432 JUMP JUMPDEST PUSH1 0x40 MLOAD PUSH2 0x124 SWAP2 SWAP1 PUSH2 0xAF2 JUMP JUMPDEST PUSH1 0x40 MLOAD DUP1 SWAP2 SUB SWAP1 RETURN JUMPDEST CALLVALUE DUP1 ISZERO PUSH2 0x139 JUMPI PUSH1 0x0 DUP1 REVERT JUMPDEST POP PUSH2 0x142 PUSH2 0x452 JUMP JUMPDEST PUSH1 0x40 MLOAD PUSH2 0x14F SWAP2 SWAP1 PUSH2 0xB1C JUMP JUMPDEST PUSH1 0x40 MLOAD DUP1 SWAP2 SUB SWAP1 RETURN JUMPDEST CALLVALUE DUP1 ISZERO PUSH2 0x164 JUMPI PUSH1 0x0 DUP1 REVERT JUMPDEST POP PUSH2 0x17F PUSH1 0x4 DUP1 CALLDATASIZE SUB DUP2 ADD SWAP1 PUSH2 0x17A SWAP2 SWAP1 PUSH2 0xA1F JUMP JUMPDEST PUSH2 0x478 JUMP JUMPDEST PUSH1 0x40 MLOAD PUSH2 0x191 SWAP7 SWAP6 SWAP5 SWAP4 SWAP3 SWAP2 SWAP1 PUSH2 0xBDF JUMP JUMPDEST PUSH1 0x40 MLOAD DUP1 SWAP2 SUB SWAP1 RETURN JUMPDEST CALLVALUE DUP1 ISZERO PUSH2 0x1A6 JUMPI PUSH1 0x0 DUP1 REVERT JUMPDEST POP PUSH2 0x1AF PUSH2 0x569 JUMP JUMPDEST PUSH1 0x40 MLOAD PUSH2 0x1BC SWAP2 SWAP1 PUSH2 0xC47 JUMP JUMPDEST PUSH1 0x40 MLOAD DUP1 SWAP2 SUB SWAP1 RETURN JUMPDEST PUSH2 0x1DF PUSH1 0x4 DUP1 CALLDATASIZE SUB DUP2 ADD SWAP1 PUSH2 0x1DA SWAP2 SWAP1 PUSH2 0xD97 JUMP JUMPDEST PUSH2 0x56F JUMP JUMPDEST STOP JUMPDEST CALLVALUE DUP1 ISZERO PUSH2 0x1ED JUMPI PUSH1 0x0 DUP1 REVERT JUMPDEST POP PUSH2 0x1F6 PUSH2 0x706 JUMP JUMPDEST PUSH1 0x40 MLOAD PUSH2 0x203 SWAP2 SWAP1 PUSH2 0xC47 JUMP JUMPDEST PUSH1 0x40 MLOAD DUP1 SWAP2 SUB SWAP1 RETURN JUMPDEST CALLVALUE DUP1 ISZERO PUSH2 0x218 JUMPI PUSH1 0x0 DUP1 REVERT JUMPDEST POP PUSH2 0x221 PUSH2 0x70C JUMP JUMPDEST PUSH1 0x40 MLOAD PUSH2 0x22E SWAP2 SWAP1 PUSH2 0xC47 JUMP JUMPDEST PUSH1 0x40 MLOAD DUP1 SWAP2 SUB SWAP1 RETURN JUMPDEST CALLVALUE DUP1 ISZERO PUSH2 0x243 JUMPI PUSH1 0x0 DUP1 REVERT JUMPDEST POP PUSH2 0x24C PUSH2 0x714 JUMP JUMPDEST PUSH1 0x40 MLOAD PUSH2 0x259 SWAP2 SWAP1 PUSH2 0xAF2 JUMP JUMPDEST PUSH1 0x40 MLOAD DUP1 SWAP2 SUB SWAP1 RETURN JUMPDEST PUSH2 0x26A PUSH2 0x720 JUMP JUMPDEST STOP JUMPDEST CALLVALUE DUP1 ISZERO PUSH2 0x278 JUMPI PUSH1 0x0 DUP1 REVERT JUMPDEST POP PUSH2 0x293 PUSH1 0x4 DUP1 CALLDATASIZE SUB DUP2 ADD SWAP1 PUSH2 0x28E SWAP2 SWAP1 PUSH2 0xA1F JUMP JUMPDEST PUSH2 0x7A7 JUMP JUMPDEST STOP JUMPDEST CALLVALUE DUP1 ISZERO PUSH2 0x2A1 JUMPI PUSH1 0x0 DUP1 REVERT JUMPDEST POP PUSH2 0x2AA PUSH2 0x8E5 JUMP JUMPDEST PUSH1 0x40 MLOAD PUSH2 0x2B7 SWAP2 SWAP1 PUSH2 0xC47 JUMP JUMPDEST PUSH1 0x40 MLOAD DUP1 SWAP2 SUB SWAP1 RETURN JUMPDEST CALLVALUE DUP1 ISZERO PUSH2 0x2CC JUMPI PUSH1 0x0 DUP1 REVERT JUMPDEST POP PUSH2 0x2E7 PUSH1 0x4 DUP1 CALLDATASIZE SUB DUP2 ADD SWAP1 PUSH2 0x2E2 SWAP2 SWAP1 PUSH2 0xA1F JUMP JUMPDEST PUSH2 0x8EB JUMP JUMPDEST PUSH1 0x40 MLOAD PUSH2 0x2F4 SWAP2 SWAP1 PUSH2 0xAF2 JUMP JUMPDEST PUSH1 0x40 MLOAD DUP1 SWAP2 SUB SWAP1 RETURN JUMPDEST PUSH1 0x2 PUSH1 0x0 SWAP1 SLOAD SWAP1 PUSH2 0x100 EXP SWAP1 DIV PUSH20 0xFFFFFFFFFFFFFFFFFFFFFFFFFFFFFFFFFFFFFFFF AND PUSH20 0xFFFFFFFFFFFFFFFFFFFFFFFFFFFFFFFFFFFFFFFF AND CALLER PUSH20 0xFFFFFFFFFFFFFFFFFFFFFFFFFFFFFFFFFFFFFFFF AND EQ PUSH2 0x357 JUMPI PUSH1 0x0 DUP1 REVERT JUMPDEST PUSH1 0x0 PUSH1 0x1 PUSH1 0x0 DUP4 DUP2 MSTORE PUSH1 0x20 ADD SWAP1 DUP2 MSTORE PUSH1 0x20 ADD PUSH1 0x0 KECCAK256 SWAP1 POP DUP1 PUSH1 0x2 ADD PUSH1 0x14 SWAP1 SLOAD SWAP1 PUSH2 0x100 EXP SWAP1 DIV PUSH1 0xFF AND ISZERO PUSH2 0x38A JUMPI PUSH1 0x0 DUP1 REVERT JUMPDEST PUSH2 0x393 DUP3 PUSH2 0x8EB JUMP JUMPDEST PUSH2 0x39C JUMPI PUSH1 0x0 DUP1 REVERT JUMPDEST PUSH1 0x1 DUP2 PUSH1 0x2 ADD PUSH1 0x14 PUSH2 0x100 EXP DUP2 SLOAD DUP2 PUSH1 0xFF MUL NOT AND SWAP1 DUP4 ISZERO ISZERO MUL OR SWAP1 SSTORE POP PUSH1 0x0 DUP2 PUSH1 0x2 ADD PUSH1 0x0 SWAP1 SLOAD SWAP1 PUSH2 0x100 EXP SWAP1 DIV PUSH20 0xFFFFFFFFFFFFFFFFFFFFFFFFFFFFFFFFFFFFFFFF AND SWAP1 POP DUP1 PUSH20 0xFFFFFFFFFFFFFFFFFFFFFFFFFFFFFFFFFFFFFFFF AND PUSH2 0x8FC DUP4 PUSH1 0x1 ADD SLOAD SWAP1 DUP2 ISZERO MUL SWAP1 PUSH1 0x40 MLOAD PUSH1 0x0 PUSH1 0x40 MLOAD DUP1 DUP4 SUB DUP2 DUP6 DUP9 DUP9 CALL SWAP4 POP POP POP POP ISZERO DUP1 ISZERO PUSH2 0x42C JUMPI RETURNDATASIZE PUSH1 0x0 DUP1 RETURNDATACOPY RETURNDATASIZE PUSH1 0x0 REVERT JUMPDEST POP POP POP POP JUMP JUMPDEST PUSH1 0x5 PUSH1 0x20 MSTORE DUP1 PUSH1 0x0 MSTORE PUSH1 0x40 PUSH1 0x0 KECCAK256 PUSH1 0x0 SWAP2 POP SLOAD SWAP1 PUSH2 0x100 EXP SWAP1 DIV PUSH1 0xFF AND DUP2 JUMP JUMPDEST PUSH1 0x2 PUSH1 0x0 SWAP1 SLOAD SWAP1 PUSH2 0x100 EXP SWAP1 DIV PUSH20 0xFFFFFFFFFFFFFFFFFFFFFFFFFFFFFFFFFFFFFFFF AND DUP2 JUMP JUMPDEST PUSH1 0x1 PUSH1 0x20 MSTORE DUP1 PUSH1 0x0 MSTORE PUSH1 0x40 PUSH1 0x0 KECCAK256 PUSH1 0x0 SWAP2 POP SWAP1 POP DUP1 PUSH1 0x0 ADD DUP1 SLOAD PUSH2 0x49B SWAP1 PUSH2 0xE35 JUMP JUMPDEST DUP1 PUSH1 0x1F ADD PUSH1 0x20 DUP1 SWAP2 DIV MUL PUSH1 0x20 ADD PUSH1 0x40 MLOAD SWAP1 DUP2 ADD PUSH1 0x40 MSTORE DUP1 SWAP3 SWAP2 SWAP1 DUP2 DUP2 MSTORE PUSH1 0x20 ADD DUP3 DUP1 SLOAD PUSH2 0x4C7 SWAP1 PUSH2 0xE35 JUMP JUMPDEST DUP1 ISZERO PUSH2 0x514 JUMPI DUP1 PUSH1 0x1F LT PUSH2 0x4E9 JUMPI PUSH2 0x100 DUP1 DUP4 SLOAD DIV MUL DUP4 MSTORE SWAP2 PUSH1 0x20 ADD SWAP2 PUSH2 0x514 JUMP JUMPDEST DUP3 ADD SWAP2 SWAP1 PUSH1 0x0 MSTORE PUSH1 0x20 PUSH1 0x0 KECCAK256 SWAP1 JUMPDEST DUP2 SLOAD DUP2 MSTORE SWAP1 PUSH1 0x1 ADD SWAP1 PUSH1 0x20 ADD DUP1 DUP4 GT PUSH2 0x4F7 JUMPI DUP3 SWAP1 SUB PUSH1 0x1F AND DUP3 ADD SWAP2 JUMPDEST POP POP POP POP POP SWAP1 DUP1 PUSH1 0x1 ADD SLOAD SWAP1 DUP1 PUSH1 0x2 ADD PUSH1 0x0 SWAP1 SLOAD SWAP1 PUSH2 0x100 EXP SWAP1 DIV PUSH20 0xFFFFFFFFFFFFFFFFFFFFFFFFFFFFFFFFFFFFFFFF AND SWAP1 DUP1 PUSH1 0x2 ADD PUSH1 0x14 SWAP1 SLOAD SWAP1 PUSH2 0x100 EXP SWAP1 DIV PUSH1 0xFF AND SWAP1 DUP1 PUSH1 0x3 ADD SLOAD SWAP1 DUP1 PUSH1 0x4 ADD SLOAD SWAP1 POP DUP7 JUMP JUMPDEST PUSH1 0x6 SLOAD DUP2 JUMP JUMPDEST PUSH1 0x2 PUSH1 0x0 SWAP1 SLOAD SWAP1 PUSH2 0x100 EXP SWAP1 DIV PUSH20 0xFFFFFFFFFFFFFFFFFFFFFFFFFFFFFFFFFFFFFFFF AND PUSH20 0xFFFFFFFFFFFFFFFFFFFFFFFFFFFFFFFFFFFFFFFF AND CALLER PUSH20 0xFFFFFFFFFFFFFFFFFFFFFFFFFFFFFFFFFFFFFFFF AND EQ PUSH2 0x5C9 JUMPI PUSH1 0x0 DUP1 REVERT JUMPDEST PUSH1 0x0 PUSH1 0x1 PUSH1 0x0 DUP1 SLOAD DUP2 MSTORE PUSH1 0x20 ADD SWAP1 DUP2 MSTORE PUSH1 0x20 ADD PUSH1 0x0 KECCAK256 SWAP1 POP DUP4 DUP2 PUSH1 0x0 ADD SWAP1 DUP1 MLOAD SWAP1 PUSH1 0x20 ADD SWAP1 PUSH2 0x5F9 SWAP3 SWAP2 SWAP1 PUSH2 0x932 JUMP JUMPDEST POP DUP3 DUP2 PUSH1 0x1 ADD DUP2 SWAP1 SSTORE POP DUP2 DUP2 PUSH1 0x2 ADD PUSH1 0x0 PUSH2 0x100 EXP DUP2 SLOAD DUP2 PUSH20 0xFFFFFFFFFFFFFFFFFFFFFFFFFFFFFFFFFFFFFFFF MUL NOT AND SWAP1 DUP4 PUSH20 0xFFFFFFFFFFFFFFFFFFFFFFFFFFFFFFFFFFFFFFFF AND MUL OR SWAP1 SSTORE POP PUSH1 0x0 DUP2 PUSH1 0x2 ADD PUSH1 0x14 PUSH2 0x100 EXP DUP2 SLOAD DUP2 PUSH1 0xFF MUL NOT AND SWAP1 DUP4 ISZERO ISZERO MUL OR SWAP1 SSTORE POP PUSH1 0x0 DUP2 PUSH1 0x4 ADD DUP2 SWAP1 SSTORE POP PUSH1 0x0 DUP2 PUSH1 0x5 ADD PUSH1 0x0 PUSH1 0x2 PUSH1 0x0 SWAP1 SLOAD SWAP1 PUSH2 0x100 EXP SWAP1 DIV PUSH20 0xFFFFFFFFFFFFFFFFFFFFFFFFFFFFFFFFFFFFFFFF AND PUSH20 0xFFFFFFFFFFFFFFFFFFFFFFFFFFFFFFFFFFFFFFFF AND PUSH20 0xFFFFFFFFFFFFFFFFFFFFFFFFFFFFFFFFFFFFFFFF AND DUP2 MSTORE PUSH1 0x20 ADD SWAP1 DUP2 MSTORE PUSH1 0x20 ADD PUSH1 0x0 KECCAK256 PUSH1 0x0 PUSH2 0x100 EXP DUP2 SLOAD DUP2 PUSH1 0xFF MUL NOT AND SWAP1 DUP4 ISZERO ISZERO MUL OR SWAP1 SSTORE POP PUSH1 0x0 DUP1 DUP2 SLOAD DUP1 SWAP3 SWAP2 SWAP1 PUSH2 0x6FB SWAP1 PUSH2 0xE96 JUMP JUMPDEST SWAP2 SWAP1 POP SSTORE POP POP POP POP POP JUMP JUMPDEST PUSH1 0x3 SLOAD DUP2 JUMP JUMPDEST PUSH1 0x0 SELFBALANCE SWAP1 POP SWAP1 JUMP JUMPDEST PUSH1 0x0 DUP1 PUSH1 0x6 SLOAD GT SWAP1 POP SWAP1 JUMP JUMPDEST PUSH1 0x3 SLOAD CALLVALUE GT PUSH2 0x72E JUMPI PUSH1 0x0 DUP1 REVERT JUMPDEST CALLVALUE PUSH1 0x4 DUP2 SWAP1 SSTORE POP PUSH1 0x1 PUSH1 0x5 PUSH1 0x0 CALLER PUSH20 0xFFFFFFFFFFFFFFFFFFFFFFFFFFFFFFFFFFFFFFFF AND PUSH20 0xFFFFFFFFFFFFFFFFFFFFFFFFFFFFFFFFFFFFFFFF AND DUP2 MSTORE PUSH1 0x20 ADD SWAP1 DUP2 MSTORE PUSH1 0x20 ADD PUSH1 0x0 KECCAK256 PUSH1 0x0 PUSH2 0x100 EXP DUP2 SLOAD DUP2 PUSH1 0xFF MUL NOT AND SWAP1 DUP4 ISZERO ISZERO MUL OR SWAP1 SSTORE POP PUSH1 0x6 PUSH1 0x0 DUP2 SLOAD DUP1 SWAP3 SWAP2 SWAP1 PUSH2 0x7A0 SWAP1 PUSH2 0xE96 JUMP JUMPDEST SWAP2 SWAP1 POP SSTORE POP JUMP JUMPDEST PUSH1 0x5 PUSH1 0x0 CALLER PUSH20 0xFFFFFFFFFFFFFFFFFFFFFFFFFFFFFFFFFFFFFFFF AND PUSH20 0xFFFFFFFFFFFFFFFFFFFFFFFFFFFFFFFFFFFFFFFF AND DUP2 MSTORE PUSH1 0x20 ADD SWAP1 DUP2 MSTORE PUSH1 0x20 ADD PUSH1 0x0 KECCAK256 PUSH1 0x0 SWAP1 SLOAD SWAP1 PUSH2 0x100 EXP SWAP1 DIV PUSH1 0xFF AND PUSH2 0x7FD JUMPI PUSH1 0x0 DUP1 REVERT JUMPDEST PUSH1 0x0 PUSH1 0x1 PUSH1 0x0 DUP4 DUP2 MSTORE PUSH1 0x20 ADD SWAP1 DUP2 MSTORE PUSH1 0x20 ADD PUSH1 0x0 KECCAK256 SWAP1 POP DUP1 PUSH1 0x5 ADD PUSH1 0x0 CALLER PUSH20 0xFFFFFFFFFFFFFFFFFFFFFFFFFFFFFFFFFFFFFFFF AND PUSH20 0xFFFFFFFFFFFFFFFFFFFFFFFFFFFFFFFFFFFFFFFF AND DUP2 MSTORE PUSH1 0x20 ADD SWAP1 DUP2 MSTORE PUSH1 0x20 ADD PUSH1 0x0 KECCAK256 PUSH1 0x0 SWAP1 SLOAD SWAP1 PUSH2 0x100 EXP SWAP1 DIV PUSH1 0xFF AND ISZERO PUSH2 0x86D JUMPI PUSH1 0x0 DUP1 REVERT JUMPDEST DUP1 PUSH1 0x4 ADD PUSH1 0x0 DUP2 SLOAD DUP1 SWAP3 SWAP2 SWAP1 PUSH2 0x882 SWAP1 PUSH2 0xE96 JUMP JUMPDEST SWAP2 SWAP1 POP SSTORE POP PUSH1 0x1 DUP2 PUSH1 0x5 ADD PUSH1 0x0 CALLER PUSH20 0xFFFFFFFFFFFFFFFFFFFFFFFFFFFFFFFFFFFFFFFF AND PUSH20 0xFFFFFFFFFFFFFFFFFFFFFFFFFFFFFFFFFFFFFFFF AND DUP2 MSTORE PUSH1 0x20 ADD SWAP1 DUP2 MSTORE PUSH1 0x20 ADD PUSH1 0x0 KECCAK256 PUSH1 0x0 PUSH2 0x100 EXP DUP2 SLOAD DUP2 PUSH1 0xFF MUL NOT AND SWAP1 DUP4 ISZERO ISZERO MUL OR SWAP1 SSTORE POP POP POP JUMP JUMPDEST PUSH1 0x4 SLOAD DUP2 JUMP JUMPDEST PUSH1 0x0 PUSH2 0x8F5 PUSH2 0x714 JUMP JUMPDEST PUSH2 0x8FE JUMPI PUSH1 0x0 DUP1 REVERT JUMPDEST PUSH1 0x0 PUSH1 0x1 PUSH1 0x0 DUP5 DUP2 MSTORE PUSH1 0x20 ADD SWAP1 DUP2 MSTORE PUSH1 0x20 ADD PUSH1 0x0 KECCAK256 SWAP1 POP PUSH1 0x2 PUSH1 0x6 SLOAD PUSH2 0x924 SWAP2 SWAP1 PUSH2 0xF0E JUMP JUMPDEST DUP2 PUSH1 0x4 ADD SLOAD GT SWAP2 POP POP SWAP2 SWAP1 POP JUMP JUMPDEST DUP3 DUP1 SLOAD PUSH2 0x93E SWAP1 PUSH2 0xE35 JUMP JUMPDEST SWAP1 PUSH1 0x0 MSTORE PUSH1 0x20 PUSH1 0x0 KECCAK256 SWAP1 PUSH1 0x1F ADD PUSH1 0x20 SWAP1 DIV DUP2 ADD SWAP3 DUP3 PUSH2 0x960 JUMPI PUSH1 0x0 DUP6 SSTORE PUSH2 0x9A7 JUMP JUMPDEST DUP3 PUSH1 0x1F LT PUSH2 0x979 JUMPI DUP1 MLOAD PUSH1 0xFF NOT AND DUP4 DUP1 ADD OR DUP6 SSTORE PUSH2 0x9A7 JUMP JUMPDEST DUP3 DUP1 ADD PUSH1 0x1 ADD DUP6 SSTORE DUP3 ISZERO PUSH2 0x9A7 JUMPI SWAP2 DUP3 ADD JUMPDEST DUP3 DUP2 GT ISZERO PUSH2 0x9A6 JUMPI DUP3 MLOAD DUP3 SSTORE SWAP2 PUSH1 0x20 ADD SWAP2 SWAP1 PUSH1 0x1 ADD SWAP1 PUSH2 0x98B JUMP JUMPDEST JUMPDEST POP SWAP1 POP PUSH2 0x9B4 SWAP2 SWAP1 PUSH2 0x9B8 JUMP JUMPDEST POP SWAP1 JUMP JUMPDEST JUMPDEST DUP1 DUP3 GT ISZERO PUSH2 0x9D1 JUMPI PUSH1 0x0 DUP2 PUSH1 0x0 SWAP1 SSTORE POP PUSH1 0x1 ADD PUSH2 0x9B9 JUMP JUMPDEST POP SWAP1 JUMP JUMPDEST PUSH1 0x0 PUSH1 0x40 MLOAD SWAP1 POP SWAP1 JUMP JUMPDEST PUSH1 0x0 DUP1 REVERT JUMPDEST PUSH1 0x0 DUP1 REVERT JUMPDEST PUSH1 0x0 DUP2 SWAP1 POP SWAP2 SWAP1 POP JUMP JUMPDEST PUSH2 0x9FC DUP2 PUSH2 0x9E9 JUMP JUMPDEST DUP2 EQ PUSH2 0xA07 JUMPI PUSH1 0x0 DUP1 REVERT JUMPDEST POP JUMP JUMPDEST PUSH1 0x0 DUP2 CALLDATALOAD SWAP1 POP PUSH2 0xA19 DUP2 PUSH2 0x9F3 JUMP JUMPDEST SWAP3 SWAP2 POP POP JUMP JUMPDEST PUSH1 0x0 PUSH1 0x20 DUP3 DUP5 SUB SLT ISZERO PUSH2 0xA35 JUMPI PUSH2 0xA34 PUSH2 0x9DF JUMP JUMPDEST JUMPDEST PUSH1 0x0 PUSH2 0xA43 DUP5 DUP3 DUP6 ADD PUSH2 0xA0A JUMP JUMPDEST SWAP2 POP POP SWAP3 SWAP2 POP POP JUMP JUMPDEST PUSH1 0x0 PUSH20 0xFFFFFFFFFFFFFFFFFFFFFFFFFFFFFFFFFFFFFFFF DUP3 AND SWAP1 POP SWAP2 SWAP1 POP JUMP JUMPDEST PUSH1 0x0 PUSH2 0xA77 DUP3 PUSH2 0xA4C JUMP JUMPDEST SWAP1 POP SWAP2 SWAP1 POP JUMP JUMPDEST PUSH2 0xA87 DUP2 PUSH2 0xA6C JUMP JUMPDEST DUP2 EQ PUSH2 0xA92 JUMPI PUSH1 0x0 DUP1 REVERT JUMPDEST POP JUMP JUMPDEST PUSH1 0x0 DUP2 CALLDATALOAD SWAP1 POP PUSH2 0xAA4 DUP2 PUSH2 0xA7E JUMP JUMPDEST SWAP3 SWAP2 POP POP JUMP JUMPDEST PUSH1 0x0 PUSH1 0x20 DUP3 DUP5 SUB SLT ISZERO PUSH2 0xAC0 JUMPI PUSH2 0xABF PUSH2 0x9DF JUMP JUMPDEST JUMPDEST PUSH1 0x0 PUSH2 0xACE DUP5 DUP3 DUP6 ADD PUSH2 0xA95 JUMP JUMPDEST SWAP2 POP POP SWAP3 SWAP2 POP POP JUMP JUMPDEST PUSH1 0x0 DUP2 ISZERO ISZERO SWAP1 POP SWAP2 SWAP1 POP JUMP JUMPDEST PUSH2 0xAEC DUP2 PUSH2 0xAD7 JUMP JUMPDEST DUP3 MSTORE POP POP JUMP JUMPDEST PUSH1 0x0 PUSH1 0x20 DUP3 ADD SWAP1 POP PUSH2 0xB07 PUSH1 0x0 DUP4 ADD DUP5 PUSH2 0xAE3 JUMP JUMPDEST SWAP3 SWAP2 POP POP JUMP JUMPDEST PUSH2 0xB16 DUP2 PUSH2 0xA6C JUMP JUMPDEST DUP3 MSTORE POP POP JUMP JUMPDEST PUSH1 0x0 PUSH1 0x20 DUP3 ADD SWAP1 POP PUSH2 0xB31 PUSH1 0x0 DUP4 ADD DUP5 PUSH2 0xB0D JUMP JUMPDEST SWAP3 SWAP2 POP POP JUMP JUMPDEST PUSH1 0x0 DUP2 MLOAD SWAP1 POP SWAP2 SWAP1 POP JUMP JUMPDEST PUSH1 0x0 DUP3 DUP3 MSTORE PUSH1 0x20 DUP3 ADD SWAP1 POP SWAP3 SWAP2 POP POP JUMP JUMPDEST PUSH1 0x0 JUMPDEST DUP4 DUP2 LT ISZERO PUSH2 0xB71 JUMPI DUP1 DUP3 ADD MLOAD DUP2 DUP5 ADD MSTORE PUSH1 0x20 DUP2 ADD SWAP1 POP PUSH2 0xB56 JUMP JUMPDEST DUP4 DUP2 GT ISZERO PUSH2 0xB80 JUMPI PUSH1 0x0 DUP5 DUP5 ADD MSTORE JUMPDEST POP POP POP POP JUMP JUMPDEST PUSH1 0x0 PUSH1 0x1F NOT PUSH1 0x1F DUP4 ADD AND SWAP1 POP SWAP2 SWAP1 POP JUMP JUMPDEST PUSH1 0x0 PUSH2 0xBA2 DUP3 PUSH2 0xB37 JUMP JUMPDEST PUSH2 0xBAC DUP2 DUP6 PUSH2 0xB42 JUMP JUMPDEST SWAP4 POP PUSH2 0xBBC DUP2 DUP6 PUSH1 0x20 DUP7 ADD PUSH2 0xB53 JUMP JUMPDEST PUSH2 0xBC5 DUP2 PUSH2 0xB86 JUMP JUMPDEST DUP5 ADD SWAP2 POP POP SWAP3 SWAP2 POP POP JUMP JUMPDEST PUSH2 0xBD9 DUP2 PUSH2 0x9E9 JUMP JUMPDEST DUP3 MSTORE POP POP JUMP JUMPDEST PUSH1 0x0 PUSH1 0xC0 DUP3 ADD SWAP1 POP DUP2 DUP2 SUB PUSH1 0x0 DUP4 ADD MSTORE PUSH2 0xBF9 DUP2 DUP10 PUSH2 0xB97 JUMP JUMPDEST SWAP1 POP PUSH2 0xC08 PUSH1 0x20 DUP4 ADD DUP9 PUSH2 0xBD0 JUMP JUMPDEST PUSH2 0xC15 PUSH1 0x40 DUP4 ADD DUP8 PUSH2 0xB0D JUMP JUMPDEST PUSH2 0xC22 PUSH1 0x60 DUP4 ADD DUP7 PUSH2 0xAE3 JUMP JUMPDEST PUSH2 0xC2F PUSH1 0x80 DUP4 ADD DUP6 PUSH2 0xBD0 JUMP JUMPDEST PUSH2 0xC3C PUSH1 0xA0 DUP4 ADD DUP5 PUSH2 0xBD0 JUMP JUMPDEST SWAP8 SWAP7 POP POP POP POP POP POP POP JUMP JUMPDEST PUSH1 0x0 PUSH1 0x20 DUP3 ADD SWAP1 POP PUSH2 0xC5C PUSH1 0x0 DUP4 ADD DUP5 PUSH2 0xBD0 JUMP JUMPDEST SWAP3 SWAP2 POP POP JUMP JUMPDEST PUSH1 0x0 DUP1 REVERT JUMPDEST PUSH1 0x0 DUP1 REVERT JUMPDEST PUSH32 0x4E487B7100000000000000000000000000000000000000000000000000000000 PUSH1 0x0 MSTORE PUSH1 0x41 PUSH1 0x4 MSTORE PUSH1 0x24 PUSH1 0x0 REVERT JUMPDEST PUSH2 0xCA4 DUP3 PUSH2 0xB86 JUMP JUMPDEST DUP2 ADD DUP2 DUP2 LT PUSH8 0xFFFFFFFFFFFFFFFF DUP3 GT OR ISZERO PUSH2 0xCC3 JUMPI PUSH2 0xCC2 PUSH2 0xC6C JUMP JUMPDEST JUMPDEST DUP1 PUSH1 0x40 MSTORE POP POP POP JUMP JUMPDEST PUSH1 0x0 PUSH2 0xCD6 PUSH2 0x9D5 JUMP JUMPDEST SWAP1 POP PUSH2 0xCE2 DUP3 DUP3 PUSH2 0xC9B JUMP JUMPDEST SWAP2 SWAP1 POP JUMP JUMPDEST PUSH1 0x0 PUSH8 0xFFFFFFFFFFFFFFFF DUP3 GT ISZERO PUSH2 0xD02 JUMPI PUSH2 0xD01 PUSH2 0xC6C JUMP JUMPDEST JUMPDEST PUSH2 0xD0B DUP3 PUSH2 0xB86 JUMP JUMPDEST SWAP1 POP PUSH1 0x20 DUP2 ADD SWAP1 POP SWAP2 SWAP1 POP JUMP JUMPDEST DUP3 DUP2 DUP4 CALLDATACOPY PUSH1 0x0 DUP4 DUP4 ADD MSTORE POP POP POP JUMP JUMPDEST PUSH1 0x0 PUSH2 0xD3A PUSH2 0xD35 DUP5 PUSH2 0xCE7 JUMP JUMPDEST PUSH2 0xCCC JUMP JUMPDEST SWAP1 POP DUP3 DUP2 MSTORE PUSH1 0x20 DUP2 ADD DUP5 DUP5 DUP5 ADD GT ISZERO PUSH2 0xD56 JUMPI PUSH2 0xD55 PUSH2 0xC67 JUMP JUMPDEST JUMPDEST PUSH2 0xD61 DUP5 DUP3 DUP6 PUSH2 0xD18 JUMP JUMPDEST POP SWAP4 SWAP3 POP POP POP JUMP JUMPDEST PUSH1 0x0 DUP3 PUSH1 0x1F DUP4 ADD SLT PUSH2 0xD7E JUMPI PUSH2 0xD7D PUSH2 0xC62 JUMP JUMPDEST JUMPDEST DUP2 CALLDATALOAD PUSH2 0xD8E DUP5 DUP3 PUSH1 0x20 DUP7 ADD PUSH2 0xD27 JUMP JUMPDEST SWAP2 POP POP SWAP3 SWAP2 POP POP JUMP JUMPDEST PUSH1 0x0 DUP1 PUSH1 0x0 PUSH1 0x60 DUP5 DUP7 SUB SLT ISZERO PUSH2 0xDB0 JUMPI PUSH2 0xDAF PUSH2 0x9DF JUMP JUMPDEST JUMPDEST PUSH1 0x0 DUP5 ADD CALLDATALOAD PUSH8 0xFFFFFFFFFFFFFFFF DUP2 GT ISZERO PUSH2 0xDCE JUMPI PUSH2 0xDCD PUSH2 0x9E4 JUMP JUMPDEST JUMPDEST PUSH2 0xDDA DUP7 DUP3 DUP8 ADD PUSH2 0xD69 JUMP JUMPDEST SWAP4 POP POP PUSH1 0x20 PUSH2 0xDEB DUP7 DUP3 DUP8 ADD PUSH2 0xA0A JUMP JUMPDEST SWAP3 POP POP PUSH1 0x40 PUSH2 0xDFC DUP7 DUP3 DUP8 ADD PUSH2 0xA95 JUMP JUMPDEST SWAP2 POP POP SWAP3 POP SWAP3 POP SWAP3 JUMP JUMPDEST PUSH32 0x4E487B7100000000000000000000000000000000000000000000000000000000 PUSH1 0x0 MSTORE PUSH1 0x22 PUSH1 0x4 MSTORE PUSH1 0x24 PUSH1 0x0 REVERT JUMPDEST PUSH1 0x0 PUSH1 0x2 DUP3 DIV SWAP1 POP PUSH1 0x1 DUP3 AND DUP1 PUSH2 0xE4D JUMPI PUSH1 0x7F DUP3 AND SWAP2 POP JUMPDEST PUSH1 0x20 DUP3 LT DUP2 EQ ISZERO PUSH2 0xE61 JUMPI PUSH2 0xE60 PUSH2 0xE06 JUMP JUMPDEST JUMPDEST POP SWAP2 SWAP1 POP JUMP JUMPDEST PUSH32 0x4E487B7100000000000000000000000000000000000000000000000000000000 PUSH1 0x0 MSTORE PUSH1 0x11 PUSH1 0x4 MSTORE PUSH1 0x24 PUSH1 0x0 REVERT JUMPDEST PUSH1 0x0 PUSH2 0xEA1 DUP3 PUSH2 0x9E9 JUMP JUMPDEST SWAP2 POP PUSH32 0xFFFFFFFFFFFFFFFFFFFFFFFFFFFFFFFFFFFFFFFFFFFFFFFFFFFFFFFFFFFFFFFF DUP3 EQ ISZERO PUSH2 0xED4 JUMPI PUSH2 0xED3 PUSH2 0xE67 JUMP JUMPDEST JUMPDEST PUSH1 0x1 DUP3 ADD SWAP1 POP SWAP2 SWAP1 POP JUMP JUMPDEST PUSH32 0x4E487B7100000000000000000000000000000000000000000000000000000000 PUSH1 0x0 MSTORE PUSH1 0x12 PUSH1 0x4 MSTORE PUSH1 0x24 PUSH1 0x0 REVERT JUMPDEST PUSH1 0x0 PUSH2 0xF19 DUP3 PUSH2 0x9E9 JUMP JUMPDEST SWAP2 POP PUSH2 0xF24 DUP4 PUSH2 0x9E9 JUMP JUMPDEST SWAP3 POP DUP3 PUSH2 0xF34 JUMPI PUSH2 0xF33 PUSH2 0xEDF JUMP JUMPDEST JUMPDEST DUP3 DUP3 DIV SWAP1 POP SWAP3 SWAP2 POP POP JUMP INVALID LOG2 PUSH5 0x6970667358 0x22 SLT KECCAK256 SWAP15 DUP5 PUSH27 0x716CDC448AA79BCAB475D8D1447CAFA224A6DB00F2EA382CBA3605 0xE5 0xA6 PUSH5 0x736F6C6343 STOP ADDMOD 0xC STOP CALLER "},"gasEstimates":{"creation":{"codeDepositCost":"791400","executionCost":"infinite","totalCost":"infinite"},"external":{"approveRequest(uint256)":"infinite","approvers(address)":"2868","approversCount()":"2518","balance()":"384","contribute()":"73093","createRequest(string,uint256,address)":"infinite","enoughApproversForRequest(uint256)":"infinite","existsApproversForRequest()":"2516","finalizeRequest(uint256)":"infinite","lastContribution()":"2495","manager()":"2559","minimumContribution()":"2452","requests(uint256)":"infinite"}},"methodIdentifiers":{"approveRequest(uint256)":"d7d1bbdb","approvers(address)":"0a144391","approversCount()":"82fde093","balance()":"b69ef8a8","contribute()":"d7bb99ba","createRequest(string,uint256,address)":"8a9cfd55","enoughApproversForRequest(uint256)":"fd35e8b6","existsApproversForRequest()":"c29d566d","finalizeRequest(uint256)":"03441006","lastContribution()":"e1c24d51","manager()":"481c6a75","minimumContribution()":"937e09b1","requests(uint256)":"81d12c58"}},"storageLayout":{"storage":[{"astId":70,"contract":"MyPunchStarter.sol:MyPunchStarter","label":"numRequests","offset":0,"slot":"0","type":"t_uint256"},{"astId":75,"contract":"MyPunchStarter.sol:MyPunchStarter","label":"requests","offset":0,"slot":"1","type":"t_mapping(t_uint256,t_struct(Request)68_storage)"},{"astId":77,"contract":"MyPunchStarter.sol:MyPunchStarter","label":"manager","offset":0,"slot":"2","type":"t_address"},{"astId":79,"contract":"MyPunchStarter.sol:MyPunchStarter","label":"minimumContribution","offset":0,"slot":"3","type":"t_uint256"},{"astId":81,"contract":"MyPunchStarter.sol:MyPunchStarter","label":"lastContribution","offset":0,"slot":"4","type":"t_uint256"},{"astId":85,"contract":"MyPunchStarter.sol:MyPunchStarter","label":"approvers","offset":0,"slot":"5","type":"t_mapping(t_address,t_bool)"},{"astId":87,"contract":"MyPunchStarter.sol:MyPunchStarter","label":"approversCount","offset":0,"slot":"6","type":"t_uint256"}],"types":{"t_address":{"encoding":"inplace","label":"address","numberOfBytes":"20"},"t_bool":{"encoding":"inplace","label":"bool","numberOfBytes":"1"},"t_mapping(t_address,t_bool)":{"encoding":"mapping","key":"t_address","label":"mapping(address => bool)","numberOfBytes":"32","value":"t_bool"},"t_mapping(t_uint256,t_struct(Request)68_storage)":{"encoding":"mapping","key":"t_uint256","label":"mapping(uint256 => struct MyPunchStarter.Request)","numberOfBytes":"32","value":"t_struct(Request)68_storage"},"t_string_storage":{"encoding":"bytes","label":"string","numberOfBytes":"32"},"t_struct(Request)68_storage":{"encoding":"inplace","label":"struct MyPunchStarter.Request","members":[{"astId":53,"contract":"MyPunchStarter.sol:MyPunchStarter","label":"description","offset":0,"slot":"0","type":"t_string_storage"},{"astId":55,"contract":"MyPunchStarter.sol:MyPunchStarter","label":"value","offset":0,"slot":"1","type":"t_uint256"},{"astId":57,"contract":"MyPunchStarter.sol:MyPunchStarter","label":"recipient","offset":0,"slot":"2","type":"t_address"},{"astId":59,"contract":"MyPunchStarter.sol:MyPunchStarter","label":"complete","offset":20,"slot":"2","type":"t_bool"},{"astId":61,"contract":"MyPunchStarter.sol:MyPunchStarter","label":"approvalCount","offset":0,"slot":"3","type":"t_uint256"},{"astId":63,"contract":"MyPunchStarter.sol:MyPunchStarter","label":"numApprovals","offset":0,"slot":"4","type":"t_uint256"},{"astId":67,"contract":"MyPunchStarter.sol:MyPunchStarter","label":"approvals","offset":0,"slot":"5","type":"t_mapping(t_address,t_bool)"}],"numberOfBytes":"192"},"t_uint256":{"encoding":"inplace","label":"uint256","numberOfBytes":"32"}}},"userdoc":{"kind":"user","methods":{},"version":1}}